{
  "_format": "hh-sol-artifact-1",
  "contractName": "DezMM",
  "sourceName": "contracts/DezMM.sol",
  "abi": [
    {
      "inputs": [
        {
          "internalType": "address",
          "name": "_dez",
          "type": "address"
        },
        {
          "internalType": "address",
          "name": "_refs",
          "type": "address"
        },
        {
          "internalType": "address",
          "name": "_vaultAddress",
          "type": "address"
        },
        {
          "internalType": "uint256",
          "name": "_finalizeTs",
          "type": "uint256"
        }
      ],
      "stateMutability": "nonpayable",
      "type": "constructor"
    },
    {
      "anonymous": false,
      "inputs": [
        {
          "indexed": true,
          "internalType": "address",
          "name": "spender",
          "type": "address"
        },
        {
          "indexed": false,
          "internalType": "uint256",
          "name": "team",
          "type": "uint256"
        },
        {
          "indexed": false,
          "internalType": "uint256",
          "name": "amount",
          "type": "uint256"
        }
      ],
      "name": "Bet",
      "type": "event"
    },
    {
      "anonymous": false,
      "inputs": [
        {
          "indexed": false,
          "internalType": "uint256",
          "name": "winner",
          "type": "uint256"
        }
      ],
      "name": "WinnerSet",
      "type": "event"
    },
    {
      "anonymous": false,
      "inputs": [
        {
          "indexed": true,
          "internalType": "address",
          "name": "spender",
          "type": "address"
        },
        {
          "indexed": false,
          "internalType": "uint256",
          "name": "amount",
          "type": "uint256"
        }
      ],
      "name": "Withdraw",
      "type": "event"
    },
    {
      "inputs": [
        {
          "internalType": "uint256",
          "name": "_amount",
          "type": "uint256"
        },
        {
          "internalType": "address",
          "name": "refAddress",
          "type": "address"
        }
      ],
      "name": "betOnMark",
      "outputs": [],
      "stateMutability": "nonpayable",
      "type": "function"
    },
    {
      "inputs": [
        {
          "internalType": "uint256",
          "name": "_amount",
          "type": "uint256"
        },
        {
          "internalType": "address",
          "name": "refAddress",
          "type": "address"
        }
      ],
      "name": "betOnMusk",
      "outputs": [],
      "stateMutability": "nonpayable",
      "type": "function"
    },
    {
      "inputs": [],
      "name": "dez",
      "outputs": [
        {
          "internalType": "contract IERC20",
          "name": "",
          "type": "address"
        }
      ],
      "stateMutability": "view",
      "type": "function"
    },
    {
      "inputs": [],
      "name": "finalizeTs",
      "outputs": [
        {
          "internalType": "uint256",
          "name": "",
          "type": "uint256"
        }
      ],
      "stateMutability": "view",
      "type": "function"
    },
    {
      "inputs": [
        {
          "internalType": "address",
          "name": "sender",
          "type": "address"
        }
      ],
      "name": "getInformation",
      "outputs": [
        {
          "internalType": "uint256",
          "name": "",
          "type": "uint256"
        },
        {
          "internalType": "uint256",
          "name": "",
          "type": "uint256"
        },
        {
          "internalType": "uint256",
          "name": "",
          "type": "uint256"
        },
        {
          "internalType": "uint256",
          "name": "",
          "type": "uint256"
        },
        {
          "internalType": "uint256",
          "name": "",
          "type": "uint256"
        },
        {
          "internalType": "uint256",
          "name": "",
          "type": "uint256"
        },
        {
          "internalType": "uint256",
          "name": "",
          "type": "uint256"
        },
        {
          "internalType": "uint256",
          "name": "",
          "type": "uint256"
        }
      ],
      "stateMutability": "view",
      "type": "function"
    },
    {
      "inputs": [
        {
          "internalType": "address",
          "name": "sender",
          "type": "address"
        }
      ],
      "name": "getPrize",
      "outputs": [
        {
          "internalType": "uint256",
          "name": "",
          "type": "uint256"
        }
      ],
      "stateMutability": "view",
      "type": "function"
    },
    {
      "inputs": [],
      "name": "initialTs",
      "outputs": [
        {
          "internalType": "uint256",
          "name": "",
          "type": "uint256"
        }
      ],
      "stateMutability": "view",
      "type": "function"
    },
    {
      "inputs": [],
      "name": "owner",
      "outputs": [
        {
          "internalType": "address",
          "name": "",
          "type": "address"
        }
      ],
      "stateMutability": "view",
      "type": "function"
    },
    {
      "inputs": [],
      "name": "refs",
      "outputs": [
        {
          "internalType": "contract DezRefs",
          "name": "",
          "type": "address"
        }
      ],
      "stateMutability": "view",
      "type": "function"
    },
    {
      "inputs": [
        {
          "internalType": "uint256",
          "name": "_finalizeTs",
          "type": "uint256"
        }
      ],
      "name": "setFinalizeTs",
      "outputs": [],
      "stateMutability": "nonpayable",
      "type": "function"
    },
    {
      "inputs": [
        {
          "internalType": "uint256",
          "name": "_systemBurnRate",
          "type": "uint256"
        }
      ],
      "name": "setSystemBurnRate",
      "outputs": [],
      "stateMutability": "nonpayable",
      "type": "function"
    },
    {
      "inputs": [
        {
          "internalType": "uint256",
          "name": "_systemFeeRate",
          "type": "uint256"
        }
      ],
      "name": "setSystemFeeRate",
      "outputs": [],
      "stateMutability": "nonpayable",
      "type": "function"
    },
    {
      "inputs": [
        {
          "internalType": "uint256",
          "name": "_winner",
          "type": "uint256"
        }
      ],
      "name": "setWinner",
      "outputs": [],
      "stateMutability": "nonpayable",
      "type": "function"
    },
    {
      "inputs": [],
      "name": "systemBurnRate",
      "outputs": [
        {
          "internalType": "uint256",
          "name": "",
          "type": "uint256"
        }
      ],
      "stateMutability": "view",
      "type": "function"
    },
    {
      "inputs": [],
      "name": "systemFeeRate",
      "outputs": [
        {
          "internalType": "uint256",
          "name": "",
          "type": "uint256"
        }
      ],
      "stateMutability": "view",
      "type": "function"
    },
    {
      "inputs": [
        {
          "internalType": "address",
          "name": "",
          "type": "address"
        }
      ],
      "name": "teamMark",
      "outputs": [
        {
          "internalType": "uint256",
          "name": "",
          "type": "uint256"
        }
      ],
      "stateMutability": "view",
      "type": "function"
    },
    {
      "inputs": [
        {
          "internalType": "address",
          "name": "",
          "type": "address"
        }
      ],
      "name": "teamMusk",
      "outputs": [
        {
          "internalType": "uint256",
          "name": "",
          "type": "uint256"
        }
      ],
      "stateMutability": "view",
      "type": "function"
    },
    {
      "inputs": [],
      "name": "totalMark",
      "outputs": [
        {
          "internalType": "uint256",
          "name": "",
          "type": "uint256"
        }
      ],
      "stateMutability": "view",
      "type": "function"
    },
    {
      "inputs": [],
      "name": "totalMusk",
      "outputs": [
        {
          "internalType": "uint256",
          "name": "",
          "type": "uint256"
        }
      ],
      "stateMutability": "view",
      "type": "function"
    },
    {
      "inputs": [],
      "name": "vaultAddress",
      "outputs": [
        {
          "internalType": "address",
          "name": "",
          "type": "address"
        }
      ],
      "stateMutability": "view",
      "type": "function"
    },
    {
      "inputs": [],
      "name": "winner",
      "outputs": [
        {
          "internalType": "uint256",
          "name": "",
          "type": "uint256"
        }
      ],
      "stateMutability": "view",
      "type": "function"
    },
    {
      "inputs": [],
      "name": "withdraw",
      "outputs": [],
      "stateMutability": "nonpayable",
      "type": "function"
    }
  ],
  "bytecode": "0x60c060405260c860075560c86008553480156200001b57600080fd5b50604051620033eb380380620033eb8339818101604052810190620000419190620001e7565b336000806101000a81548173ffffffffffffffffffffffffffffffffffffffff021916908373ffffffffffffffffffffffffffffffffffffffff16021790555042600281905550806004819055508373ffffffffffffffffffffffffffffffffffffffff1660808173ffffffffffffffffffffffffffffffffffffffff168152505082600160006101000a81548173ffffffffffffffffffffffffffffffffffffffff021916908373ffffffffffffffffffffffffffffffffffffffff1602179055508173ffffffffffffffffffffffffffffffffffffffff1660a08173ffffffffffffffffffffffffffffffffffffffff16815250505050505062000259565b600080fd5b600073ffffffffffffffffffffffffffffffffffffffff82169050919050565b6000620001748262000147565b9050919050565b620001868162000167565b81146200019257600080fd5b50565b600081519050620001a6816200017b565b92915050565b6000819050919050565b620001c181620001ac565b8114620001cd57600080fd5b50565b600081519050620001e181620001b6565b92915050565b6000806000806080858703121562000204576200020362000142565b5b6000620002148782880162000195565b9450506020620002278782880162000195565b93505060406200023a8782880162000195565b92505060606200024d87828801620001d0565b91505092959194509250565b60805160a0516130fc620002ef600039600081816106e20152610f8001526000818161053a0152818161061b015281816106a60152818161091101528181610dd501528181610e8c01528181611302015281816114260152818161154a0152818161160f0152818161186a01528181611b2401528181611de701528181611f0b0152818161202f01526120f401526130fc6000f3fe608060405234801561001057600080fd5b50600436106101425760003560e01c8063ad8ddc0d116100b8578063dfbf53ae1161007c578063dfbf53ae14610346578063e3cf916314610364578063e80f2fb214610382578063edb14489146103a0578063f59a2d12146103d0578063fddd4b74146103ee57610142565b8063ad8ddc0d1461029b578063b33d600a146102b9578063bc25a391146102f0578063c22025861461030e578063c86606e31461032a57610142565b80636038bb5a1161010a5780636038bb5a146101d7578063741c6b49146101f55780638a3b3cc7146102115780638da5cb5b14610241578063a02f98581461025f578063a99313501461027d57610142565b80630df71602146101475780632d5cd1d6146101635780633ccfd60b14610193578063430bf08a1461019d5780635c97b6e1146101bb575b600080fd5b610161600480360381019061015c9190612436565b61040a565b005b61017d600480360381019061017891906124c1565b6107a0565b60405161018a91906124fd565b60405180910390f35b61019b6109d3565b005b6101a5610f7e565b6040516101b29190612527565b60405180910390f35b6101d560048036038101906101d09190612436565b610fa2565b005b6101df61107f565b6040516101ec91906124fd565b60405180910390f35b61020f600480360381019061020a9190612542565b611085565b005b61022b600480360381019061022691906124c1565b611707565b60405161023891906124fd565b60405180910390f35b61024961171f565b6040516102569190612527565b60405180910390f35b610267611743565b60405161027491906125e1565b60405180910390f35b610285611769565b60405161029291906124fd565b60405180910390f35b6102a361176f565b6040516102b091906124fd565b60405180910390f35b6102d360048036038101906102ce91906124c1565b611775565b6040516102e79897969594939291906125fc565b60405180910390f35b6102f861195f565b60405161030591906124fd565b60405180910390f35b61032860048036038101906103239190612436565b611965565b005b610344600480360381019061033f9190612436565b611a42565b005b61034e611b1c565b60405161035b91906124fd565b60405180910390f35b61036c611b22565b604051610379919061269b565b60405180910390f35b61038a611b46565b60405161039791906124fd565b60405180910390f35b6103ba60048036038101906103b591906124c1565b611b4c565b6040516103c791906124fd565b60405180910390f35b6103d8611b64565b6040516103e591906124fd565b60405180910390f35b61040860048036038101906104039190612542565b611b6a565b005b60008054906101000a900473ffffffffffffffffffffffffffffffffffffffff1673ffffffffffffffffffffffffffffffffffffffff163373ffffffffffffffffffffffffffffffffffffffff1614610498576040517f08c379a000000000000000000000000000000000000000000000000000000000815260040161048f90612713565b60405180910390fd5b6000600354146104dd576040517f08c379a00000000000000000000000000000000000000000000000000000000081526004016104d49061277f565b60405180910390fd5b60018114806104ec5750600281145b806104f75750600381145b610536576040517f08c379a000000000000000000000000000000000000000000000000000000000815260040161052d906127eb565b60405180910390fd5b60007f000000000000000000000000000000000000000000000000000000000000000073ffffffffffffffffffffffffffffffffffffffff166370a08231306040518263ffffffff1660e01b81526004016105919190612527565b602060405180830381865afa1580156105ae573d6000803e3d6000fd5b505050506040513d601f19601f820116820180604052508101906105d29190612820565b90506000612710600754836105e7919061287c565b6105f191906128ed565b9050600061271060085484610606919061287c565b61061091906128ed565b9050836003819055507f000000000000000000000000000000000000000000000000000000000000000073ffffffffffffffffffffffffffffffffffffffff166342966c68826040518263ffffffff1660e01b815260040161067291906124fd565b600060405180830381600087803b15801561068c57600080fd5b505af11580156106a0573d6000803e3d6000fd5b505050507f000000000000000000000000000000000000000000000000000000000000000073ffffffffffffffffffffffffffffffffffffffff1663a9059cbb7f0000000000000000000000000000000000000000000000000000000000000000846040518363ffffffff1660e01b815260040161071f92919061291e565b6020604051808303816000875af115801561073e573d6000803e3d6000fd5b505050506040513d601f19601f82011682018060405250810190610762919061297f565b507f75b52d1f79ea111b79e45f6a9bbe98fce526b0481fca98bc0346466fb6a5eb838460405161079291906124fd565b60405180910390a150505050565b600080600354036107b457600090506109ce565b60008060016003540361080d57600960008573ffffffffffffffffffffffffffffffffffffffff1673ffffffffffffffffffffffffffffffffffffffff168152602001908152602001600020549150600554905061090d565b60026003540361086357600a60008573ffffffffffffffffffffffffffffffffffffffff1673ffffffffffffffffffffffffffffffffffffffff168152602001908152602001600020549150600654905061090c565b600380540361090b57600a60008573ffffffffffffffffffffffffffffffffffffffff1673ffffffffffffffffffffffffffffffffffffffff16815260200190815260200160002054600960008673ffffffffffffffffffffffffffffffffffffffff1673ffffffffffffffffffffffffffffffffffffffff168152602001908152602001600020546108f691906129ac565b915060065460055461090891906129ac565b90505b5b5b60007f000000000000000000000000000000000000000000000000000000000000000073ffffffffffffffffffffffffffffffffffffffff166370a08231306040518263ffffffff1660e01b81526004016109689190612527565b602060405180830381865afa158015610985573d6000803e3d6000fd5b505050506040513d601f19601f820116820180604052508101906109a99190612820565b905060008282856109ba919061287c565b6109c491906128ed565b9050809450505050505b919050565b6000339050600060035403610a1d576040517f08c379a0000000000000000000000000000000000000000000000000000000008152600401610a1490612a2c565b60405180910390fd5b6000600960008373ffffffffffffffffffffffffffffffffffffffff1673ffffffffffffffffffffffffffffffffffffffff16815260200190815260200160002054118015610a6e57506001600354145b80610ac657506000600a60008373ffffffffffffffffffffffffffffffffffffffff1673ffffffffffffffffffffffffffffffffffffffff16815260200190815260200160002054118015610ac557506002600354145b5b80610ad2575060038054145b610b11576040517f08c379a0000000000000000000000000000000000000000000000000000000008152600401610b0890612a98565b60405180910390fd5b600080600160035403610bb357600960008473ffffffffffffffffffffffffffffffffffffffff1673ffffffffffffffffffffffffffffffffffffffff1681526020019081526020016000205491506005549050610bae83600960008673ffffffffffffffffffffffffffffffffffffffff1673ffffffffffffffffffffffffffffffffffffffff168152602001908152602001600020546121ec565b610d8e565b600260035403610c5257600a60008473ffffffffffffffffffffffffffffffffffffffff1673ffffffffffffffffffffffffffffffffffffffff1681526020019081526020016000205491506006549050610c4d83600a60008673ffffffffffffffffffffffffffffffffffffffff1673ffffffffffffffffffffffffffffffffffffffff1681526020019081526020016000205461225f565b610d8d565b6003805403610d8c57600a60008473ffffffffffffffffffffffffffffffffffffffff1673ffffffffffffffffffffffffffffffffffffffff16815260200190815260200160002054600960008573ffffffffffffffffffffffffffffffffffffffff1673ffffffffffffffffffffffffffffffffffffffff16815260200190815260200160002054610ce591906129ac565b9150600654600554610cf791906129ac565b9050610d4283600960008673ffffffffffffffffffffffffffffffffffffffff1673ffffffffffffffffffffffffffffffffffffffff168152602001908152602001600020546121ec565b610d8b83600a60008673ffffffffffffffffffffffffffffffffffffffff1673ffffffffffffffffffffffffffffffffffffffff1681526020019081526020016000205461225f565b5b5b5b60008111610dd1576040517f08c379a0000000000000000000000000000000000000000000000000000000008152600401610dc890612b04565b60405180910390fd5b60007f000000000000000000000000000000000000000000000000000000000000000073ffffffffffffffffffffffffffffffffffffffff166370a08231306040518263ffffffff1660e01b8152600401610e2c9190612527565b602060405180830381865afa158015610e49573d6000803e3d6000fd5b505050506040513d601f19601f82011682018060405250810190610e6d9190612820565b90506000828285610e7e919061287c565b610e8891906128ed565b90507f000000000000000000000000000000000000000000000000000000000000000073ffffffffffffffffffffffffffffffffffffffff1663a9059cbb86836040518363ffffffff1660e01b8152600401610ee592919061291e565b6020604051808303816000875af1158015610f04573d6000803e3d6000fd5b505050506040513d601f19601f82011682018060405250810190610f28919061297f565b508473ffffffffffffffffffffffffffffffffffffffff167f884edad9ce6fa2440d8a54cc123490eb96d2768479d49ff9c7366125a942436482604051610f6f91906124fd565b60405180910390a25050505050565b7f000000000000000000000000000000000000000000000000000000000000000081565b60008054906101000a900473ffffffffffffffffffffffffffffffffffffffff1673ffffffffffffffffffffffffffffffffffffffff163373ffffffffffffffffffffffffffffffffffffffff1614611030576040517f08c379a000000000000000000000000000000000000000000000000000000000815260040161102790612713565b60405180910390fd5b612710811115611075576040517f08c379a000000000000000000000000000000000000000000000000000000000815260040161106c90612b70565b60405180910390fd5b8060078190555050565b60065481565b60045442106110c9576040517f08c379a00000000000000000000000000000000000000000000000000000000081526004016110c090612bdc565b60405180910390fd5b60003390506000839050600160009054906101000a900473ffffffffffffffffffffffffffffffffffffffff1673ffffffffffffffffffffffffffffffffffffffff16632a267e1933856040518363ffffffff1660e01b8152600401611130929190612bfc565b600060405180830381600087803b15801561114a57600080fd5b505af115801561115e573d6000803e3d6000fd5b505050506000600160009054906101000a900473ffffffffffffffffffffffffffffffffffffffff1673ffffffffffffffffffffffffffffffffffffffff16634fd79488846040518263ffffffff1660e01b81526004016111bf9190612527565b606060405180830381865afa1580156111dc573d6000803e3d6000fd5b505050506040513d601f19601f820116820180604052508101906112009190612d81565b90506000600160009054906101000a900473ffffffffffffffffffffffffffffffffffffffff1673ffffffffffffffffffffffffffffffffffffffff16639a5a127c6040518163ffffffff1660e01b8152600401606060405180830381865afa158015611271573d6000803e3d6000fd5b505050506040513d601f19601f820116820180604052508101906112959190612e5f565b90506112b8826000600381106112ae576112ad612e8c565b5b60200201516122d2565b156113bb576000612710826000600381106112d6576112d5612e8c565b5b6020020151886112e6919061287c565b6112f091906128ed565b905080846112fe9190612ebb565b93507f000000000000000000000000000000000000000000000000000000000000000073ffffffffffffffffffffffffffffffffffffffff166323b872dd868560006003811061135157611350612e8c565b5b6020020151846040518463ffffffff1660e01b815260040161137593929190612eef565b6020604051808303816000875af1158015611394573d6000803e3d6000fd5b505050506040513d601f19601f820116820180604052508101906113b8919061297f565b50505b6113dc826001600381106113d2576113d1612e8c565b5b60200201516122d2565b156114df576000612710826001600381106113fa576113f9612e8c565b5b60200201518861140a919061287c565b61141491906128ed565b905080846114229190612ebb565b93507f000000000000000000000000000000000000000000000000000000000000000073ffffffffffffffffffffffffffffffffffffffff166323b872dd868560016003811061147557611474612e8c565b5b6020020151846040518463ffffffff1660e01b815260040161149993929190612eef565b6020604051808303816000875af11580156114b8573d6000803e3d6000fd5b505050506040513d601f19601f820116820180604052508101906114dc919061297f565b50505b611500826002600381106114f6576114f5612e8c565b5b60200201516122d2565b156116035760006127108260026003811061151e5761151d612e8c565b5b60200201518861152e919061287c565b61153891906128ed565b905080846115469190612ebb565b93507f000000000000000000000000000000000000000000000000000000000000000073ffffffffffffffffffffffffffffffffffffffff166323b872dd868560026003811061159957611598612e8c565b5b6020020151846040518463ffffffff1660e01b81526004016115bd93929190612eef565b6020604051808303816000875af11580156115dc573d6000803e3d6000fd5b505050506040513d601f19601f82011682018060405250810190611600919061297f565b50505b61160d848761230b565b7f000000000000000000000000000000000000000000000000000000000000000073ffffffffffffffffffffffffffffffffffffffff166323b872dd8530866040518463ffffffff1660e01b815260040161166a93929190612eef565b6020604051808303816000875af1158015611689573d6000803e3d6000fd5b505050506040513d601f19601f820116820180604052508101906116ad919061297f565b508373ffffffffffffffffffffffffffffffffffffffff167ff41b7910e085d0992d604fd470931728fd77cc8eb504d99e50e51a0a30fcfd1a6002856040516116f7929190612f61565b60405180910390a2505050505050565b600a6020528060005260406000206000915090505481565b60008054906101000a900473ffffffffffffffffffffffffffffffffffffffff1681565b600160009054906101000a900473ffffffffffffffffffffffffffffffffffffffff1681565b60085481565b60025481565b6000806000806000806000806000806000600960008d73ffffffffffffffffffffffffffffffffffffffff1673ffffffffffffffffffffffffffffffffffffffff1681526020019081526020016000205490506000600a60008e73ffffffffffffffffffffffffffffffffffffffff1673ffffffffffffffffffffffffffffffffffffffff168152602001908152602001600020549050600160035403611823578193506005549250611866565b60026003540361183a578093506006549250611865565b600380540361186457808261184f91906129ac565b935060065460055461186191906129ac565b92505b5b5b60007f000000000000000000000000000000000000000000000000000000000000000073ffffffffffffffffffffffffffffffffffffffff166370a08231306040518263ffffffff1660e01b81526004016118c19190612527565b602060405180830381865afa1580156118de573d6000803e3d6000fd5b505050506040513d601f19601f820116820180604052508101906119029190612820565b9050600080850361191457600061192c565b848287611921919061287c565b61192b91906128ed565b5b9050600454826005546006548787600354879d509d509d509d509d509d509d509d50505050505050919395975091939597565b60055481565b60008054906101000a900473ffffffffffffffffffffffffffffffffffffffff1673ffffffffffffffffffffffffffffffffffffffff163373ffffffffffffffffffffffffffffffffffffffff16146119f3576040517f08c379a00000000000000000000000000000000000000000000000000000000081526004016119ea90612713565b60405180910390fd5b612710811115611a38576040517f08c379a0000000000000000000000000000000000000000000000000000000008152600401611a2f90612fd6565b60405180910390fd5b8060088190555050565b60008054906101000a900473ffffffffffffffffffffffffffffffffffffffff1673ffffffffffffffffffffffffffffffffffffffff163373ffffffffffffffffffffffffffffffffffffffff1614611ad0576040517f08c379a0000000000000000000000000000000000000000000000000000000008152600401611ac790612713565b60405180910390fd5b804210611b12576040517f08c379a0000000000000000000000000000000000000000000000000000000008152600401611b0990613042565b60405180910390fd5b8060048190555050565b60035481565b7f000000000000000000000000000000000000000000000000000000000000000081565b60075481565b60096020528060005260406000206000915090505481565b60045481565b6004544210611bae576040517f08c379a0000000000000000000000000000000000000000000000000000000008152600401611ba590612bdc565b60405180910390fd5b60003390506000839050600160009054906101000a900473ffffffffffffffffffffffffffffffffffffffff1673ffffffffffffffffffffffffffffffffffffffff16632a267e1933856040518363ffffffff1660e01b8152600401611c15929190612bfc565b600060405180830381600087803b158015611c2f57600080fd5b505af1158015611c43573d6000803e3d6000fd5b505050506000600160009054906101000a900473ffffffffffffffffffffffffffffffffffffffff1673ffffffffffffffffffffffffffffffffffffffff16634fd79488846040518263ffffffff1660e01b8152600401611ca49190612527565b606060405180830381865afa158015611cc1573d6000803e3d6000fd5b505050506040513d601f19601f82011682018060405250810190611ce59190612d81565b90506000600160009054906101000a900473ffffffffffffffffffffffffffffffffffffffff1673ffffffffffffffffffffffffffffffffffffffff16639a5a127c6040518163ffffffff1660e01b8152600401606060405180830381865afa158015611d56573d6000803e3d6000fd5b505050506040513d601f19601f82011682018060405250810190611d7a9190612e5f565b9050611d9d82600060038110611d9357611d92612e8c565b5b60200201516122d2565b15611ea057600061271082600060038110611dbb57611dba612e8c565b5b602002015188611dcb919061287c565b611dd591906128ed565b90508084611de39190612ebb565b93507f000000000000000000000000000000000000000000000000000000000000000073ffffffffffffffffffffffffffffffffffffffff166323b872dd8685600060038110611e3657611e35612e8c565b5b6020020151846040518463ffffffff1660e01b8152600401611e5a93929190612eef565b6020604051808303816000875af1158015611e79573d6000803e3d6000fd5b505050506040513d601f19601f82011682018060405250810190611e9d919061297f565b50505b611ec182600160038110611eb757611eb6612e8c565b5b60200201516122d2565b15611fc457600061271082600160038110611edf57611ede612e8c565b5b602002015188611eef919061287c565b611ef991906128ed565b90508084611f079190612ebb565b93507f000000000000000000000000000000000000000000000000000000000000000073ffffffffffffffffffffffffffffffffffffffff166323b872dd8685600160038110611f5a57611f59612e8c565b5b6020020151846040518463ffffffff1660e01b8152600401611f7e93929190612eef565b6020604051808303816000875af1158015611f9d573d6000803e3d6000fd5b505050506040513d601f19601f82011682018060405250810190611fc1919061297f565b50505b611fe582600260038110611fdb57611fda612e8c565b5b60200201516122d2565b156120e85760006127108260026003811061200357612002612e8c565b5b602002015188612013919061287c565b61201d91906128ed565b9050808461202b9190612ebb565b93507f000000000000000000000000000000000000000000000000000000000000000073ffffffffffffffffffffffffffffffffffffffff166323b872dd868560026003811061207e5761207d612e8c565b5b6020020151846040518463ffffffff1660e01b81526004016120a293929190612eef565b6020604051808303816000875af11580156120c1573d6000803e3d6000fd5b505050506040513d601f19601f820116820180604052508101906120e5919061297f565b50505b6120f2848761237e565b7f000000000000000000000000000000000000000000000000000000000000000073ffffffffffffffffffffffffffffffffffffffff166323b872dd8530866040518463ffffffff1660e01b815260040161214f93929190612eef565b6020604051808303816000875af115801561216e573d6000803e3d6000fd5b505050506040513d601f19601f82011682018060405250810190612192919061297f565b508373ffffffffffffffffffffffffffffffffffffffff167ff41b7910e085d0992d604fd470931728fd77cc8eb504d99e50e51a0a30fcfd1a6001856040516121dc92919061309d565b60405180910390a2505050505050565b80600560008282546121fe9190612ebb565b9250508190555080600960008473ffffffffffffffffffffffffffffffffffffffff1673ffffffffffffffffffffffffffffffffffffffff16815260200190815260200160002060008282546122549190612ebb565b925050819055505050565b80600660008282546122719190612ebb565b9250508190555080600a60008473ffffffffffffffffffffffffffffffffffffffff1673ffffffffffffffffffffffffffffffffffffffff16815260200190815260200160002060008282546122c79190612ebb565b925050819055505050565b60008073ffffffffffffffffffffffffffffffffffffffff168273ffffffffffffffffffffffffffffffffffffffff1614159050919050565b806006600082825461231d91906129ac565b9250508190555080600a60008473ffffffffffffffffffffffffffffffffffffffff1673ffffffffffffffffffffffffffffffffffffffff168152602001908152602001600020600082825461237391906129ac565b925050819055505050565b806005600082825461239091906129ac565b9250508190555080600960008473ffffffffffffffffffffffffffffffffffffffff1673ffffffffffffffffffffffffffffffffffffffff16815260200190815260200160002060008282546123e691906129ac565b925050819055505050565b6000604051905090565b600080fd5b6000819050919050565b61241381612400565b811461241e57600080fd5b50565b6000813590506124308161240a565b92915050565b60006020828403121561244c5761244b6123fb565b5b600061245a84828501612421565b91505092915050565b600073ffffffffffffffffffffffffffffffffffffffff82169050919050565b600061248e82612463565b9050919050565b61249e81612483565b81146124a957600080fd5b50565b6000813590506124bb81612495565b92915050565b6000602082840312156124d7576124d66123fb565b5b60006124e5848285016124ac565b91505092915050565b6124f781612400565b82525050565b600060208201905061251260008301846124ee565b92915050565b61252181612483565b82525050565b600060208201905061253c6000830184612518565b92915050565b60008060408385031215612559576125586123fb565b5b600061256785828601612421565b9250506020612578858286016124ac565b9150509250929050565b6000819050919050565b60006125a76125a261259d84612463565b612582565b612463565b9050919050565b60006125b98261258c565b9050919050565b60006125cb826125ae565b9050919050565b6125db816125c0565b82525050565b60006020820190506125f660008301846125d2565b92915050565b600061010082019050612612600083018b6124ee565b61261f602083018a6124ee565b61262c60408301896124ee565b61263960608301886124ee565b61264660808301876124ee565b61265360a08301866124ee565b61266060c08301856124ee565b61266d60e08301846124ee565b9998505050505050505050565b6000612685826125ae565b9050919050565b6126958161267a565b82525050565b60006020820190506126b0600083018461268c565b92915050565b600082825260208201905092915050565b7f63616c6c6572206973206e6f7420746865206f776e6572000000000000000000600082015250565b60006126fd6017836126b6565b9150612708826126c7565b602082019050919050565b6000602082019050818103600083015261272c816126f0565b9050919050565b7f77696e6e657220616c7265616479206465636964656400000000000000000000600082015250565b60006127696016836126b6565b915061277482612733565b602082019050919050565b600060208201905081810360008301526127988161275c565b9050919050565b7f696e76616c69642077696e6e6572000000000000000000000000000000000000600082015250565b60006127d5600e836126b6565b91506127e08261279f565b602082019050919050565b60006020820190508181036000830152612804816127c8565b9050919050565b60008151905061281a8161240a565b92915050565b600060208284031215612836576128356123fb565b5b60006128448482850161280b565b91505092915050565b7f4e487b7100000000000000000000000000000000000000000000000000000000600052601160045260246000fd5b600061288782612400565b915061289283612400565b92508282026128a081612400565b915082820484148315176128b7576128b661284d565b5b5092915050565b7f4e487b7100000000000000000000000000000000000000000000000000000000600052601260045260246000fd5b60006128f882612400565b915061290383612400565b925082612913576129126128be565b5b828204905092915050565b60006040820190506129336000830185612518565b61294060208301846124ee565b9392505050565b60008115159050919050565b61295c81612947565b811461296757600080fd5b50565b60008151905061297981612953565b92915050565b600060208284031215612995576129946123fb565b5b60006129a38482850161296a565b91505092915050565b60006129b782612400565b91506129c283612400565b92508282019050808211156129da576129d961284d565b5b92915050565b7f77696e6e6572206e6f7420646563696465640000000000000000000000000000600082015250565b6000612a166012836126b6565b9150612a21826129e0565b602082019050919050565b60006020820190508181036000830152612a4581612a09565b9050919050565b7f6e6f7420612077696e6e65720000000000000000000000000000000000000000600082015250565b6000612a82600c836126b6565b9150612a8d82612a4c565b602082019050919050565b60006020820190508181036000830152612ab181612a75565b9050919050565b7f6e6f207368617265730000000000000000000000000000000000000000000000600082015250565b6000612aee6009836126b6565b9150612af982612ab8565b602082019050919050565b60006020820190508181036000830152612b1d81612ae1565b9050919050565b7f696e76616c69642073797374656d206665652072617465000000000000000000600082015250565b6000612b5a6017836126b6565b9150612b6582612b24565b602082019050919050565b60006020820190508181036000830152612b8981612b4d565b9050919050565b7f62657474696e672068617320656e646564000000000000000000000000000000600082015250565b6000612bc66011836126b6565b9150612bd182612b90565b602082019050919050565b60006020820190508181036000830152612bf581612bb9565b9050919050565b6000604082019050612c116000830185612518565b612c1e6020830184612518565b9392505050565b600080fd5b6000601f19601f8301169050919050565b7f4e487b7100000000000000000000000000000000000000000000000000000000600052604160045260246000fd5b612c7382612c2a565b810181811067ffffffffffffffff82111715612c9257612c91612c3b565b5b80604052505050565b6000612ca56123f1565b9050612cb18282612c6a565b919050565b600067ffffffffffffffff821115612cd157612cd0612c3b565b5b602082029050919050565b600080fd5b600081519050612cf081612495565b92915050565b6000612d09612d0484612cb6565b612c9b565b90508060208402830185811115612d2357612d22612cdc565b5b835b81811015612d4c5780612d388882612ce1565b845260208401935050602081019050612d25565b5050509392505050565b600082601f830112612d6b57612d6a612c25565b5b6003612d78848285612cf6565b91505092915050565b600060608284031215612d9757612d966123fb565b5b6000612da584828501612d56565b91505092915050565b600067ffffffffffffffff821115612dc957612dc8612c3b565b5b602082029050919050565b6000612de7612de284612dae565b612c9b565b90508060208402830185811115612e0157612e00612cdc565b5b835b81811015612e2a5780612e16888261280b565b845260208401935050602081019050612e03565b5050509392505050565b600082601f830112612e4957612e48612c25565b5b6003612e56848285612dd4565b91505092915050565b600060608284031215612e7557612e746123fb565b5b6000612e8384828501612e34565b91505092915050565b7f4e487b7100000000000000000000000000000000000000000000000000000000600052603260045260246000fd5b6000612ec682612400565b9150612ed183612400565b9250828203905081811115612ee957612ee861284d565b5b92915050565b6000606082019050612f046000830186612518565b612f116020830185612518565b612f1e60408301846124ee565b949350505050565b6000819050919050565b6000612f4b612f46612f4184612f26565b612582565b612400565b9050919050565b612f5b81612f30565b82525050565b6000604082019050612f766000830185612f52565b612f8360208301846124ee565b9392505050565b7f696e76616c69642073797374656d206275726e20726174650000000000000000600082015250565b6000612fc06018836126b6565b9150612fcb82612f8a565b602082019050919050565b60006020820190508181036000830152612fef81612fb3565b9050919050565b7f696e76616c69642066696e616c697a6520747300000000000000000000000000600082015250565b600061302c6013836126b6565b915061303782612ff6565b602082019050919050565b6000602082019050818103600083015261305b8161301f565b9050919050565b6000819050919050565b600061308761308261307d84613062565b612582565b612400565b9050919050565b6130978161306c565b82525050565b60006040820190506130b2600083018561308e565b6130bf60208301846124ee565b939250505056fea26469706673582212205ed4576f7161e025b1c27b3e60b0c10a2f31bb55654de23770a466e5af3fcb4164736f6c63430008120033",
  "linkReferences": {},
  "deployedLinkReferences": {}
}