{
  "_format": "hh-sol-artifact-1",
  "contractName": "DezRefs",
  "sourceName": "contracts/DezRefs.sol",
  "abi": [
    {
      "inputs": [
        {
          "internalType": "uint256",
          "name": "_refRateLayer1",
          "type": "uint256"
        },
        {
          "internalType": "uint256",
          "name": "_refRateLayer2",
          "type": "uint256"
        },
        {
          "internalType": "uint256",
          "name": "_refRateLayer3",
          "type": "uint256"
        }
      ],
      "stateMutability": "nonpayable",
      "type": "constructor"
    },
    {
      "anonymous": false,
      "inputs": [
        {
          "indexed": true,
          "internalType": "address",
          "name": "user",
          "type": "address"
        },
        {
          "indexed": true,
          "internalType": "address",
          "name": "ref",
          "type": "address"
        }
      ],
      "name": "RefSet",
      "type": "event"
    },
    {
      "inputs": [],
      "name": "getRefFees",
      "outputs": [
        {
          "internalType": "uint256[3]",
          "name": "",
          "type": "uint256[3]"
        }
      ],
      "stateMutability": "view",
      "type": "function"
    },
    {
      "inputs": [
        {
          "internalType": "address",
          "name": "_user",
          "type": "address"
        }
      ],
      "name": "getRefLayers",
      "outputs": [
        {
          "internalType": "address[3]",
          "name": "",
          "type": "address[3]"
        }
      ],
      "stateMutability": "view",
      "type": "function"
    },
    {
      "inputs": [
        {
          "internalType": "address",
          "name": "",
          "type": "address"
        }
      ],
      "name": "isRef",
      "outputs": [
        {
          "internalType": "bool",
          "name": "",
          "type": "bool"
        }
      ],
      "stateMutability": "view",
      "type": "function"
    },
    {
      "inputs": [],
      "name": "owner",
      "outputs": [
        {
          "internalType": "address",
          "name": "",
          "type": "address"
        }
      ],
      "stateMutability": "view",
      "type": "function"
    },
    {
      "inputs": [
        {
          "internalType": "address",
          "name": "",
          "type": "address"
        }
      ],
      "name": "ref",
      "outputs": [
        {
          "internalType": "address",
          "name": "",
          "type": "address"
        }
      ],
      "stateMutability": "view",
      "type": "function"
    },
    {
      "inputs": [],
      "name": "refRateLayer1",
      "outputs": [
        {
          "internalType": "uint256",
          "name": "",
          "type": "uint256"
        }
      ],
      "stateMutability": "view",
      "type": "function"
    },
    {
      "inputs": [],
      "name": "refRateLayer2",
      "outputs": [
        {
          "internalType": "uint256",
          "name": "",
          "type": "uint256"
        }
      ],
      "stateMutability": "view",
      "type": "function"
    },
    {
      "inputs": [],
      "name": "refRateLayer3",
      "outputs": [
        {
          "internalType": "uint256",
          "name": "",
          "type": "uint256"
        }
      ],
      "stateMutability": "view",
      "type": "function"
    },
    {
      "inputs": [
        {
          "internalType": "address",
          "name": "_user",
          "type": "address"
        },
        {
          "internalType": "address",
          "name": "_ref",
          "type": "address"
        }
      ],
      "name": "setRef",
      "outputs": [],
      "stateMutability": "nonpayable",
      "type": "function"
    },
    {
      "inputs": [
        {
          "internalType": "uint256",
          "name": "_refRateLayer1",
          "type": "uint256"
        }
      ],
      "name": "setRefRateLayer1",
      "outputs": [],
      "stateMutability": "nonpayable",
      "type": "function"
    },
    {
      "inputs": [
        {
          "internalType": "uint256",
          "name": "_refRateLayer2",
          "type": "uint256"
        }
      ],
      "name": "setRefRateLayer2",
      "outputs": [],
      "stateMutability": "nonpayable",
      "type": "function"
    },
    {
      "inputs": [
        {
          "internalType": "uint256",
          "name": "_refRateLayer3",
          "type": "uint256"
        }
      ],
      "name": "setRefRateLayer3",
      "outputs": [],
      "stateMutability": "nonpayable",
      "type": "function"
    }
  ],
  "bytecode": "0x60806040526078600155603760025560196003553480156200002057600080fd5b506040516200100e3803806200100e8339818101604052810190620000469190620000e4565b336000806101000a81548173ffffffffffffffffffffffffffffffffffffffff021916908373ffffffffffffffffffffffffffffffffffffffff16021790555082600181905550816002819055508060038190555050505062000140565b600080fd5b6000819050919050565b620000be81620000a9565b8114620000ca57600080fd5b50565b600081519050620000de81620000b3565b92915050565b6000806000606084860312156200010057620000ff620000a4565b5b60006200011086828701620000cd565b93505060206200012386828701620000cd565b92505060406200013686828701620000cd565b9150509250925092565b610ebe80620001506000396000f3fe608060405234801561001057600080fd5b50600436106100b45760003560e01c806392b077921161007157806392b077921461018b5780639a5a127c146101a9578063aa1fbc99146101c7578063c1d48606146101e3578063c4b6ebdf14610201578063dc0e50ea14610231576100b4565b80632a267e19146100b957806344e21646146100d55780634fd79488146101055780635596e50114610135578063725c0cea146101515780638da5cb5b1461016d575b600080fd5b6100d360048036038101906100ce9190610af6565b61024f565b005b6100ef60048036038101906100ea9190610b36565b61053d565b6040516100fc9190610b7e565b60405180910390f35b61011f600480360381019061011a9190610b36565b61055d565b60405161012c9190610c44565b60405180910390f35b61014f600480360381019061014a9190610c95565b6107a7565b005b61016b60048036038101906101669190610c95565b61083f565b005b6101756108d7565b6040516101829190610cd1565b60405180910390f35b6101936108fb565b6040516101a09190610cfb565b60405180910390f35b6101b1610901565b6040516101be9190610dc1565b60405180910390f35b6101e160048036038101906101dc9190610c95565b610978565b005b6101eb610a10565b6040516101f89190610cfb565b60405180910390f35b61021b60048036038101906102169190610b36565b610a16565b6040516102289190610cd1565b60405180910390f35b610239610a49565b6040516102469190610cfb565b60405180910390f35b600560008373ffffffffffffffffffffffffffffffffffffffff1673ffffffffffffffffffffffffffffffffffffffff16815260200190815260200160002060009054906101000a900460ff161580156102d557508073ffffffffffffffffffffffffffffffffffffffff168273ffffffffffffffffffffffffffffffffffffffff1614155b801561036c5750600073ffffffffffffffffffffffffffffffffffffffff16600460008473ffffffffffffffffffffffffffffffffffffffff1673ffffffffffffffffffffffffffffffffffffffff16815260200190815260200160002060009054906101000a900473ffffffffffffffffffffffffffffffffffffffff1673ffffffffffffffffffffffffffffffffffffffff16145b801561040357508173ffffffffffffffffffffffffffffffffffffffff16600460008373ffffffffffffffffffffffffffffffffffffffff1673ffffffffffffffffffffffffffffffffffffffff16815260200190815260200160002060009054906101000a900473ffffffffffffffffffffffffffffffffffffffff1673ffffffffffffffffffffffffffffffffffffffff1614155b15610539576001600560008373ffffffffffffffffffffffffffffffffffffffff1673ffffffffffffffffffffffffffffffffffffffff16815260200190815260200160002060006101000a81548160ff02191690831515021790555080600460008473ffffffffffffffffffffffffffffffffffffffff1673ffffffffffffffffffffffffffffffffffffffff16815260200190815260200160002060006101000a81548173ffffffffffffffffffffffffffffffffffffffff021916908373ffffffffffffffffffffffffffffffffffffffff1602179055508073ffffffffffffffffffffffffffffffffffffffff168273ffffffffffffffffffffffffffffffffffffffff167fd12b76781cbd14c5d30dc2da64e398494f1ed7909c47159c836efc0b079ce68060405160405180910390a35b5050565b60056020528060005260406000206000915054906101000a900460ff1681565b610565610a4f565b61056d610a4f565b600460008473ffffffffffffffffffffffffffffffffffffffff1673ffffffffffffffffffffffffffffffffffffffff16815260200190815260200160002060009054906101000a900473ffffffffffffffffffffffffffffffffffffffff16816000600381106105e1576105e0610ddc565b5b602002019073ffffffffffffffffffffffffffffffffffffffff16908173ffffffffffffffffffffffffffffffffffffffff168152505060046000826000600381106106305761062f610ddc565b5b602002015173ffffffffffffffffffffffffffffffffffffffff1673ffffffffffffffffffffffffffffffffffffffff16815260200190815260200160002060009054906101000a900473ffffffffffffffffffffffffffffffffffffffff16816001600381106106a4576106a3610ddc565b5b602002019073ffffffffffffffffffffffffffffffffffffffff16908173ffffffffffffffffffffffffffffffffffffffff168152505060046000826001600381106106f3576106f2610ddc565b5b602002015173ffffffffffffffffffffffffffffffffffffffff1673ffffffffffffffffffffffffffffffffffffffff16815260200190815260200160002060009054906101000a900473ffffffffffffffffffffffffffffffffffffffff168160026003811061076757610766610ddc565b5b602002019073ffffffffffffffffffffffffffffffffffffffff16908173ffffffffffffffffffffffffffffffffffffffff168152505080915050919050565b60008054906101000a900473ffffffffffffffffffffffffffffffffffffffff1673ffffffffffffffffffffffffffffffffffffffff163373ffffffffffffffffffffffffffffffffffffffff1614610835576040517f08c379a000000000000000000000000000000000000000000000000000000000815260040161082c90610e68565b60405180910390fd5b8060018190555050565b60008054906101000a900473ffffffffffffffffffffffffffffffffffffffff1673ffffffffffffffffffffffffffffffffffffffff163373ffffffffffffffffffffffffffffffffffffffff16146108cd576040517f08c379a00000000000000000000000000000000000000000000000000000000081526004016108c490610e68565b60405180910390fd5b8060028190555050565b60008054906101000a900473ffffffffffffffffffffffffffffffffffffffff1681565b60035481565b610909610a71565b610911610a71565b6001548160006003811061092857610927610ddc565b5b6020020181815250506002548160016003811061094857610947610ddc565b5b6020020181815250506003548160026003811061096857610967610ddc565b5b6020020181815250508091505090565b60008054906101000a900473ffffffffffffffffffffffffffffffffffffffff1673ffffffffffffffffffffffffffffffffffffffff163373ffffffffffffffffffffffffffffffffffffffff1614610a06576040517f08c379a00000000000000000000000000000000000000000000000000000000081526004016109fd90610e68565b60405180910390fd5b8060038190555050565b60015481565b60046020528060005260406000206000915054906101000a900473ffffffffffffffffffffffffffffffffffffffff1681565b60025481565b6040518060600160405280600390602082028036833780820191505090505090565b6040518060600160405280600390602082028036833780820191505090505090565b600080fd5b600073ffffffffffffffffffffffffffffffffffffffff82169050919050565b6000610ac382610a98565b9050919050565b610ad381610ab8565b8114610ade57600080fd5b50565b600081359050610af081610aca565b92915050565b60008060408385031215610b0d57610b0c610a93565b5b6000610b1b85828601610ae1565b9250506020610b2c85828601610ae1565b9150509250929050565b600060208284031215610b4c57610b4b610a93565b5b6000610b5a84828501610ae1565b91505092915050565b60008115159050919050565b610b7881610b63565b82525050565b6000602082019050610b936000830184610b6f565b92915050565b600060039050919050565b600081905092915050565b6000819050919050565b610bc281610ab8565b82525050565b6000610bd48383610bb9565b60208301905092915050565b6000602082019050919050565b610bf681610b99565b610c008184610ba4565b9250610c0b82610baf565b8060005b83811015610c3c578151610c238782610bc8565b9650610c2e83610be0565b925050600181019050610c0f565b505050505050565b6000606082019050610c596000830184610bed565b92915050565b6000819050919050565b610c7281610c5f565b8114610c7d57600080fd5b50565b600081359050610c8f81610c69565b92915050565b600060208284031215610cab57610caa610a93565b5b6000610cb984828501610c80565b91505092915050565b610ccb81610ab8565b82525050565b6000602082019050610ce66000830184610cc2565b92915050565b610cf581610c5f565b82525050565b6000602082019050610d106000830184610cec565b92915050565b600060039050919050565b600081905092915050565b6000819050919050565b610d3f81610c5f565b82525050565b6000610d518383610d36565b60208301905092915050565b6000602082019050919050565b610d7381610d16565b610d7d8184610d21565b9250610d8882610d2c565b8060005b83811015610db9578151610da08782610d45565b9650610dab83610d5d565b925050600181019050610d8c565b505050505050565b6000606082019050610dd66000830184610d6a565b92915050565b7f4e487b7100000000000000000000000000000000000000000000000000000000600052603260045260246000fd5b600082825260208201905092915050565b7f6e6f74206f776e65720000000000000000000000000000000000000000000000600082015250565b6000610e52600983610e0b565b9150610e5d82610e1c565b602082019050919050565b60006020820190508181036000830152610e8181610e45565b905091905056fea2646970667358221220f5683a8c7839f2a0cd49372010c34f06b00221abfb29f5b041741328b3a61a7464736f6c63430008120033",
  "linkReferences": {},
  "deployedLinkReferences": {}
}