{
  "_format": "hh-sol-artifact-1",
  "contractName": "LfxVault",
  "sourceName": "contracts/LfxVault.sol",
  "abi": [
    {
      "inputs": [
        {
          "internalType": "address",
          "name": "_token",
          "type": "address"
        }
      ],
      "stateMutability": "nonpayable",
      "type": "constructor"
    },
    {
      "inputs": [
        {
          "internalType": "address",
          "name": "",
          "type": "address"
        }
      ],
      "name": "avgDepositTs",
      "outputs": [
        {
          "internalType": "uint256",
          "name": "",
          "type": "uint256"
        }
      ],
      "stateMutability": "view",
      "type": "function"
    },
    {
      "inputs": [
        {
          "internalType": "address",
          "name": "",
          "type": "address"
        }
      ],
      "name": "balanceOf",
      "outputs": [
        {
          "internalType": "uint256",
          "name": "",
          "type": "uint256"
        }
      ],
      "stateMutability": "view",
      "type": "function"
    },
    {
      "inputs": [
        {
          "internalType": "uint256",
          "name": "_amount",
          "type": "uint256"
        }
      ],
      "name": "deposit",
      "outputs": [],
      "stateMutability": "nonpayable",
      "type": "function"
    },
    {
      "inputs": [],
      "name": "getInformation",
      "outputs": [
        {
          "internalType": "uint256",
          "name": "",
          "type": "uint256"
        },
        {
          "internalType": "uint256",
          "name": "",
          "type": "uint256"
        },
        {
          "internalType": "uint256",
          "name": "",
          "type": "uint256"
        }
      ],
      "stateMutability": "view",
      "type": "function"
    },
    {
      "inputs": [
        {
          "internalType": "address",
          "name": "sender",
          "type": "address"
        }
      ],
      "name": "getTotalInterest",
      "outputs": [
        {
          "internalType": "uint256",
          "name": "",
          "type": "uint256"
        }
      ],
      "stateMutability": "view",
      "type": "function"
    },
    {
      "inputs": [],
      "name": "initTimestamp",
      "outputs": [
        {
          "internalType": "uint256",
          "name": "",
          "type": "uint256"
        }
      ],
      "stateMutability": "view",
      "type": "function"
    },
    {
      "inputs": [],
      "name": "token",
      "outputs": [
        {
          "internalType": "contract IERC20",
          "name": "",
          "type": "address"
        }
      ],
      "stateMutability": "view",
      "type": "function"
    },
    {
      "inputs": [],
      "name": "totalSupply",
      "outputs": [
        {
          "internalType": "uint256",
          "name": "",
          "type": "uint256"
        }
      ],
      "stateMutability": "view",
      "type": "function"
    },
    {
      "inputs": [
        {
          "internalType": "uint256",
          "name": "_amount",
          "type": "uint256"
        }
      ],
      "name": "withdraw",
      "outputs": [],
      "stateMutability": "nonpayable",
      "type": "function"
    },
    {
      "inputs": [],
      "name": "withdrawAllInterest",
      "outputs": [],
      "stateMutability": "nonpayable",
      "type": "function"
    }
  ],
  "bytecode": "0x60a0604052620151806000553480156200001857600080fd5b50604051620014573803806200145783398181016040528101906200003e9190620000ea565b8073ffffffffffffffffffffffffffffffffffffffff1660808173ffffffffffffffffffffffffffffffffffffffff168152505042600281905550506200011c565b600080fd5b600073ffffffffffffffffffffffffffffffffffffffff82169050919050565b6000620000b28262000085565b9050919050565b620000c481620000a5565b8114620000d057600080fd5b50565b600081519050620000e481620000b9565b92915050565b60006020828403121562000103576200010262000080565b5b60006200011384828501620000d3565b91505092915050565b6080516112f56200016260003960008181610293015281816104420152818161070a01528181610843015281816108eb01528181610a0b0152610b2601526112f56000f3fe608060405234801561001057600080fd5b506004361061009e5760003560e01c80637358c57a116100665780637358c57a1461016d578063b6b55f251461018b578063bb9287ad146101a7578063c0da1e68146101b1578063fc0c546a146101d15761009e565b80630b8d0156146100a357806318160ddd146100d35780632e1a7d4d146100f1578063511c56611461010d57806370a082311461013d575b600080fd5b6100bd60048036038101906100b89190610ddb565b6101ef565b6040516100ca9190610e21565b60405180910390f35b6100db610207565b6040516100e89190610e21565b60405180910390f35b61010b60048036038101906101069190610e68565b61020d565b005b61012760048036038101906101229190610ddb565b6104e7565b6040516101349190610e21565b60405180910390f35b61015760048036038101906101529190610ddb565b6104f9565b6040516101649190610e21565b60405180910390f35b610175610511565b6040516101829190610e21565b60405180910390f35b6101a560048036038101906101a09190610e68565b610517565b005b6101af6107ad565b005b6101b96108e3565b6040516101c893929190610e95565b60405180910390f35b6101d9610a09565b6040516101e69190610f2b565b60405180910390f35b60046020528060005260406000206000915090505481565b60015481565b600360003373ffffffffffffffffffffffffffffffffffffffff1673ffffffffffffffffffffffffffffffffffffffff1681526020019081526020016000205481111561028f576040517f08c379a000000000000000000000000000000000000000000000000000000000815260040161028690610fa3565b60405180910390fd5b60007f000000000000000000000000000000000000000000000000000000000000000073ffffffffffffffffffffffffffffffffffffffff166370a08231306040518263ffffffff1660e01b81526004016102ea9190610fd2565b602060405180830381865afa158015610307573d6000803e3d6000fd5b505050506040513d601f19601f8201168201806040525081019061032b9190611002565b9050600061034560025442610340919061105e565b610a2d565b90506000806001541415801561035c575060008214155b61036757600061039c565b81600154620f42406001548661037d919061105e565b6103879190611092565b6103919190611103565b61039b9190611103565b5b90506000610400600460003373ffffffffffffffffffffffffffffffffffffffff1673ffffffffffffffffffffffffffffffffffffffff16815260200190815260200160002054600254426103f1919061105e565b6103fb919061105e565b610a2d565b620f424083876104109190611092565b61041a9190611103565b6104249190611092565b9050600081866104349190611134565b90506104403387610a43565b7f000000000000000000000000000000000000000000000000000000000000000073ffffffffffffffffffffffffffffffffffffffff1663a9059cbb33836040518363ffffffff1660e01b815260040161049b929190611168565b6020604051808303816000875af11580156104ba573d6000803e3d6000fd5b505050506040513d601f19601f820116820180604052508101906104de91906111c9565b50505050505050565b60006104f282610ab6565b9050919050565b60036020528060005260406000206000915090505481565b60025481565b600060025442610527919061105e565b90506000600460003373ffffffffffffffffffffffffffffffffffffffff1673ffffffffffffffffffffffffffffffffffffffff16815260200190815260200160002054036105b95780600460003373ffffffffffffffffffffffffffffffffffffffff1673ffffffffffffffffffffffffffffffffffffffff168152602001908152602001600020819055506106fe565b600082600360003373ffffffffffffffffffffffffffffffffffffffff1673ffffffffffffffffffffffffffffffffffffffff168152602001908152602001600020546106069190611134565b905060008183856106179190611092565b600460003373ffffffffffffffffffffffffffffffffffffffff1673ffffffffffffffffffffffffffffffffffffffff16815260200190815260200160002054600360003373ffffffffffffffffffffffffffffffffffffffff1673ffffffffffffffffffffffffffffffffffffffff168152602001908152602001600020546106a19190611092565b6106ab9190611134565b6106b59190611103565b905080600460003373ffffffffffffffffffffffffffffffffffffffff1673ffffffffffffffffffffffffffffffffffffffff1681526020019081526020016000208190555050505b6107083383610d05565b7f000000000000000000000000000000000000000000000000000000000000000073ffffffffffffffffffffffffffffffffffffffff166323b872dd3330856040518463ffffffff1660e01b8152600401610765939291906111f6565b6020604051808303816000875af1158015610784573d6000803e3d6000fd5b505050506040513d601f19601f820116820180604052508101906107a891906111c9565b505050565b60006107b833610ab6565b9050600081116107fd576040517f08c379a00000000000000000000000000000000000000000000000000000000081526004016107f49061129f565b60405180910390fd5b42600460003373ffffffffffffffffffffffffffffffffffffffff1673ffffffffffffffffffffffffffffffffffffffff168152602001908152602001600020819055507f000000000000000000000000000000000000000000000000000000000000000073ffffffffffffffffffffffffffffffffffffffff1663a9059cbb33836040518363ffffffff1660e01b815260040161089c929190611168565b6020604051808303816000875af11580156108bb573d6000803e3d6000fd5b505050506040513d601f19601f820116820180604052508101906108df91906111c9565b5050565b6000806000807f000000000000000000000000000000000000000000000000000000000000000073ffffffffffffffffffffffffffffffffffffffff166370a08231306040518263ffffffff1660e01b81526004016109429190610fd2565b602060405180830381865afa15801561095f573d6000803e3d6000fd5b505050506040513d601f19601f820116820180604052508101906109839190611002565b9050600061099d60025442610998919061105e565b610a2d565b9050600080600154141580156109b4575060008214155b6109bf5760006109f4565b81600154620f4240600154866109d5919061105e565b6109df9190611092565b6109e99190611103565b6109f39190611103565b5b90506001548382955095509550505050909192565b7f000000000000000000000000000000000000000000000000000000000000000081565b6000805482610a3c9190611103565b9050919050565b8060016000828254610a55919061105e565b9250508190555080600360008473ffffffffffffffffffffffffffffffffffffffff1673ffffffffffffffffffffffffffffffffffffffff1681526020019081526020016000206000828254610aab919061105e565b925050819055505050565b6000600460008373ffffffffffffffffffffffffffffffffffffffff1673ffffffffffffffffffffffffffffffffffffffff16815260200190815260200160002054600254600054610b089190611134565b610b129190611134565b421015610b225760009050610d00565b60007f000000000000000000000000000000000000000000000000000000000000000073ffffffffffffffffffffffffffffffffffffffff166370a08231306040518263ffffffff1660e01b8152600401610b7d9190610fd2565b602060405180830381865afa158015610b9a573d6000803e3d6000fd5b505050506040513d601f19601f82011682018060405250810190610bbe9190611002565b90506000610bd860025442610bd3919061105e565b610a2d565b905060008060015414158015610bef575060008214155b610bfa576000610c2f565b81600154620f424060015486610c10919061105e565b610c1a9190611092565b610c249190611103565b610c2e9190611103565b5b90506000610c93600460008873ffffffffffffffffffffffffffffffffffffffff1673ffffffffffffffffffffffffffffffffffffffff1681526020019081526020016000205460025442610c84919061105e565b610c8e919061105e565b610a2d565b620f424083600360008a73ffffffffffffffffffffffffffffffffffffffff1673ffffffffffffffffffffffffffffffffffffffff16815260200190815260200160002054610ce29190611092565b610cec9190611103565b610cf69190611092565b9050809450505050505b919050565b8060016000828254610d179190611134565b9250508190555080600360008473ffffffffffffffffffffffffffffffffffffffff1673ffffffffffffffffffffffffffffffffffffffff1681526020019081526020016000206000828254610d6d9190611134565b925050819055505050565b600080fd5b600073ffffffffffffffffffffffffffffffffffffffff82169050919050565b6000610da882610d7d565b9050919050565b610db881610d9d565b8114610dc357600080fd5b50565b600081359050610dd581610daf565b92915050565b600060208284031215610df157610df0610d78565b5b6000610dff84828501610dc6565b91505092915050565b6000819050919050565b610e1b81610e08565b82525050565b6000602082019050610e366000830184610e12565b92915050565b610e4581610e08565b8114610e5057600080fd5b50565b600081359050610e6281610e3c565b92915050565b600060208284031215610e7e57610e7d610d78565b5b6000610e8c84828501610e53565b91505092915050565b6000606082019050610eaa6000830186610e12565b610eb76020830185610e12565b610ec46040830184610e12565b949350505050565b6000819050919050565b6000610ef1610eec610ee784610d7d565b610ecc565b610d7d565b9050919050565b6000610f0382610ed6565b9050919050565b6000610f1582610ef8565b9050919050565b610f2581610f0a565b82525050565b6000602082019050610f406000830184610f1c565b92915050565b600082825260208201905092915050565b7f4c66785661756c743a20696e73756666696369656e742062616c616e63650000600082015250565b6000610f8d601e83610f46565b9150610f9882610f57565b602082019050919050565b60006020820190508181036000830152610fbc81610f80565b9050919050565b610fcc81610d9d565b82525050565b6000602082019050610fe76000830184610fc3565b92915050565b600081519050610ffc81610e3c565b92915050565b60006020828403121561101857611017610d78565b5b600061102684828501610fed565b91505092915050565b7f4e487b7100000000000000000000000000000000000000000000000000000000600052601160045260246000fd5b600061106982610e08565b915061107483610e08565b925082820390508181111561108c5761108b61102f565b5b92915050565b600061109d82610e08565b91506110a883610e08565b92508282026110b681610e08565b915082820484148315176110cd576110cc61102f565b5b5092915050565b7f4e487b7100000000000000000000000000000000000000000000000000000000600052601260045260246000fd5b600061110e82610e08565b915061111983610e08565b925082611129576111286110d4565b5b828204905092915050565b600061113f82610e08565b915061114a83610e08565b92508282019050808211156111625761116161102f565b5b92915050565b600060408201905061117d6000830185610fc3565b61118a6020830184610e12565b9392505050565b60008115159050919050565b6111a681611191565b81146111b157600080fd5b50565b6000815190506111c38161119d565b92915050565b6000602082840312156111df576111de610d78565b5b60006111ed848285016111b4565b91505092915050565b600060608201905061120b6000830186610fc3565b6112186020830185610fc3565b6112256040830184610e12565b949350505050565b7f4c66785661756c743a206e6f20696e74657265737420746f207769746864726160008201527f7700000000000000000000000000000000000000000000000000000000000000602082015250565b6000611289602183610f46565b91506112948261122d565b604082019050919050565b600060208201905081810360008301526112b88161127c565b905091905056fea2646970667358221220d5d7628c999bc3b3af7c1f5769adefc284b30f9cd62eae8fe2eb95ffb16f50b764736f6c63430008120033",
  "linkReferences": {},
  "deployedLinkReferences": {}
}