{
  "_format": "hh-sol-artifact-1",
  "contractName": "LfxAirdrop",
  "sourceName": "contracts/LfxAirdrop.sol",
  "abi": [
    {
      "inputs": [
        {
          "internalType": "address",
          "name": "_token",
          "type": "address"
        },
        {
          "internalType": "uint256",
          "name": "_maxParticipant",
          "type": "uint256"
        },
        {
          "internalType": "uint256",
          "name": "_maxTotalSupply",
          "type": "uint256"
        },
        {
          "internalType": "uint256",
          "name": "_minDepositAmount",
          "type": "uint256"
        },
        {
          "internalType": "uint256",
          "name": "_maxDepositAmount",
          "type": "uint256"
        }
      ],
      "stateMutability": "nonpayable",
      "type": "constructor"
    },
    {
      "anonymous": false,
      "inputs": [
        {
          "indexed": true,
          "internalType": "address",
          "name": "to",
          "type": "address"
        },
        {
          "indexed": false,
          "internalType": "uint256",
          "name": "amount",
          "type": "uint256"
        }
      ],
      "name": "Airdrop",
      "type": "event"
    },
    {
      "inputs": [
        {
          "internalType": "address",
          "name": "",
          "type": "address"
        }
      ],
      "name": "balanceOf",
      "outputs": [
        {
          "internalType": "uint256",
          "name": "",
          "type": "uint256"
        }
      ],
      "stateMutability": "view",
      "type": "function"
    },
    {
      "inputs": [],
      "name": "getInformation",
      "outputs": [
        {
          "internalType": "bool",
          "name": "",
          "type": "bool"
        },
        {
          "internalType": "uint256",
          "name": "",
          "type": "uint256"
        },
        {
          "internalType": "uint256",
          "name": "",
          "type": "uint256"
        },
        {
          "internalType": "uint256",
          "name": "",
          "type": "uint256"
        },
        {
          "internalType": "uint256",
          "name": "",
          "type": "uint256"
        },
        {
          "internalType": "uint256",
          "name": "",
          "type": "uint256"
        },
        {
          "internalType": "uint256",
          "name": "",
          "type": "uint256"
        },
        {
          "internalType": "uint256",
          "name": "",
          "type": "uint256"
        },
        {
          "internalType": "uint256",
          "name": "",
          "type": "uint256"
        }
      ],
      "stateMutability": "view",
      "type": "function"
    },
    {
      "inputs": [],
      "name": "initTimestamp",
      "outputs": [
        {
          "internalType": "uint256",
          "name": "",
          "type": "uint256"
        }
      ],
      "stateMutability": "view",
      "type": "function"
    },
    {
      "inputs": [],
      "name": "isWithdrawable",
      "outputs": [
        {
          "internalType": "bool",
          "name": "",
          "type": "bool"
        }
      ],
      "stateMutability": "view",
      "type": "function"
    },
    {
      "inputs": [],
      "name": "maxDepositAmount",
      "outputs": [
        {
          "internalType": "uint256",
          "name": "",
          "type": "uint256"
        }
      ],
      "stateMutability": "view",
      "type": "function"
    },
    {
      "inputs": [],
      "name": "maxParticipant",
      "outputs": [
        {
          "internalType": "uint256",
          "name": "",
          "type": "uint256"
        }
      ],
      "stateMutability": "view",
      "type": "function"
    },
    {
      "inputs": [],
      "name": "maxTotalSupply",
      "outputs": [
        {
          "internalType": "uint256",
          "name": "",
          "type": "uint256"
        }
      ],
      "stateMutability": "view",
      "type": "function"
    },
    {
      "inputs": [],
      "name": "minDepositAmount",
      "outputs": [
        {
          "internalType": "uint256",
          "name": "",
          "type": "uint256"
        }
      ],
      "stateMutability": "view",
      "type": "function"
    },
    {
      "inputs": [],
      "name": "owner",
      "outputs": [
        {
          "internalType": "address",
          "name": "",
          "type": "address"
        }
      ],
      "stateMutability": "view",
      "type": "function"
    },
    {
      "inputs": [],
      "name": "participantCount",
      "outputs": [
        {
          "internalType": "uint256",
          "name": "",
          "type": "uint256"
        }
      ],
      "stateMutability": "view",
      "type": "function"
    },
    {
      "inputs": [
        {
          "internalType": "uint256",
          "name": "_maxParticipant",
          "type": "uint256"
        }
      ],
      "name": "setMaxParticipant",
      "outputs": [],
      "stateMutability": "nonpayable",
      "type": "function"
    },
    {
      "inputs": [],
      "name": "token",
      "outputs": [
        {
          "internalType": "contract IERC20",
          "name": "",
          "type": "address"
        }
      ],
      "stateMutability": "view",
      "type": "function"
    },
    {
      "inputs": [],
      "name": "totalSupply",
      "outputs": [
        {
          "internalType": "uint256",
          "name": "",
          "type": "uint256"
        }
      ],
      "stateMutability": "view",
      "type": "function"
    },
    {
      "inputs": [],
      "name": "withdraw",
      "outputs": [],
      "stateMutability": "nonpayable",
      "type": "function"
    },
    {
      "stateMutability": "payable",
      "type": "receive"
    }
  ],
  "bytecode": "0x60a06040523480156200001157600080fd5b506040516200155338038062001553833981810160405281019062000037919062000199565b33600860006101000a81548173ffffffffffffffffffffffffffffffffffffffff021916908373ffffffffffffffffffffffffffffffffffffffff1602179055504260018190555060008060006101000a81548160ff0219169083151502179055508473ffffffffffffffffffffffffffffffffffffffff1660808173ffffffffffffffffffffffffffffffffffffffff168152505083600481905550826002819055508160068190555080600781905550505050505062000221565b600080fd5b600073ffffffffffffffffffffffffffffffffffffffff82169050919050565b60006200012682620000f9565b9050919050565b620001388162000119565b81146200014457600080fd5b50565b60008151905062000158816200012d565b92915050565b6000819050919050565b62000173816200015e565b81146200017f57600080fd5b50565b600081519050620001938162000168565b92915050565b600080600080600060a08688031215620001b857620001b7620000f4565b5b6000620001c88882890162000147565b9550506020620001db8882890162000182565b9450506040620001ee8882890162000182565b9350506060620002018882890162000182565b9250506080620002148882890162000182565b9150509295509295909350565b60805161130162000252600039600081816106780152818161073b015281816108fe0152610a5e01526113016000f3fe6080604052600436106100e15760003560e01c806370a082311161007f5780638ed83271116100595780638ed832711461041d578063c0da1e6814610448578063c8ad179c1461047b578063fc0c546a146104a45761026c565b806370a082311461038a5780637358c57a146103c75780638da5cb5b146103f25761026c565b8063362f04c0116100bb578063362f04c0146102f25780633ccfd60b1461031d5780634d840bcc14610334578063645006ca1461035f5761026c565b806318160ddd146102715780631e4f24791461029c5780632ab4d052146102c75761026c565b3661026c576000151560008054906101000a900460ff1615151461013a576040517f08c379a000000000000000000000000000000000000000000000000000000000815260040161013190610b76565b60405180910390fd5b6000600960003373ffffffffffffffffffffffffffffffffffffffff1673ffffffffffffffffffffffffffffffffffffffff16815260200190815260200160002054146101bc576040517f08c379a00000000000000000000000000000000000000000000000000000000081526004016101b390610c08565b60405180910390fd5b60065434101580156101d057506007543411155b61020f576040517f08c379a000000000000000000000000000000000000000000000000000000000815260040161020690610c9a565b60405180910390fd5b61021933346104cf565b60016005600082825461022c9190610cf3565b9250508190555060045460055410158061024a575060025460035410155b1561026a5760016000806101000a81548160ff0219169083151502179055505b005b600080fd5b34801561027d57600080fd5b50610286610542565b6040516102939190610d36565b60405180910390f35b3480156102a857600080fd5b506102b1610548565b6040516102be9190610d36565b60405180910390f35b3480156102d357600080fd5b506102dc61054e565b6040516102e99190610d36565b60405180910390f35b3480156102fe57600080fd5b50610307610554565b6040516103149190610d36565b60405180910390f35b34801561032957600080fd5b5061033261055a565b005b34801561034057600080fd5b50610349610878565b6040516103569190610d6c565b60405180910390f35b34801561036b57600080fd5b50610374610889565b6040516103819190610d36565b60405180910390f35b34801561039657600080fd5b506103b160048036038101906103ac9190610dea565b61088f565b6040516103be9190610d36565b60405180910390f35b3480156103d357600080fd5b506103dc6108a7565b6040516103e99190610d36565b60405180910390f35b3480156103fe57600080fd5b506104076108ad565b6040516104149190610e26565b60405180910390f35b34801561042957600080fd5b506104326108d3565b60405161043f9190610d36565b60405180910390f35b34801561045457600080fd5b5061045d6108d9565b60405161047299989796959493929190610e41565b60405180910390f35b34801561048757600080fd5b506104a2600480360381019061049d9190610efa565b6109c2565b005b3480156104b057600080fd5b506104b9610a5c565b6040516104c69190610f86565b60405180910390f35b80600360008282546104e19190610cf3565b9250508190555080600960008473ffffffffffffffffffffffffffffffffffffffff1673ffffffffffffffffffffffffffffffffffffffff16815260200190815260200160002060008282546105379190610cf3565b925050819055505050565b60035481565b60045481565b60025481565b60055481565b6001151560008054906101000a900460ff161515146105ae576040517f08c379a00000000000000000000000000000000000000000000000000000000081526004016105a590611013565b60405180910390fd5b6000600960003373ffffffffffffffffffffffffffffffffffffffff1673ffffffffffffffffffffffffffffffffffffffff1681526020019081526020016000205411610630576040517f08c379a0000000000000000000000000000000000000000000000000000000008152600401610627906110a5565b60405180910390fd5b6000600960003373ffffffffffffffffffffffffffffffffffffffff1673ffffffffffffffffffffffffffffffffffffffff16815260200190815260200160002054905060007f000000000000000000000000000000000000000000000000000000000000000073ffffffffffffffffffffffffffffffffffffffff166370a08231306040518263ffffffff1660e01b81526004016106cf9190610e26565b602060405180830381865afa1580156106ec573d6000803e3d6000fd5b505050506040513d601f19601f8201168201806040525081019061071091906110da565b9050600060035482846107239190611107565b61072d9190611178565b90506107393384610a80565b7f000000000000000000000000000000000000000000000000000000000000000073ffffffffffffffffffffffffffffffffffffffff1663a9059cbb33836040518363ffffffff1660e01b81526004016107949291906111a9565b6020604051808303816000875af11580156107b3573d6000803e3d6000fd5b505050506040513d601f19601f820116820180604052508101906107d791906111fe565b503373ffffffffffffffffffffffffffffffffffffffff167f8c32c568416fcf97be35ce5b27844cfddcd63a67a1a602c3595ba5dac38f303a8260405161081e9190610d36565b60405180910390a260003390508073ffffffffffffffffffffffffffffffffffffffff166108fc859081150290604051600060405180830381858888f19350505050158015610871573d6000803e3d6000fd5b5050505050565b60008054906101000a900460ff1681565b60065481565b60096020528060005260406000206000915090505481565b60015481565b600860009054906101000a900473ffffffffffffffffffffffffffffffffffffffff1681565b60075481565b60008060008060008060008060008060009054906101000a900460ff166005546003547f000000000000000000000000000000000000000000000000000000000000000073ffffffffffffffffffffffffffffffffffffffff166370a08231306040518263ffffffff1660e01b81526004016109559190610e26565b602060405180830381865afa158015610972573d6000803e3d6000fd5b505050506040513d601f19601f8201168201806040525081019061099691906110da565b600454600254600654600754600154985098509850985098509850985098509850909192939495969798565b600860009054906101000a900473ffffffffffffffffffffffffffffffffffffffff1673ffffffffffffffffffffffffffffffffffffffff163373ffffffffffffffffffffffffffffffffffffffff1614610a52576040517f08c379a0000000000000000000000000000000000000000000000000000000008152600401610a4990611277565b60405180910390fd5b8060048190555050565b7f000000000000000000000000000000000000000000000000000000000000000081565b8060036000828254610a929190611297565b9250508190555080600960008473ffffffffffffffffffffffffffffffffffffffff1673ffffffffffffffffffffffffffffffffffffffff1681526020019081526020016000206000828254610ae89190611297565b925050819055505050565b600082825260208201905092915050565b7f4c667841697264726f703a205468652061697264726f7020697320616c72656160008201527f64792066696e6973686564000000000000000000000000000000000000000000602082015250565b6000610b60602b83610af3565b9150610b6b82610b04565b604082019050919050565b60006020820190508181036000830152610b8f81610b53565b9050919050565b7f4c667841697264726f703a20596f75206861766520616c72656164792064657060008201527f6f73697465640000000000000000000000000000000000000000000000000000602082015250565b6000610bf2602683610af3565b9150610bfd82610b96565b604082019050919050565b60006020820190508181036000830152610c2181610be5565b9050919050565b7f4c667841697264726f703a2056616c7565206d75737420626520696e2072616e60008201527f6765000000000000000000000000000000000000000000000000000000000000602082015250565b6000610c84602283610af3565b9150610c8f82610c28565b604082019050919050565b60006020820190508181036000830152610cb381610c77565b9050919050565b6000819050919050565b7f4e487b7100000000000000000000000000000000000000000000000000000000600052601160045260246000fd5b6000610cfe82610cba565b9150610d0983610cba565b9250828201905080821115610d2157610d20610cc4565b5b92915050565b610d3081610cba565b82525050565b6000602082019050610d4b6000830184610d27565b92915050565b60008115159050919050565b610d6681610d51565b82525050565b6000602082019050610d816000830184610d5d565b92915050565b600080fd5b600073ffffffffffffffffffffffffffffffffffffffff82169050919050565b6000610db782610d8c565b9050919050565b610dc781610dac565b8114610dd257600080fd5b50565b600081359050610de481610dbe565b92915050565b600060208284031215610e0057610dff610d87565b5b6000610e0e84828501610dd5565b91505092915050565b610e2081610dac565b82525050565b6000602082019050610e3b6000830184610e17565b92915050565b600061012082019050610e57600083018c610d5d565b610e64602083018b610d27565b610e71604083018a610d27565b610e7e6060830189610d27565b610e8b6080830188610d27565b610e9860a0830187610d27565b610ea560c0830186610d27565b610eb260e0830185610d27565b610ec0610100830184610d27565b9a9950505050505050505050565b610ed781610cba565b8114610ee257600080fd5b50565b600081359050610ef481610ece565b92915050565b600060208284031215610f1057610f0f610d87565b5b6000610f1e84828501610ee5565b91505092915050565b6000819050919050565b6000610f4c610f47610f4284610d8c565b610f27565b610d8c565b9050919050565b6000610f5e82610f31565b9050919050565b6000610f7082610f53565b9050919050565b610f8081610f65565b82525050565b6000602082019050610f9b6000830184610f77565b92915050565b7f4c667841697264726f703a205468652061697264726f70206973206e6f74206660008201527f696e697368656420796574000000000000000000000000000000000000000000602082015250565b6000610ffd602b83610af3565b915061100882610fa1565b604082019050919050565b6000602082019050818103600083015261102c81610ff0565b9050919050565b7f4c667841697264726f703a20596f752068617665206e6f2062616c616e63652060008201527f746f207769746864726177000000000000000000000000000000000000000000602082015250565b600061108f602b83610af3565b915061109a82611033565b604082019050919050565b600060208201905081810360008301526110be81611082565b9050919050565b6000815190506110d481610ece565b92915050565b6000602082840312156110f0576110ef610d87565b5b60006110fe848285016110c5565b91505092915050565b600061111282610cba565b915061111d83610cba565b925082820261112b81610cba565b9150828204841483151761114257611141610cc4565b5b5092915050565b7f4e487b7100000000000000000000000000000000000000000000000000000000600052601260045260246000fd5b600061118382610cba565b915061118e83610cba565b92508261119e5761119d611149565b5b828204905092915050565b60006040820190506111be6000830185610e17565b6111cb6020830184610d27565b9392505050565b6111db81610d51565b81146111e657600080fd5b50565b6000815190506111f8816111d2565b92915050565b60006020828403121561121457611213610d87565b5b6000611222848285016111e9565b91505092915050565b7f4c6f7474653a2063616c6c6572206973206e6f7420746865206f776e65720000600082015250565b6000611261601e83610af3565b915061126c8261122b565b602082019050919050565b6000602082019050818103600083015261129081611254565b9050919050565b60006112a282610cba565b91506112ad83610cba565b92508282039050818111156112c5576112c4610cc4565b5b9291505056fea264697066735822122032e04a0c580d0bb78af57de3fe9c470d7f51a2775d3e6bf0c40c1f5a97e8bf6764736f6c63430008120033",
  "linkReferences": {},
  "deployedLinkReferences": {}
}