{
  "_format": "hh-sol-artifact-1",
  "contractName": "LfxVault",
  "sourceName": "contracts/LfxVault.sol",
  "abi": [
    {
      "inputs": [
        {
          "internalType": "address",
          "name": "_token",
          "type": "address"
        }
      ],
      "stateMutability": "nonpayable",
      "type": "constructor"
    },
    {
      "inputs": [
        {
          "internalType": "address",
          "name": "",
          "type": "address"
        }
      ],
      "name": "avgDepositTs",
      "outputs": [
        {
          "internalType": "uint256",
          "name": "",
          "type": "uint256"
        }
      ],
      "stateMutability": "view",
      "type": "function"
    },
    {
      "inputs": [
        {
          "internalType": "address",
          "name": "",
          "type": "address"
        }
      ],
      "name": "balanceOf",
      "outputs": [
        {
          "internalType": "uint256",
          "name": "",
          "type": "uint256"
        }
      ],
      "stateMutability": "view",
      "type": "function"
    },
    {
      "inputs": [
        {
          "internalType": "uint256",
          "name": "_amount",
          "type": "uint256"
        }
      ],
      "name": "deposit",
      "outputs": [],
      "stateMutability": "nonpayable",
      "type": "function"
    },
    {
      "inputs": [],
      "name": "initTimestamp",
      "outputs": [
        {
          "internalType": "uint256",
          "name": "",
          "type": "uint256"
        }
      ],
      "stateMutability": "view",
      "type": "function"
    },
    {
      "inputs": [],
      "name": "token",
      "outputs": [
        {
          "internalType": "contract IERC20",
          "name": "",
          "type": "address"
        }
      ],
      "stateMutability": "view",
      "type": "function"
    },
    {
      "inputs": [],
      "name": "totalSupply",
      "outputs": [
        {
          "internalType": "uint256",
          "name": "",
          "type": "uint256"
        }
      ],
      "stateMutability": "view",
      "type": "function"
    },
    {
      "inputs": [
        {
          "internalType": "uint256",
          "name": "_amount",
          "type": "uint256"
        }
      ],
      "name": "withdraw",
      "outputs": [],
      "stateMutability": "nonpayable",
      "type": "function"
    }
  ],
  "bytecode": "0x60a06040526201518060005534801561001757600080fd5b50604051610f5f380380610f5f833981810160405281019061003991906100dd565b8073ffffffffffffffffffffffffffffffffffffffff1660808173ffffffffffffffffffffffffffffffffffffffff1681525050426002819055505061010a565b600080fd5b600073ffffffffffffffffffffffffffffffffffffffff82169050919050565b60006100aa8261007f565b9050919050565b6100ba8161009f565b81146100c557600080fd5b50565b6000815190506100d7816100b1565b92915050565b6000602082840312156100f3576100f261007a565b5b6000610101848285016100c8565b91505092915050565b608051610e2561013a600039600081816102b401528181610444015281816106fa015261079f0152610e256000f3fe608060405234801561001057600080fd5b506004361061007d5760003560e01c806370a082311161005b57806370a08231146100ec5780637358c57a1461011c578063b6b55f251461013a578063fc0c546a146101565761007d565b80630b8d01561461008257806318160ddd146100b25780632e1a7d4d146100d0575b600080fd5b61009c60048036038101906100979190610942565b610174565b6040516100a99190610988565b60405180910390f35b6100ba61018c565b6040516100c79190610988565b60405180910390f35b6100ea60048036038101906100e591906109cf565b610192565b005b61010660048036038101906101019190610942565b6104e9565b6040516101139190610988565b60405180910390f35b610124610501565b6040516101319190610988565b60405180910390f35b610154600480360381019061014f91906109cf565b610507565b005b61015e61079d565b60405161016b9190610a5b565b60405180910390f35b60046020528060005260406000206000915090505481565b60015481565b600360003373ffffffffffffffffffffffffffffffffffffffff1673ffffffffffffffffffffffffffffffffffffffff16815260200190815260200160002054811115610214576040517f08c379a000000000000000000000000000000000000000000000000000000000815260040161020b90610ad3565b60405180910390fd5b42600054600460003373ffffffffffffffffffffffffffffffffffffffff1673ffffffffffffffffffffffffffffffffffffffff168152602001908152602001600020546002546102659190610b22565b61026f9190610b22565b11156102b0576040517f08c379a00000000000000000000000000000000000000000000000000000000081526004016102a790610bc8565b60405180910390fd5b60007f000000000000000000000000000000000000000000000000000000000000000073ffffffffffffffffffffffffffffffffffffffff166370a08231306040518263ffffffff1660e01b815260040161030b9190610bf7565b602060405180830381865afa158015610328573d6000803e3d6000fd5b505050506040513d601f19601f8201168201806040525081019061034c9190610c27565b90506000610366600254426103619190610c54565b6107c1565b9050600081600154620f4240600154866103809190610c54565b61038a9190610c88565b6103949190610cf9565b61039e9190610cf9565b90506000610402600460003373ffffffffffffffffffffffffffffffffffffffff1673ffffffffffffffffffffffffffffffffffffffff16815260200190815260200160002054600254426103f39190610c54565b6103fd9190610c54565b6107c1565b620f424083876104129190610c88565b61041c9190610cf9565b6104269190610c88565b9050600081866104369190610b22565b905061044233876107f9565b7f000000000000000000000000000000000000000000000000000000000000000073ffffffffffffffffffffffffffffffffffffffff1663a9059cbb33836040518363ffffffff1660e01b815260040161049d929190610d2a565b6020604051808303816000875af11580156104bc573d6000803e3d6000fd5b505050506040513d601f19601f820116820180604052508101906104e09190610d8b565b50505050505050565b60036020528060005260406000206000915090505481565b60025481565b6000600254426105179190610c54565b90506000600460003373ffffffffffffffffffffffffffffffffffffffff1673ffffffffffffffffffffffffffffffffffffffff16815260200190815260200160002054036105a95780600460003373ffffffffffffffffffffffffffffffffffffffff1673ffffffffffffffffffffffffffffffffffffffff168152602001908152602001600020819055506106ee565b600082600360003373ffffffffffffffffffffffffffffffffffffffff1673ffffffffffffffffffffffffffffffffffffffff168152602001908152602001600020546105f69190610b22565b905060008183856106079190610c88565b600460003373ffffffffffffffffffffffffffffffffffffffff1673ffffffffffffffffffffffffffffffffffffffff16815260200190815260200160002054600360003373ffffffffffffffffffffffffffffffffffffffff1673ffffffffffffffffffffffffffffffffffffffff168152602001908152602001600020546106919190610c88565b61069b9190610b22565b6106a59190610cf9565b905080600460003373ffffffffffffffffffffffffffffffffffffffff1673ffffffffffffffffffffffffffffffffffffffff1681526020019081526020016000208190555050505b6106f8338361086c565b7f000000000000000000000000000000000000000000000000000000000000000073ffffffffffffffffffffffffffffffffffffffff166323b872dd3330856040518463ffffffff1660e01b815260040161075593929190610db8565b6020604051808303816000875af1158015610774573d6000803e3d6000fd5b505050506040513d601f19601f820116820180604052508101906107989190610d8b565b505050565b7f000000000000000000000000000000000000000000000000000000000000000081565b60008060008054846107d39190610cf9565b036107df5760016107ee565b600054836107ed9190610cf9565b5b905080915050919050565b806001600082825461080b9190610c54565b9250508190555080600360008473ffffffffffffffffffffffffffffffffffffffff1673ffffffffffffffffffffffffffffffffffffffff16815260200190815260200160002060008282546108619190610c54565b925050819055505050565b806001600082825461087e9190610b22565b9250508190555080600360008473ffffffffffffffffffffffffffffffffffffffff1673ffffffffffffffffffffffffffffffffffffffff16815260200190815260200160002060008282546108d49190610b22565b925050819055505050565b600080fd5b600073ffffffffffffffffffffffffffffffffffffffff82169050919050565b600061090f826108e4565b9050919050565b61091f81610904565b811461092a57600080fd5b50565b60008135905061093c81610916565b92915050565b600060208284031215610958576109576108df565b5b60006109668482850161092d565b91505092915050565b6000819050919050565b6109828161096f565b82525050565b600060208201905061099d6000830184610979565b92915050565b6109ac8161096f565b81146109b757600080fd5b50565b6000813590506109c9816109a3565b92915050565b6000602082840312156109e5576109e46108df565b5b60006109f3848285016109ba565b91505092915050565b6000819050919050565b6000610a21610a1c610a17846108e4565b6109fc565b6108e4565b9050919050565b6000610a3382610a06565b9050919050565b6000610a4582610a28565b9050919050565b610a5581610a3a565b82525050565b6000602082019050610a706000830184610a4c565b92915050565b600082825260208201905092915050565b7f4c66785661756c743a20696e73756666696369656e742062616c616e63650000600082015250565b6000610abd601e83610a76565b9150610ac882610a87565b602082019050919050565b60006020820190508181036000830152610aec81610ab0565b9050919050565b7f4e487b7100000000000000000000000000000000000000000000000000000000600052601160045260246000fd5b6000610b2d8261096f565b9150610b388361096f565b9250828201905080821115610b5057610b4f610af3565b5b92915050565b7f4c66785661756c743a207769746864726177616c206973206e6f7420616c6c6f60008201527f776564206265666f726520323420686f75727300000000000000000000000000602082015250565b6000610bb2603383610a76565b9150610bbd82610b56565b604082019050919050565b60006020820190508181036000830152610be181610ba5565b9050919050565b610bf181610904565b82525050565b6000602082019050610c0c6000830184610be8565b92915050565b600081519050610c21816109a3565b92915050565b600060208284031215610c3d57610c3c6108df565b5b6000610c4b84828501610c12565b91505092915050565b6000610c5f8261096f565b9150610c6a8361096f565b9250828203905081811115610c8257610c81610af3565b5b92915050565b6000610c938261096f565b9150610c9e8361096f565b9250828202610cac8161096f565b91508282048414831517610cc357610cc2610af3565b5b5092915050565b7f4e487b7100000000000000000000000000000000000000000000000000000000600052601260045260246000fd5b6000610d048261096f565b9150610d0f8361096f565b925082610d1f57610d1e610cca565b5b828204905092915050565b6000604082019050610d3f6000830185610be8565b610d4c6020830184610979565b9392505050565b60008115159050919050565b610d6881610d53565b8114610d7357600080fd5b50565b600081519050610d8581610d5f565b92915050565b600060208284031215610da157610da06108df565b5b6000610daf84828501610d76565b91505092915050565b6000606082019050610dcd6000830186610be8565b610dda6020830185610be8565b610de76040830184610979565b94935050505056fea2646970667358221220178265e2e9936c16660392735fa3fd53dba64be025d2fd4425ac35daab82c64964736f6c63430008120033",
  "linkReferences": {},
  "deployedLinkReferences": {}
}