{
  "_format": "hh-sol-artifact-1",
  "contractName": "Lotte",
  "sourceName": "contracts/Lotte.sol",
  "abi": [
    {
      "inputs": [
        {
          "internalType": "address",
          "name": "_token",
          "type": "address"
        },
        {
          "internalType": "address",
          "name": "_vaultAddress",
          "type": "address"
        },
        {
          "internalType": "uint256",
          "name": "_ticketPrice",
          "type": "uint256"
        }
      ],
      "stateMutability": "nonpayable",
      "type": "constructor"
    },
    {
      "anonymous": false,
      "inputs": [
        {
          "indexed": true,
          "internalType": "address",
          "name": "_from",
          "type": "address"
        },
        {
          "indexed": true,
          "internalType": "address",
          "name": "_to",
          "type": "address"
        },
        {
          "indexed": false,
          "internalType": "uint256",
          "name": "_value",
          "type": "uint256"
        }
      ],
      "name": "Purchase",
      "type": "event"
    },
    {
      "inputs": [
        {
          "internalType": "address",
          "name": "",
          "type": "address"
        }
      ],
      "name": "balanceOf",
      "outputs": [
        {
          "internalType": "uint256",
          "name": "",
          "type": "uint256"
        }
      ],
      "stateMutability": "view",
      "type": "function"
    },
    {
      "inputs": [],
      "name": "burnRate",
      "outputs": [
        {
          "internalType": "uint256",
          "name": "",
          "type": "uint256"
        }
      ],
      "stateMutability": "view",
      "type": "function"
    },
    {
      "inputs": [],
      "name": "draw",
      "outputs": [],
      "stateMutability": "nonpayable",
      "type": "function"
    },
    {
      "inputs": [
        {
          "internalType": "uint256",
          "name": "",
          "type": "uint256"
        }
      ],
      "name": "drawData",
      "outputs": [
        {
          "internalType": "uint256",
          "name": "winningNumber",
          "type": "uint256"
        },
        {
          "internalType": "uint256",
          "name": "winnerCount",
          "type": "uint256"
        },
        {
          "internalType": "uint256",
          "name": "winnerAmount",
          "type": "uint256"
        }
      ],
      "stateMutability": "view",
      "type": "function"
    },
    {
      "inputs": [],
      "name": "drawFeeRate",
      "outputs": [
        {
          "internalType": "uint256",
          "name": "",
          "type": "uint256"
        }
      ],
      "stateMutability": "view",
      "type": "function"
    },
    {
      "inputs": [
        {
          "internalType": "uint256",
          "name": "ticketNumber",
          "type": "uint256"
        }
      ],
      "name": "getAddressListByTicketNumber",
      "outputs": [
        {
          "internalType": "address[]",
          "name": "",
          "type": "address[]"
        }
      ],
      "stateMutability": "view",
      "type": "function"
    },
    {
      "inputs": [
        {
          "internalType": "uint256",
          "name": "ticketNumber",
          "type": "uint256"
        }
      ],
      "name": "getAmountOfTicketByTicketNumber",
      "outputs": [
        {
          "internalType": "uint256",
          "name": "",
          "type": "uint256"
        }
      ],
      "stateMutability": "view",
      "type": "function"
    },
    {
      "inputs": [],
      "name": "getConfig",
      "outputs": [
        {
          "internalType": "uint256",
          "name": "",
          "type": "uint256"
        },
        {
          "internalType": "uint256",
          "name": "",
          "type": "uint256"
        },
        {
          "internalType": "uint256",
          "name": "",
          "type": "uint256"
        },
        {
          "internalType": "uint256",
          "name": "",
          "type": "uint256"
        },
        {
          "internalType": "uint256",
          "name": "",
          "type": "uint256"
        },
        {
          "internalType": "uint256",
          "name": "",
          "type": "uint256"
        },
        {
          "internalType": "uint256",
          "name": "",
          "type": "uint256"
        }
      ],
      "stateMutability": "view",
      "type": "function"
    },
    {
      "inputs": [],
      "name": "getInformation",
      "outputs": [
        {
          "internalType": "uint256",
          "name": "",
          "type": "uint256"
        },
        {
          "internalType": "uint256",
          "name": "",
          "type": "uint256"
        },
        {
          "internalType": "uint256",
          "name": "",
          "type": "uint256"
        },
        {
          "internalType": "uint256",
          "name": "",
          "type": "uint256"
        },
        {
          "internalType": "uint256",
          "name": "",
          "type": "uint256"
        },
        {
          "internalType": "uint256",
          "name": "",
          "type": "uint256"
        },
        {
          "internalType": "uint256",
          "name": "",
          "type": "uint256"
        }
      ],
      "stateMutability": "view",
      "type": "function"
    },
    {
      "inputs": [],
      "name": "getLastDraw",
      "outputs": [
        {
          "components": [
            {
              "internalType": "uint256",
              "name": "winningNumber",
              "type": "uint256"
            },
            {
              "internalType": "uint256",
              "name": "winnerCount",
              "type": "uint256"
            },
            {
              "internalType": "uint256",
              "name": "winnerAmount",
              "type": "uint256"
            },
            {
              "internalType": "address[]",
              "name": "winnerList",
              "type": "address[]"
            }
          ],
          "internalType": "struct Lotte.Draw",
          "name": "",
          "type": "tuple"
        }
      ],
      "stateMutability": "view",
      "type": "function"
    },
    {
      "inputs": [],
      "name": "getRandom",
      "outputs": [
        {
          "internalType": "uint256",
          "name": "",
          "type": "uint256"
        }
      ],
      "stateMutability": "view",
      "type": "function"
    },
    {
      "inputs": [
        {
          "internalType": "address",
          "name": "_address",
          "type": "address"
        }
      ],
      "name": "getTicketListByAddress",
      "outputs": [
        {
          "internalType": "uint256[]",
          "name": "",
          "type": "uint256[]"
        }
      ],
      "stateMutability": "view",
      "type": "function"
    },
    {
      "inputs": [],
      "name": "getTotalPot",
      "outputs": [
        {
          "internalType": "uint256",
          "name": "",
          "type": "uint256"
        }
      ],
      "stateMutability": "view",
      "type": "function"
    },
    {
      "inputs": [],
      "name": "lastDrawTimestamp",
      "outputs": [
        {
          "internalType": "uint256",
          "name": "",
          "type": "uint256"
        }
      ],
      "stateMutability": "view",
      "type": "function"
    },
    {
      "inputs": [],
      "name": "owner",
      "outputs": [
        {
          "internalType": "address",
          "name": "",
          "type": "address"
        }
      ],
      "stateMutability": "view",
      "type": "function"
    },
    {
      "inputs": [
        {
          "internalType": "uint256[]",
          "name": "_tickets",
          "type": "uint256[]"
        },
        {
          "internalType": "address",
          "name": "refAddress",
          "type": "address"
        }
      ],
      "name": "purchase",
      "outputs": [],
      "stateMutability": "nonpayable",
      "type": "function"
    },
    {
      "inputs": [
        {
          "internalType": "address",
          "name": "",
          "type": "address"
        }
      ],
      "name": "ref",
      "outputs": [
        {
          "internalType": "address",
          "name": "",
          "type": "address"
        }
      ],
      "stateMutability": "view",
      "type": "function"
    },
    {
      "inputs": [],
      "name": "refRateLayer1",
      "outputs": [
        {
          "internalType": "uint256",
          "name": "",
          "type": "uint256"
        }
      ],
      "stateMutability": "view",
      "type": "function"
    },
    {
      "inputs": [],
      "name": "refRateLayer2",
      "outputs": [
        {
          "internalType": "uint256",
          "name": "",
          "type": "uint256"
        }
      ],
      "stateMutability": "view",
      "type": "function"
    },
    {
      "inputs": [],
      "name": "refRateLayer3",
      "outputs": [
        {
          "internalType": "uint256",
          "name": "",
          "type": "uint256"
        }
      ],
      "stateMutability": "view",
      "type": "function"
    },
    {
      "inputs": [],
      "name": "round",
      "outputs": [
        {
          "internalType": "uint256",
          "name": "",
          "type": "uint256"
        }
      ],
      "stateMutability": "view",
      "type": "function"
    },
    {
      "inputs": [
        {
          "internalType": "uint256",
          "name": "_burnRate",
          "type": "uint256"
        }
      ],
      "name": "setBurnRate",
      "outputs": [],
      "stateMutability": "nonpayable",
      "type": "function"
    },
    {
      "inputs": [
        {
          "internalType": "uint256",
          "name": "_drawFeeRate",
          "type": "uint256"
        }
      ],
      "name": "setDrawFeeRate",
      "outputs": [],
      "stateMutability": "nonpayable",
      "type": "function"
    },
    {
      "inputs": [
        {
          "internalType": "uint256",
          "name": "_refRateLayer1",
          "type": "uint256"
        }
      ],
      "name": "setRefRateLayer1",
      "outputs": [],
      "stateMutability": "nonpayable",
      "type": "function"
    },
    {
      "inputs": [
        {
          "internalType": "uint256",
          "name": "_refRateLayer2",
          "type": "uint256"
        }
      ],
      "name": "setRefRateLayer2",
      "outputs": [],
      "stateMutability": "nonpayable",
      "type": "function"
    },
    {
      "inputs": [
        {
          "internalType": "uint256",
          "name": "_refRateLayer3",
          "type": "uint256"
        }
      ],
      "name": "setRefRateLayer3",
      "outputs": [],
      "stateMutability": "nonpayable",
      "type": "function"
    },
    {
      "inputs": [
        {
          "internalType": "uint256",
          "name": "_systemFeeRate",
          "type": "uint256"
        }
      ],
      "name": "setSystemFeeRate",
      "outputs": [],
      "stateMutability": "nonpayable",
      "type": "function"
    },
    {
      "inputs": [
        {
          "internalType": "uint256",
          "name": "_ticketPrice",
          "type": "uint256"
        }
      ],
      "name": "setTicketPrice",
      "outputs": [],
      "stateMutability": "nonpayable",
      "type": "function"
    },
    {
      "inputs": [],
      "name": "systemFeeRate",
      "outputs": [
        {
          "internalType": "uint256",
          "name": "",
          "type": "uint256"
        }
      ],
      "stateMutability": "view",
      "type": "function"
    },
    {
      "inputs": [],
      "name": "ticketPrice",
      "outputs": [
        {
          "internalType": "uint256",
          "name": "",
          "type": "uint256"
        }
      ],
      "stateMutability": "view",
      "type": "function"
    },
    {
      "inputs": [],
      "name": "token",
      "outputs": [
        {
          "internalType": "contract IERC20",
          "name": "",
          "type": "address"
        }
      ],
      "stateMutability": "view",
      "type": "function"
    },
    {
      "inputs": [],
      "name": "totalSupply",
      "outputs": [
        {
          "internalType": "uint256",
          "name": "",
          "type": "uint256"
        }
      ],
      "stateMutability": "view",
      "type": "function"
    },
    {
      "inputs": [],
      "name": "totalTicket",
      "outputs": [
        {
          "internalType": "uint256",
          "name": "",
          "type": "uint256"
        }
      ],
      "stateMutability": "view",
      "type": "function"
    },
    {
      "inputs": [],
      "name": "vaultAddress",
      "outputs": [
        {
          "internalType": "address",
          "name": "",
          "type": "address"
        }
      ],
      "stateMutability": "view",
      "type": "function"
    },
    {
      "inputs": [
        {
          "internalType": "uint256",
          "name": "amount",
          "type": "uint256"
        }
      ],
      "name": "withdraw",
      "outputs": [],
      "stateMutability": "nonpayable",
      "type": "function"
    }
  ],
  "bytecode": "0x60e0604052600073ffffffffffffffffffffffffffffffffffffffff1660809073ffffffffffffffffffffffffffffffffffffffff168152506101186006556101f460075560326008556046600955601e600a556014600b553480156200006557600080fd5b50604051620034e7380380620034e783398181016040528101906200008b9190620001f7565b336000806101000a81548173ffffffffffffffffffffffffffffffffffffffff021916908373ffffffffffffffffffffffffffffffffffffffff16021790555060006001819055508273ffffffffffffffffffffffffffffffffffffffff1660a08173ffffffffffffffffffffffffffffffffffffffff1681525050806003819055508173ffffffffffffffffffffffffffffffffffffffff1660c08173ffffffffffffffffffffffffffffffffffffffff16815250504260028190555050505062000253565b600080fd5b600073ffffffffffffffffffffffffffffffffffffffff82169050919050565b6000620001848262000157565b9050919050565b620001968162000177565b8114620001a257600080fd5b50565b600081519050620001b6816200018b565b92915050565b6000819050919050565b620001d181620001bc565b8114620001dd57600080fd5b50565b600081519050620001f181620001c6565b92915050565b60008060006060848603121562000213576200021262000152565b5b60006200022386828701620001a5565b93505060206200023686828701620001a5565b92505060406200024986828701620001e0565b9150509250925092565b60805160a05160c051613202620002e560003960008181610c4c01528181610ccc01528181610ef40152818161154c015281816119800152818161213d015281816121f9015261225a01526000818161176e01528181611da601528181612164015261231f015260008181610b2801528181610bf001528181610f1e0152818161164b015261191c01526132026000f3fe608060405234801561001057600080fd5b50600436106102115760003560e01c806392b0779211610125578063c3f909d4116100ad578063dc0e50ea1161007c578063dc0e50ea146105dc578063e80f2fb2146105fa578063e94bc43b14610618578063fc0c546a14610636578063fd3014231461065457610211565b8063c3f909d41461053a578063c4b6ebdf1461055e578063c60ab6941461058e578063c7f698f9146105be57610211565b8063b8a28336116100f4578063b8a283361461048a578063bed99850146104a8578063c0da1e68146104c6578063c172d6a4146104ea578063c1d486061461051c57610211565b806392b07792146104165780639351f0ac14610434578063aa1fbc9914610450578063aacc5a171461046c57610211565b80632e1a7d4d116101a85780635c97b6e1116101775780635c97b6e11461037257806370a082311461038e578063725c0cea146103be5780638c21460b146103da5780638da5cb5b146103f857610211565b80632e1a7d4d146102fe578063430bf08a1461031a578063480bc31f146103385780635596e5011461035657610211565b8063146ca531116101e4578063146ca5311461028a57806315981650146102a857806318160ddd146102c4578063189d165e146102e257610211565b806307fcbd6f1461021657806308c49767146102325780630eecae21146102625780631209b1f61461026c575b600080fd5b610230600480360381019061022b9190612461565b610684565b005b61024c60048036038101906102479190612461565b61071c565b604051610259919061257e565b60405180910390f35b61026a61098e565b005b610274610d21565b60405161028191906125af565b60405180910390f35b610292610d27565b60405161029f91906125af565b60405180910390f35b6102c260048036038101906102bd9190612461565b610d2d565b005b6102cc610dc5565b6040516102d991906125af565b60405180910390f35b6102fc60048036038101906102f79190612461565b610dcb565b005b61031860048036038101906103139190612461565b610e63565b005b610322610ef2565b60405161032f91906125d9565b60405180910390f35b610340610f16565b60405161034d91906125af565b60405180910390f35b610370600480360381019061036b9190612461565b610f7d565b005b61038c60048036038101906103879190612461565b611015565b005b6103a860048036038101906103a39190612620565b6110ad565b6040516103b591906125af565b60405180910390f35b6103d860048036038101906103d39190612461565b6110c5565b005b6103e261115d565b6040516103ef91906125af565b60405180910390f35b610400611163565b60405161040d91906125d9565b60405180910390f35b61041e611187565b60405161042b91906125af565b60405180910390f35b61044e600480360381019061044991906126b2565b61118d565b005b61046a60048036038101906104659190612461565b611818565b005b6104746118b0565b60405161048191906125af565b60405180910390f35b6104926118fe565b60405161049f91906125af565b60405180910390f35b6104b0611904565b6040516104bd91906125af565b60405180910390f35b6104ce61190a565b6040516104e19796959493929190612712565b60405180910390f35b61050460048036038101906104ff9190612461565b611a42565b60405161051393929190612781565b60405180910390f35b610524611a6c565b60405161053191906125af565b60405180910390f35b610542611a72565b6040516105559796959493929190612712565b60405180910390f35b61057860048036038101906105739190612620565b611aa9565b60405161058591906125d9565b60405180910390f35b6105a860048036038101906105a39190612620565b611adc565b6040516105b59190612876565b60405180910390f35b6105c6611cae565b6040516105d3919061296a565b60405180910390f35b6105e4611d92565b6040516105f191906125af565b60405180910390f35b610602611d98565b60405161060f91906125af565b60405180910390f35b610620611d9e565b60405161062d91906125af565b60405180910390f35b61063e611da4565b60405161064b91906129eb565b60405180910390f35b61066e60048036038101906106699190612461565b611dc8565b60405161067b91906125af565b60405180910390f35b60008054906101000a900473ffffffffffffffffffffffffffffffffffffffff1673ffffffffffffffffffffffffffffffffffffffff163373ffffffffffffffffffffffffffffffffffffffff1614610712576040517f08c379a000000000000000000000000000000000000000000000000000000000815260040161070990612a63565b60405180910390fd5b8060078190555050565b6060600060045467ffffffffffffffff81111561073c5761073b612a83565b5b60405190808252806020026020018201604052801561076a5781602001602082028036833780820191505090505b5090506000805b6004548110156108ae5784600d6000838152602001908152602001600020600101541480156108035750600073ffffffffffffffffffffffffffffffffffffffff16600d600083815260200190815260200160002060000160009054906101000a900473ffffffffffffffffffffffffffffffffffffffff1673ffffffffffffffffffffffffffffffffffffffff1614155b1561089b57600d600082815260200190815260200160002060000160009054906101000a900473ffffffffffffffffffffffffffffffffffffffff1683838151811061085257610851612ab2565b5b602002602001019073ffffffffffffffffffffffffffffffffffffffff16908173ffffffffffffffffffffffffffffffffffffffff1681525050818061089790612b10565b9250505b80806108a690612b10565b915050610771565b5060008167ffffffffffffffff8111156108cb576108ca612a83565b5b6040519080825280602002602001820160405280156108f95781602001602082028036833780820191505090505b50905060005b828110156109825783818151811061091a57610919612ab2565b5b602002602001015182828151811061093557610934612ab2565b5b602002602001019073ffffffffffffffffffffffffffffffffffffffff16908173ffffffffffffffffffffffffffffffffffffffff1681525050808061097a90612b10565b9150506108ff565b50809350505050919050565b62015180600254426109a09190612b58565b10156109e1576040517f08c379a00000000000000000000000000000000000000000000000000000000081526004016109d890612bd8565b60405180910390fd5b600760045411610a26576040517f08c379a0000000000000000000000000000000000000000000000000000000008152600401610a1d90612c6a565b60405180910390fd5b60003073ffffffffffffffffffffffffffffffffffffffff1663aacc5a176040518163ffffffff1660e01b8152600401602060405180830381865afa158015610a73573d6000803e3d6000fd5b505050506040513d601f19601f82011682018060405250810190610a979190612c9f565b905060003073ffffffffffffffffffffffffffffffffffffffff1663fd301423836040518263ffffffff1660e01b8152600401610ad491906125af565b602060405180830381865afa158015610af1573d6000803e3d6000fd5b505050506040513d601f19601f82011682018060405250810190610b159190612c9f565b90506000811115610c26576000600f60007f000000000000000000000000000000000000000000000000000000000000000073ffffffffffffffffffffffffffffffffffffffff1673ffffffffffffffffffffffffffffffffffffffff16815260200190815260200160002054905060008282610b929190612cfb565b905083600e600060015481526020019081526020016000206000018190555082600e600060015481526020019081526020016000206001018190555080600e6000600154815260200190815260200160002060020181905550610c157f000000000000000000000000000000000000000000000000000000000000000083611e91565b610c1f8482611f04565b5050610c44565b81600e60006001548152602001908152602001600020600001819055505b6000600f60007f000000000000000000000000000000000000000000000000000000000000000073ffffffffffffffffffffffffffffffffffffffff1673ffffffffffffffffffffffffffffffffffffffff168152602001908152602001600020549050600061271060075483610cbb9190612d2c565b610cc59190612cfb565b9050610cf17f000000000000000000000000000000000000000000000000000000000000000082611e91565b610cfb33826120a6565b610d0482612119565b610d0c6121f1565b610d14612282565b4260028190555050505050565b60035481565b60015481565b60008054906101000a900473ffffffffffffffffffffffffffffffffffffffff1673ffffffffffffffffffffffffffffffffffffffff163373ffffffffffffffffffffffffffffffffffffffff1614610dbb576040517f08c379a0000000000000000000000000000000000000000000000000000000008152600401610db290612a63565b60405180910390fd5b8060038190555050565b60055481565b60008054906101000a900473ffffffffffffffffffffffffffffffffffffffff1673ffffffffffffffffffffffffffffffffffffffff163373ffffffffffffffffffffffffffffffffffffffff1614610e59576040517f08c379a0000000000000000000000000000000000000000000000000000000008152600401610e5090612a63565b60405180910390fd5b8060088190555050565b80600f60003373ffffffffffffffffffffffffffffffffffffffff1673ffffffffffffffffffffffffffffffffffffffff168152602001908152602001600020541015610ee5576040517f08c379a0000000000000000000000000000000000000000000000000000000008152600401610edc90612dba565b60405180910390fd5b610eef33826122a4565b50565b7f000000000000000000000000000000000000000000000000000000000000000081565b6000600f60007f000000000000000000000000000000000000000000000000000000000000000073ffffffffffffffffffffffffffffffffffffffff1673ffffffffffffffffffffffffffffffffffffffff16815260200190815260200160002054905090565b60008054906101000a900473ffffffffffffffffffffffffffffffffffffffff1673ffffffffffffffffffffffffffffffffffffffff163373ffffffffffffffffffffffffffffffffffffffff161461100b576040517f08c379a000000000000000000000000000000000000000000000000000000000815260040161100290612a63565b60405180910390fd5b8060098190555050565b60008054906101000a900473ffffffffffffffffffffffffffffffffffffffff1673ffffffffffffffffffffffffffffffffffffffff163373ffffffffffffffffffffffffffffffffffffffff16146110a3576040517f08c379a000000000000000000000000000000000000000000000000000000000815260040161109a90612a63565b60405180910390fd5b8060068190555050565b600f6020528060005260406000206000915090505481565b60008054906101000a900473ffffffffffffffffffffffffffffffffffffffff1673ffffffffffffffffffffffffffffffffffffffff163373ffffffffffffffffffffffffffffffffffffffff1614611153576040517f08c379a000000000000000000000000000000000000000000000000000000000815260040161114a90612a63565b60405180910390fd5b80600a8190555050565b60025481565b60008054906101000a900473ffffffffffffffffffffffffffffffffffffffff1681565b600b5481565b600083839050116111d3576040517f08c379a00000000000000000000000000000000000000000000000000000000081526004016111ca90612e26565b60405180910390fd5b600783839050111561121a576040517f08c379a000000000000000000000000000000000000000000000000000000000815260040161121190612eb8565b60405180910390fd5b3373ffffffffffffffffffffffffffffffffffffffff168173ffffffffffffffffffffffffffffffffffffffff1603611288576040517f08c379a000000000000000000000000000000000000000000000000000000000815260040161127f90612f4a565b60405180910390fd5b60008383905060035461129b9190612d2c565b90506000819050600073ffffffffffffffffffffffffffffffffffffffff16600c60003373ffffffffffffffffffffffffffffffffffffffff1673ffffffffffffffffffffffffffffffffffffffff16815260200190815260200160002060009054906101000a900473ffffffffffffffffffffffffffffffffffffffff1673ffffffffffffffffffffffffffffffffffffffff1614801561136a5750600073ffffffffffffffffffffffffffffffffffffffff168373ffffffffffffffffffffffffffffffffffffffff1614155b156113ee5782600c60003373ffffffffffffffffffffffffffffffffffffffff1673ffffffffffffffffffffffffffffffffffffffff16815260200190815260200160002060006101000a81548173ffffffffffffffffffffffffffffffffffffffff021916908373ffffffffffffffffffffffffffffffffffffffff1602179055505b6000600c60003373ffffffffffffffffffffffffffffffffffffffff1673ffffffffffffffffffffffffffffffffffffffff16815260200190815260200160002060009054906101000a900473ffffffffffffffffffffffffffffffffffffffff1690506000600c60008373ffffffffffffffffffffffffffffffffffffffff1673ffffffffffffffffffffffffffffffffffffffff16815260200190815260200160002060009054906101000a900473ffffffffffffffffffffffffffffffffffffffff1690506000600c60008373ffffffffffffffffffffffffffffffffffffffff1673ffffffffffffffffffffffffffffffffffffffff16815260200190815260200160002060009054906101000a900473ffffffffffffffffffffffffffffffffffffffff16905060006127106006548761152d9190612d2c565b6115379190612cfb565b905080856115459190612b58565b94506115717f0000000000000000000000000000000000000000000000000000000000000000826120a6565b61157a846123c0565b156115b8576000612710600954886115929190612d2c565b61159c9190612cfb565b905080866115aa9190612b58565b95506115b685826120a6565b505b6115c1836123c0565b156115ff576000612710600a54886115d99190612d2c565b6115e39190612cfb565b905080866115f19190612b58565b95506115fd84826120a6565b505b611608826123c0565b15611646576000612710600b54886116209190612d2c565b61162a9190612cfb565b905080866116389190612b58565b955061164483826120a6565b505b6116707f0000000000000000000000000000000000000000000000000000000000000000866120a6565b60005b8989905081101561174f5760008a8a8381811061169357611692612ab2565b5b90506020020135905060405180604001604052803373ffffffffffffffffffffffffffffffffffffffff16815260200182815250600d6000846004546116d99190612f6a565b815260200190815260200160002060008201518160000160006101000a81548173ffffffffffffffffffffffffffffffffffffffff021916908373ffffffffffffffffffffffffffffffffffffffff1602179055506020820151816001015590505050808061174790612b10565b915050611673565b5088889050600460008282546117659190612f6a565b925050819055507f000000000000000000000000000000000000000000000000000000000000000073ffffffffffffffffffffffffffffffffffffffff166323b872dd3330896040518463ffffffff1660e01b81526004016117c993929190612f9e565b6020604051808303816000875af11580156117e8573d6000803e3d6000fd5b505050506040513d601f19601f8201168201806040525081019061180c919061300d565b50505050505050505050565b60008054906101000a900473ffffffffffffffffffffffffffffffffffffffff1673ffffffffffffffffffffffffffffffffffffffff163373ffffffffffffffffffffffffffffffffffffffff16146118a6576040517f08c379a000000000000000000000000000000000000000000000000000000000815260040161189d90612a63565b60405180910390fd5b80600b8190555050565b600060016104754244336040516020016118cc939291906130a3565b6040516020818303038152906040528051906020012060001c6118ef91906130e0565b6118f99190612b58565b905090565b60045481565b60085481565b600080600080600080600080600f60007f000000000000000000000000000000000000000000000000000000000000000073ffffffffffffffffffffffffffffffffffffffff1673ffffffffffffffffffffffffffffffffffffffff1681526020019081526020016000205490506000600f60007f000000000000000000000000000000000000000000000000000000000000000073ffffffffffffffffffffffffffffffffffffffff1673ffffffffffffffffffffffffffffffffffffffff1681526020019081526020016000205490506000612710600754836119ef9190612d2c565b6119f99190612cfb565b9050600061271060085484611a0e9190612d2c565b611a189190612cfb565b9050600154600454600554868686869a509a509a509a509a509a509a505050505090919293949596565b600e6020528060005260406000206000915090508060000154908060010154908060020154905083565b60095481565b6000806000806000806000600354600654600754600854600954600a54600b54965096509650965096509650965090919293949596565b600c6020528060005260406000206000915054906101000a900473ffffffffffffffffffffffffffffffffffffffff1681565b6060600060045467ffffffffffffffff811115611afc57611afb612a83565b5b604051908082528060200260200182016040528015611b2a5781602001602082028036833780820191505090505b5090506000805b600454811015611bfc578473ffffffffffffffffffffffffffffffffffffffff16600d600083815260200190815260200160002060000160009054906101000a900473ffffffffffffffffffffffffffffffffffffffff1673ffffffffffffffffffffffffffffffffffffffff1603611be957600d600082815260200190815260200160002060010154838381518110611bce57611bcd612ab2565b5b6020026020010181815250508180611be590612b10565b9250505b8080611bf490612b10565b915050611b31565b5060008167ffffffffffffffff811115611c1957611c18612a83565b5b604051908082528060200260200182016040528015611c475781602001602082028036833780820191505090505b50905060005b82811015611ca257838181518110611c6857611c67612ab2565b5b6020026020010151828281518110611c8357611c82612ab2565b5b6020026020010181815250508080611c9a90612b10565b915050611c4d565b50809350505050919050565b611cb66123f9565b600e600060018054611cc89190612b58565b815260200190815260200160002060405180608001604052908160008201548152602001600182015481526020016002820154815260200160038201805480602002602001604051908101604052809291908181526020018280548015611d8457602002820191906000526020600020905b8160009054906101000a900473ffffffffffffffffffffffffffffffffffffffff1673ffffffffffffffffffffffffffffffffffffffff1681526020019060010190808311611d3a575b505050505081525050905090565b600a5481565b60065481565b60075481565b7f000000000000000000000000000000000000000000000000000000000000000081565b60008060005b600454811015611e875783600d600083815260200190815260200160002060010154148015611e605750600073ffffffffffffffffffffffffffffffffffffffff16600d600083815260200190815260200160002060000160009054906101000a900473ffffffffffffffffffffffffffffffffffffffff1673ffffffffffffffffffffffffffffffffffffffff1614155b15611e74578180611e7090612b10565b9250505b8080611e7f90612b10565b915050611dce565b5080915050919050565b8060056000828254611ea39190612b58565b9250508190555080600f60008473ffffffffffffffffffffffffffffffffffffffff1673ffffffffffffffffffffffffffffffffffffffff1681526020019081526020016000206000828254611ef99190612b58565b925050819055505050565b60005b6004548110156120a15782600d600083815260200190815260200160002060010154148015611f995750600073ffffffffffffffffffffffffffffffffffffffff16600d600083815260200190815260200160002060000160009054906101000a900473ffffffffffffffffffffffffffffffffffffffff1673ffffffffffffffffffffffffffffffffffffffff1614155b1561208e57600e60006001548152602001908152602001600020600301600d600083815260200190815260200160002060000160009054906101000a900473ffffffffffffffffffffffffffffffffffffffff169080600181540180825580915050600190039060005260206000200160009091909190916101000a81548173ffffffffffffffffffffffffffffffffffffffff021916908373ffffffffffffffffffffffffffffffffffffffff16021790555061208d600d600083815260200190815260200160002060000160009054906101000a900473ffffffffffffffffffffffffffffffffffffffff16836120a6565b5b808061209990612b10565b915050611f07565b505050565b80600560008282546120b89190612f6a565b9250508190555080600f60008473ffffffffffffffffffffffffffffffffffffffff1673ffffffffffffffffffffffffffffffffffffffff168152602001908152602001600020600082825461210e9190612f6a565b925050819055505050565b60006127106008548361212c9190612d2c565b6121369190612cfb565b90506121627f000000000000000000000000000000000000000000000000000000000000000082611e91565b7f000000000000000000000000000000000000000000000000000000000000000073ffffffffffffffffffffffffffffffffffffffff166342966c68826040518263ffffffff1660e01b81526004016121bb91906125af565b600060405180830381600087803b1580156121d557600080fd5b505af11580156121e9573d6000803e3d6000fd5b505050505050565b6000600f60007f000000000000000000000000000000000000000000000000000000000000000073ffffffffffffffffffffffffffffffffffffffff1673ffffffffffffffffffffffffffffffffffffffff16815260200190815260200160002054905061227f7f0000000000000000000000000000000000000000000000000000000000000000826122a4565b50565b60006004819055506001600081548092919061229d90612b10565b9190505550565b600073ffffffffffffffffffffffffffffffffffffffff168273ffffffffffffffffffffffffffffffffffffffff1603612313576040517f08c379a000000000000000000000000000000000000000000000000000000000815260040161230a90613183565b60405180910390fd5b61231d8282611e91565b7f000000000000000000000000000000000000000000000000000000000000000073ffffffffffffffffffffffffffffffffffffffff1663a9059cbb83836040518363ffffffff1660e01b81526004016123789291906131a3565b6020604051808303816000875af1158015612397573d6000803e3d6000fd5b505050506040513d601f19601f820116820180604052508101906123bb919061300d565b505050565b60008073ffffffffffffffffffffffffffffffffffffffff168273ffffffffffffffffffffffffffffffffffffffff1614159050919050565b6040518060800160405280600081526020016000815260200160008152602001606081525090565b600080fd5b600080fd5b6000819050919050565b61243e8161242b565b811461244957600080fd5b50565b60008135905061245b81612435565b92915050565b60006020828403121561247757612476612421565b5b60006124858482850161244c565b91505092915050565b600081519050919050565b600082825260208201905092915050565b6000819050602082019050919050565b600073ffffffffffffffffffffffffffffffffffffffff82169050919050565b60006124e5826124ba565b9050919050565b6124f5816124da565b82525050565b600061250783836124ec565b60208301905092915050565b6000602082019050919050565b600061252b8261248e565b6125358185612499565b9350612540836124aa565b8060005b8381101561257157815161255888826124fb565b975061256383612513565b925050600181019050612544565b5085935050505092915050565b600060208201905081810360008301526125988184612520565b905092915050565b6125a98161242b565b82525050565b60006020820190506125c460008301846125a0565b92915050565b6125d3816124da565b82525050565b60006020820190506125ee60008301846125ca565b92915050565b6125fd816124da565b811461260857600080fd5b50565b60008135905061261a816125f4565b92915050565b60006020828403121561263657612635612421565b5b60006126448482850161260b565b91505092915050565b600080fd5b600080fd5b600080fd5b60008083601f8401126126725761267161264d565b5b8235905067ffffffffffffffff81111561268f5761268e612652565b5b6020830191508360208202830111156126ab576126aa612657565b5b9250929050565b6000806000604084860312156126cb576126ca612421565b5b600084013567ffffffffffffffff8111156126e9576126e8612426565b5b6126f58682870161265c565b935093505060206127088682870161260b565b9150509250925092565b600060e082019050612727600083018a6125a0565b61273460208301896125a0565b61274160408301886125a0565b61274e60608301876125a0565b61275b60808301866125a0565b61276860a08301856125a0565b61277560c08301846125a0565b98975050505050505050565b600060608201905061279660008301866125a0565b6127a360208301856125a0565b6127b060408301846125a0565b949350505050565b600081519050919050565b600082825260208201905092915050565b6000819050602082019050919050565b6127ed8161242b565b82525050565b60006127ff83836127e4565b60208301905092915050565b6000602082019050919050565b6000612823826127b8565b61282d81856127c3565b9350612838836127d4565b8060005b8381101561286957815161285088826127f3565b975061285b8361280b565b92505060018101905061283c565b5085935050505092915050565b600060208201905081810360008301526128908184612818565b905092915050565b600082825260208201905092915050565b60006128b48261248e565b6128be8185612898565b93506128c9836124aa565b8060005b838110156128fa5781516128e188826124fb565b97506128ec83612513565b9250506001810190506128cd565b5085935050505092915050565b600060808301600083015161291f60008601826127e4565b50602083015161293260208601826127e4565b50604083015161294560408601826127e4565b506060830151848203606086015261295d82826128a9565b9150508091505092915050565b600060208201905081810360008301526129848184612907565b905092915050565b6000819050919050565b60006129b16129ac6129a7846124ba565b61298c565b6124ba565b9050919050565b60006129c382612996565b9050919050565b60006129d5826129b8565b9050919050565b6129e5816129ca565b82525050565b6000602082019050612a0060008301846129dc565b92915050565b600082825260208201905092915050565b7f4c6f7474653a2063616c6c6572206973206e6f7420746865206f776e65720000600082015250565b6000612a4d601e83612a06565b9150612a5882612a17565b602082019050919050565b60006020820190508181036000830152612a7c81612a40565b9050919050565b7f4e487b7100000000000000000000000000000000000000000000000000000000600052604160045260246000fd5b7f4e487b7100000000000000000000000000000000000000000000000000000000600052603260045260246000fd5b7f4e487b7100000000000000000000000000000000000000000000000000000000600052601160045260246000fd5b6000612b1b8261242b565b91507fffffffffffffffffffffffffffffffffffffffffffffffffffffffffffffffff8203612b4d57612b4c612ae1565b5b600182019050919050565b6000612b638261242b565b9150612b6e8361242b565b9250828203905081811115612b8657612b85612ae1565b5b92915050565b7f4c6f7474653a206e6f7420656e6f7567682074696d6520746f20647261770000600082015250565b6000612bc2601e83612a06565b9150612bcd82612b8c565b602082019050919050565b60006020820190508181036000830152612bf181612bb5565b9050919050565b7f4c6f7474653a20746f74616c207469636b65742073686f756c64206265206d6f60008201527f7265207468616e20370000000000000000000000000000000000000000000000602082015250565b6000612c54602983612a06565b9150612c5f82612bf8565b604082019050919050565b60006020820190508181036000830152612c8381612c47565b9050919050565b600081519050612c9981612435565b92915050565b600060208284031215612cb557612cb4612421565b5b6000612cc384828501612c8a565b91505092915050565b7f4e487b7100000000000000000000000000000000000000000000000000000000600052601260045260246000fd5b6000612d068261242b565b9150612d118361242b565b925082612d2157612d20612ccc565b5b828204905092915050565b6000612d378261242b565b9150612d428361242b565b9250828202612d508161242b565b91508282048414831517612d6757612d66612ae1565b5b5092915050565b7f4c6f7474653a206e6f7420656e6f7567682062616c616e636500000000000000600082015250565b6000612da4601983612a06565b9150612daf82612d6e565b602082019050919050565b60006020820190508181036000830152612dd381612d97565b9050919050565b7f4c6f7474653a207469636b65742063616e6e6f7420626520656d707479000000600082015250565b6000612e10601d83612a06565b9150612e1b82612dda565b602082019050919050565b60006020820190508181036000830152612e3f81612e03565b9050919050565b7f4c6f7474653a207469636b65742063616e6e6f74206265206d6f72652074686160008201527f6e20370000000000000000000000000000000000000000000000000000000000602082015250565b6000612ea2602383612a06565b9150612ead82612e46565b604082019050919050565b60006020820190508181036000830152612ed181612e95565b9050919050565b7f4c6f7474653a2072656665727265722063616e6e6f7420626520796f7572736560008201527f6c66000000000000000000000000000000000000000000000000000000000000602082015250565b6000612f34602283612a06565b9150612f3f82612ed8565b604082019050919050565b60006020820190508181036000830152612f6381612f27565b9050919050565b6000612f758261242b565b9150612f808361242b565b9250828201905080821115612f9857612f97612ae1565b5b92915050565b6000606082019050612fb360008301866125ca565b612fc060208301856125ca565b612fcd60408301846125a0565b949350505050565b60008115159050919050565b612fea81612fd5565b8114612ff557600080fd5b50565b60008151905061300781612fe1565b92915050565b60006020828403121561302357613022612421565b5b600061303184828501612ff8565b91505092915050565b6000819050919050565b6130556130508261242b565b61303a565b82525050565b60008160601b9050919050565b60006130738261305b565b9050919050565b600061308582613068565b9050919050565b61309d613098826124da565b61307a565b82525050565b60006130af8286613044565b6020820191506130bf8285613044565b6020820191506130cf828461308c565b601482019150819050949350505050565b60006130eb8261242b565b91506130f68361242b565b92508261310657613105612ccc565b5b828206905092915050565b7f4c6f7474653a20616464726573732073686f756c64206e6f74206265207a657260008201527f6f00000000000000000000000000000000000000000000000000000000000000602082015250565b600061316d602183612a06565b915061317882613111565b604082019050919050565b6000602082019050818103600083015261319c81613160565b9050919050565b60006040820190506131b860008301856125ca565b6131c560208301846125a0565b939250505056fea2646970667358221220d44f91d6a5ea118d4e286de756ed862a1578daf050659e1ba3df87647e18bf8c64736f6c63430008120033",
  "linkReferences": {},
  "deployedLinkReferences": {}
}