{
  "_format": "hh-sol-artifact-1",
  "contractName": "LfxVault",
  "sourceName": "contracts/LfxVault.sol",
  "abi": [
    {
      "inputs": [
        {
          "internalType": "address",
          "name": "_token",
          "type": "address"
        }
      ],
      "stateMutability": "nonpayable",
      "type": "constructor"
    },
    {
      "inputs": [
        {
          "internalType": "address",
          "name": "",
          "type": "address"
        }
      ],
      "name": "avgDepositTs",
      "outputs": [
        {
          "internalType": "uint256",
          "name": "",
          "type": "uint256"
        }
      ],
      "stateMutability": "view",
      "type": "function"
    },
    {
      "inputs": [
        {
          "internalType": "address",
          "name": "",
          "type": "address"
        }
      ],
      "name": "balanceOf",
      "outputs": [
        {
          "internalType": "uint256",
          "name": "",
          "type": "uint256"
        }
      ],
      "stateMutability": "view",
      "type": "function"
    },
    {
      "inputs": [
        {
          "internalType": "uint256",
          "name": "_amount",
          "type": "uint256"
        }
      ],
      "name": "deposit",
      "outputs": [],
      "stateMutability": "nonpayable",
      "type": "function"
    },
    {
      "inputs": [],
      "name": "getInformation",
      "outputs": [
        {
          "internalType": "uint256",
          "name": "",
          "type": "uint256"
        },
        {
          "internalType": "uint256",
          "name": "",
          "type": "uint256"
        },
        {
          "internalType": "uint256",
          "name": "",
          "type": "uint256"
        }
      ],
      "stateMutability": "view",
      "type": "function"
    },
    {
      "inputs": [],
      "name": "getTotalInterest",
      "outputs": [
        {
          "internalType": "uint256",
          "name": "",
          "type": "uint256"
        }
      ],
      "stateMutability": "view",
      "type": "function"
    },
    {
      "inputs": [],
      "name": "initTimestamp",
      "outputs": [
        {
          "internalType": "uint256",
          "name": "",
          "type": "uint256"
        }
      ],
      "stateMutability": "view",
      "type": "function"
    },
    {
      "inputs": [],
      "name": "token",
      "outputs": [
        {
          "internalType": "contract IERC20",
          "name": "",
          "type": "address"
        }
      ],
      "stateMutability": "view",
      "type": "function"
    },
    {
      "inputs": [],
      "name": "totalSupply",
      "outputs": [
        {
          "internalType": "uint256",
          "name": "",
          "type": "uint256"
        }
      ],
      "stateMutability": "view",
      "type": "function"
    },
    {
      "inputs": [
        {
          "internalType": "uint256",
          "name": "_amount",
          "type": "uint256"
        }
      ],
      "name": "withdraw",
      "outputs": [],
      "stateMutability": "nonpayable",
      "type": "function"
    },
    {
      "inputs": [],
      "name": "withdrawAllInterest",
      "outputs": [],
      "stateMutability": "nonpayable",
      "type": "function"
    }
  ],
  "bytecode": "0x60a0604052620151806000553480156200001857600080fd5b50604051620015653803806200156583398181016040528101906200003e9190620000ea565b8073ffffffffffffffffffffffffffffffffffffffff1660808173ffffffffffffffffffffffffffffffffffffffff168152505042600281905550506200011c565b600080fd5b600073ffffffffffffffffffffffffffffffffffffffff82169050919050565b6000620000b28262000085565b9050919050565b620000c481620000a5565b8114620000d057600080fd5b50565b600081519050620000e481620000b9565b92915050565b60006020828403121562000103576200010262000080565b5b60006200011384828501620000d3565b91505092915050565b608051611403620001626000396000818161032c015281816104cd01528181610783015281816108bb0152818161096301528181610a750152610b0701526114036000f3fe608060405234801561001057600080fd5b506004361061009e5760003560e01c80637358c57a116100665780637358c57a1461015b578063b6b55f2514610179578063bb9287ad14610195578063c0da1e681461019f578063fc0c546a146101bf5761009e565b80630b60365c146100a35780630b8d0156146100c157806318160ddd146100f15780632e1a7d4d1461010f57806370a082311461012b575b600080fd5b6100ab6101dd565b6040516100b89190610e0d565b60405180910390f35b6100db60048036038101906100d69190610e8b565b6101ec565b6040516100e89190610e0d565b60405180910390f35b6100f9610204565b6040516101069190610e0d565b60405180910390f35b61012960048036038101906101249190610ee4565b61020a565b005b61014560048036038101906101409190610e8b565b610572565b6040516101529190610e0d565b60405180910390f35b61016361058a565b6040516101709190610e0d565b60405180910390f35b610193600480360381019061018e9190610ee4565b610590565b005b61019d610826565b005b6101a761095b565b6040516101b693929190610f11565b60405180910390f35b6101c7610a73565b6040516101d49190610fa7565b60405180910390f35b60006101e7610a97565b905090565b60046020528060005260406000206000915090505481565b60015481565b600360003373ffffffffffffffffffffffffffffffffffffffff1673ffffffffffffffffffffffffffffffffffffffff1681526020019081526020016000205481111561028c576040517f08c379a00000000000000000000000000000000000000000000000000000000081526004016102839061101f565b60405180910390fd5b42600054600460003373ffffffffffffffffffffffffffffffffffffffff1673ffffffffffffffffffffffffffffffffffffffff168152602001908152602001600020546002546102dd919061106e565b6102e7919061106e565b1115610328576040517f08c379a000000000000000000000000000000000000000000000000000000000815260040161031f90611114565b60405180910390fd5b60007f000000000000000000000000000000000000000000000000000000000000000073ffffffffffffffffffffffffffffffffffffffff166370a08231306040518263ffffffff1660e01b81526004016103839190611143565b602060405180830381865afa1580156103a0573d6000803e3d6000fd5b505050506040513d601f19601f820116820180604052508101906103c49190611173565b905060006103de600254426103d991906111a0565b610cd6565b9050600080600154036103f2576000610427565b81600154620f42406001548661040891906111a0565b61041291906111d4565b61041c9190611245565b6104269190611245565b5b9050600061048b600460003373ffffffffffffffffffffffffffffffffffffffff1673ffffffffffffffffffffffffffffffffffffffff168152602001908152602001600020546002544261047c91906111a0565b61048691906111a0565b610cd6565b620f4240838761049b91906111d4565b6104a59190611245565b6104af91906111d4565b9050600081866104bf919061106e565b90506104cb3387610d0e565b7f000000000000000000000000000000000000000000000000000000000000000073ffffffffffffffffffffffffffffffffffffffff1663a9059cbb33836040518363ffffffff1660e01b8152600401610526929190611276565b6020604051808303816000875af1158015610545573d6000803e3d6000fd5b505050506040513d601f19601f8201168201806040525081019061056991906112d7565b50505050505050565b60036020528060005260406000206000915090505481565b60025481565b6000600254426105a091906111a0565b90506000600460003373ffffffffffffffffffffffffffffffffffffffff1673ffffffffffffffffffffffffffffffffffffffff16815260200190815260200160002054036106325780600460003373ffffffffffffffffffffffffffffffffffffffff1673ffffffffffffffffffffffffffffffffffffffff16815260200190815260200160002081905550610777565b600082600360003373ffffffffffffffffffffffffffffffffffffffff1673ffffffffffffffffffffffffffffffffffffffff1681526020019081526020016000205461067f919061106e565b9050600081838561069091906111d4565b600460003373ffffffffffffffffffffffffffffffffffffffff1673ffffffffffffffffffffffffffffffffffffffff16815260200190815260200160002054600360003373ffffffffffffffffffffffffffffffffffffffff1673ffffffffffffffffffffffffffffffffffffffff1681526020019081526020016000205461071a91906111d4565b610724919061106e565b61072e9190611245565b905080600460003373ffffffffffffffffffffffffffffffffffffffff1673ffffffffffffffffffffffffffffffffffffffff1681526020019081526020016000208190555050505b6107813383610d81565b7f000000000000000000000000000000000000000000000000000000000000000073ffffffffffffffffffffffffffffffffffffffff166323b872dd3330856040518463ffffffff1660e01b81526004016107de93929190611304565b6020604051808303816000875af11580156107fd573d6000803e3d6000fd5b505050506040513d601f19601f8201168201806040525081019061082191906112d7565b505050565b6000610830610a97565b905060008111610875576040517f08c379a000000000000000000000000000000000000000000000000000000000815260040161086c906113ad565b60405180910390fd5b42600460003373ffffffffffffffffffffffffffffffffffffffff1673ffffffffffffffffffffffffffffffffffffffff168152602001908152602001600020819055507f000000000000000000000000000000000000000000000000000000000000000073ffffffffffffffffffffffffffffffffffffffff1663a9059cbb33836040518363ffffffff1660e01b8152600401610914929190611276565b6020604051808303816000875af1158015610933573d6000803e3d6000fd5b505050506040513d601f19601f8201168201806040525081019061095791906112d7565b5050565b6000806000807f000000000000000000000000000000000000000000000000000000000000000073ffffffffffffffffffffffffffffffffffffffff166370a08231306040518263ffffffff1660e01b81526004016109ba9190611143565b602060405180830381865afa1580156109d7573d6000803e3d6000fd5b505050506040513d601f19601f820116820180604052508101906109fb9190611173565b90506000610a1560025442610a1091906111a0565b610cd6565b905060008060015403610a29576000610a5e565b81600154620f424060015486610a3f91906111a0565b610a4991906111d4565b610a539190611245565b610a5d9190611245565b5b90506001548382955095509550505050909192565b7f000000000000000000000000000000000000000000000000000000000000000081565b6000600460003373ffffffffffffffffffffffffffffffffffffffff1673ffffffffffffffffffffffffffffffffffffffff16815260200190815260200160002054600254600054610ae9919061106e565b610af3919061106e565b421015610b035760009050610cd3565b60007f000000000000000000000000000000000000000000000000000000000000000073ffffffffffffffffffffffffffffffffffffffff166370a08231306040518263ffffffff1660e01b8152600401610b5e9190611143565b602060405180830381865afa158015610b7b573d6000803e3d6000fd5b505050506040513d601f19601f82011682018060405250810190610b9f9190611173565b90506000610bb960025442610bb491906111a0565b610cd6565b905060008060015403610bcd576000610c02565b81600154620f424060015486610be391906111a0565b610bed91906111d4565b610bf79190611245565b610c019190611245565b5b90506000610c66600460003373ffffffffffffffffffffffffffffffffffffffff1673ffffffffffffffffffffffffffffffffffffffff1681526020019081526020016000205460025442610c5791906111a0565b610c6191906111a0565b610cd6565b620f424083600360003373ffffffffffffffffffffffffffffffffffffffff1673ffffffffffffffffffffffffffffffffffffffff16815260200190815260200160002054610cb591906111d4565b610cbf9190611245565b610cc991906111d4565b9050809450505050505b90565b6000806000805484610ce89190611245565b03610cf4576001610d03565b60005483610d029190611245565b5b905080915050919050565b8060016000828254610d2091906111a0565b9250508190555080600360008473ffffffffffffffffffffffffffffffffffffffff1673ffffffffffffffffffffffffffffffffffffffff1681526020019081526020016000206000828254610d7691906111a0565b925050819055505050565b8060016000828254610d93919061106e565b9250508190555080600360008473ffffffffffffffffffffffffffffffffffffffff1673ffffffffffffffffffffffffffffffffffffffff1681526020019081526020016000206000828254610de9919061106e565b925050819055505050565b6000819050919050565b610e0781610df4565b82525050565b6000602082019050610e226000830184610dfe565b92915050565b600080fd5b600073ffffffffffffffffffffffffffffffffffffffff82169050919050565b6000610e5882610e2d565b9050919050565b610e6881610e4d565b8114610e7357600080fd5b50565b600081359050610e8581610e5f565b92915050565b600060208284031215610ea157610ea0610e28565b5b6000610eaf84828501610e76565b91505092915050565b610ec181610df4565b8114610ecc57600080fd5b50565b600081359050610ede81610eb8565b92915050565b600060208284031215610efa57610ef9610e28565b5b6000610f0884828501610ecf565b91505092915050565b6000606082019050610f266000830186610dfe565b610f336020830185610dfe565b610f406040830184610dfe565b949350505050565b6000819050919050565b6000610f6d610f68610f6384610e2d565b610f48565b610e2d565b9050919050565b6000610f7f82610f52565b9050919050565b6000610f9182610f74565b9050919050565b610fa181610f86565b82525050565b6000602082019050610fbc6000830184610f98565b92915050565b600082825260208201905092915050565b7f4c66785661756c743a20696e73756666696369656e742062616c616e63650000600082015250565b6000611009601e83610fc2565b915061101482610fd3565b602082019050919050565b6000602082019050818103600083015261103881610ffc565b9050919050565b7f4e487b7100000000000000000000000000000000000000000000000000000000600052601160045260246000fd5b600061107982610df4565b915061108483610df4565b925082820190508082111561109c5761109b61103f565b5b92915050565b7f4c66785661756c743a207769746864726177616c206973206e6f7420616c6c6f60008201527f776564206265666f726520323420686f75727300000000000000000000000000602082015250565b60006110fe603383610fc2565b9150611109826110a2565b604082019050919050565b6000602082019050818103600083015261112d816110f1565b9050919050565b61113d81610e4d565b82525050565b60006020820190506111586000830184611134565b92915050565b60008151905061116d81610eb8565b92915050565b60006020828403121561118957611188610e28565b5b60006111978482850161115e565b91505092915050565b60006111ab82610df4565b91506111b683610df4565b92508282039050818111156111ce576111cd61103f565b5b92915050565b60006111df82610df4565b91506111ea83610df4565b92508282026111f881610df4565b9150828204841483151761120f5761120e61103f565b5b5092915050565b7f4e487b7100000000000000000000000000000000000000000000000000000000600052601260045260246000fd5b600061125082610df4565b915061125b83610df4565b92508261126b5761126a611216565b5b828204905092915050565b600060408201905061128b6000830185611134565b6112986020830184610dfe565b9392505050565b60008115159050919050565b6112b48161129f565b81146112bf57600080fd5b50565b6000815190506112d1816112ab565b92915050565b6000602082840312156112ed576112ec610e28565b5b60006112fb848285016112c2565b91505092915050565b60006060820190506113196000830186611134565b6113266020830185611134565b6113336040830184610dfe565b949350505050565b7f4c66785661756c743a206e6f20696e74657265737420746f207769746864726160008201527f7700000000000000000000000000000000000000000000000000000000000000602082015250565b6000611397602183610fc2565b91506113a28261133b565b604082019050919050565b600060208201905081810360008301526113c68161138a565b905091905056fea26469706673582212208922e9e4d154f6f6eaa48079e4d14b54474b2ad316dc5273ec6b94607fff6dcf64736f6c63430008120033",
  "linkReferences": {},
  "deployedLinkReferences": {}
}