{
  "_format": "hh-sol-artifact-1",
  "contractName": "Lotte",
  "sourceName": "contracts/Lotte.sol",
  "abi": [
    {
      "inputs": [
        {
          "internalType": "address",
          "name": "_token",
          "type": "address"
        },
        {
          "internalType": "address",
          "name": "_vaultAddress",
          "type": "address"
        },
        {
          "internalType": "uint256",
          "name": "_ticketPrice",
          "type": "uint256"
        },
        {
          "internalType": "uint256",
          "name": "_minDrawDuration",
          "type": "uint256"
        }
      ],
      "stateMutability": "nonpayable",
      "type": "constructor"
    },
    {
      "anonymous": false,
      "inputs": [
        {
          "indexed": true,
          "internalType": "address",
          "name": "_from",
          "type": "address"
        },
        {
          "indexed": true,
          "internalType": "address",
          "name": "_to",
          "type": "address"
        },
        {
          "indexed": false,
          "internalType": "uint256",
          "name": "_value",
          "type": "uint256"
        }
      ],
      "name": "Purchase",
      "type": "event"
    },
    {
      "inputs": [
        {
          "internalType": "address",
          "name": "",
          "type": "address"
        }
      ],
      "name": "balanceOf",
      "outputs": [
        {
          "internalType": "uint256",
          "name": "",
          "type": "uint256"
        }
      ],
      "stateMutability": "view",
      "type": "function"
    },
    {
      "inputs": [],
      "name": "burnRate",
      "outputs": [
        {
          "internalType": "uint256",
          "name": "",
          "type": "uint256"
        }
      ],
      "stateMutability": "view",
      "type": "function"
    },
    {
      "inputs": [],
      "name": "draw",
      "outputs": [],
      "stateMutability": "nonpayable",
      "type": "function"
    },
    {
      "inputs": [
        {
          "internalType": "uint256",
          "name": "",
          "type": "uint256"
        }
      ],
      "name": "drawData",
      "outputs": [
        {
          "internalType": "uint256",
          "name": "winningNumber",
          "type": "uint256"
        },
        {
          "internalType": "uint256",
          "name": "winnerCount",
          "type": "uint256"
        },
        {
          "internalType": "uint256",
          "name": "winnerAmount",
          "type": "uint256"
        }
      ],
      "stateMutability": "view",
      "type": "function"
    },
    {
      "inputs": [],
      "name": "drawFeeRate",
      "outputs": [
        {
          "internalType": "uint256",
          "name": "",
          "type": "uint256"
        }
      ],
      "stateMutability": "view",
      "type": "function"
    },
    {
      "inputs": [
        {
          "internalType": "uint256",
          "name": "ticketNumber",
          "type": "uint256"
        }
      ],
      "name": "getAddressListByTicketNumber",
      "outputs": [
        {
          "internalType": "address[]",
          "name": "",
          "type": "address[]"
        }
      ],
      "stateMutability": "view",
      "type": "function"
    },
    {
      "inputs": [
        {
          "internalType": "uint256",
          "name": "ticketNumber",
          "type": "uint256"
        }
      ],
      "name": "getAmountOfTicketByTicketNumber",
      "outputs": [
        {
          "internalType": "uint256",
          "name": "",
          "type": "uint256"
        }
      ],
      "stateMutability": "view",
      "type": "function"
    },
    {
      "inputs": [],
      "name": "getConfig",
      "outputs": [
        {
          "internalType": "uint256",
          "name": "",
          "type": "uint256"
        },
        {
          "internalType": "uint256",
          "name": "",
          "type": "uint256"
        },
        {
          "internalType": "uint256",
          "name": "",
          "type": "uint256"
        },
        {
          "internalType": "uint256",
          "name": "",
          "type": "uint256"
        },
        {
          "internalType": "uint256",
          "name": "",
          "type": "uint256"
        },
        {
          "internalType": "uint256",
          "name": "",
          "type": "uint256"
        },
        {
          "internalType": "uint256",
          "name": "",
          "type": "uint256"
        },
        {
          "internalType": "uint256",
          "name": "",
          "type": "uint256"
        }
      ],
      "stateMutability": "view",
      "type": "function"
    },
    {
      "inputs": [],
      "name": "getInformation",
      "outputs": [
        {
          "internalType": "uint256",
          "name": "",
          "type": "uint256"
        },
        {
          "internalType": "uint256",
          "name": "",
          "type": "uint256"
        },
        {
          "internalType": "bool",
          "name": "",
          "type": "bool"
        },
        {
          "internalType": "uint256",
          "name": "",
          "type": "uint256"
        },
        {
          "internalType": "uint256",
          "name": "",
          "type": "uint256"
        },
        {
          "internalType": "uint256",
          "name": "",
          "type": "uint256"
        },
        {
          "internalType": "uint256",
          "name": "",
          "type": "uint256"
        },
        {
          "internalType": "uint256",
          "name": "",
          "type": "uint256"
        },
        {
          "internalType": "uint256",
          "name": "",
          "type": "uint256"
        }
      ],
      "stateMutability": "view",
      "type": "function"
    },
    {
      "inputs": [],
      "name": "getLastDraw",
      "outputs": [
        {
          "components": [
            {
              "internalType": "uint256",
              "name": "winningNumber",
              "type": "uint256"
            },
            {
              "internalType": "uint256",
              "name": "winnerCount",
              "type": "uint256"
            },
            {
              "internalType": "uint256",
              "name": "winnerAmount",
              "type": "uint256"
            },
            {
              "internalType": "address[]",
              "name": "winnerList",
              "type": "address[]"
            }
          ],
          "internalType": "struct Lotte.Draw",
          "name": "",
          "type": "tuple"
        }
      ],
      "stateMutability": "view",
      "type": "function"
    },
    {
      "inputs": [],
      "name": "getRandom",
      "outputs": [
        {
          "internalType": "uint256",
          "name": "",
          "type": "uint256"
        }
      ],
      "stateMutability": "view",
      "type": "function"
    },
    {
      "inputs": [
        {
          "internalType": "address",
          "name": "_address",
          "type": "address"
        }
      ],
      "name": "getTicketListByAddress",
      "outputs": [
        {
          "internalType": "uint256[]",
          "name": "",
          "type": "uint256[]"
        }
      ],
      "stateMutability": "view",
      "type": "function"
    },
    {
      "inputs": [],
      "name": "getTotalPot",
      "outputs": [
        {
          "internalType": "uint256",
          "name": "",
          "type": "uint256"
        }
      ],
      "stateMutability": "view",
      "type": "function"
    },
    {
      "inputs": [],
      "name": "lastDrawTimestamp",
      "outputs": [
        {
          "internalType": "uint256",
          "name": "",
          "type": "uint256"
        }
      ],
      "stateMutability": "view",
      "type": "function"
    },
    {
      "inputs": [],
      "name": "minDrawDuration",
      "outputs": [
        {
          "internalType": "uint256",
          "name": "",
          "type": "uint256"
        }
      ],
      "stateMutability": "view",
      "type": "function"
    },
    {
      "inputs": [],
      "name": "owner",
      "outputs": [
        {
          "internalType": "address",
          "name": "",
          "type": "address"
        }
      ],
      "stateMutability": "view",
      "type": "function"
    },
    {
      "inputs": [
        {
          "internalType": "uint256[]",
          "name": "_tickets",
          "type": "uint256[]"
        },
        {
          "internalType": "address",
          "name": "refAddress",
          "type": "address"
        }
      ],
      "name": "purchase",
      "outputs": [],
      "stateMutability": "nonpayable",
      "type": "function"
    },
    {
      "inputs": [
        {
          "internalType": "address",
          "name": "",
          "type": "address"
        }
      ],
      "name": "ref",
      "outputs": [
        {
          "internalType": "address",
          "name": "",
          "type": "address"
        }
      ],
      "stateMutability": "view",
      "type": "function"
    },
    {
      "inputs": [],
      "name": "refRateLayer1",
      "outputs": [
        {
          "internalType": "uint256",
          "name": "",
          "type": "uint256"
        }
      ],
      "stateMutability": "view",
      "type": "function"
    },
    {
      "inputs": [],
      "name": "refRateLayer2",
      "outputs": [
        {
          "internalType": "uint256",
          "name": "",
          "type": "uint256"
        }
      ],
      "stateMutability": "view",
      "type": "function"
    },
    {
      "inputs": [],
      "name": "refRateLayer3",
      "outputs": [
        {
          "internalType": "uint256",
          "name": "",
          "type": "uint256"
        }
      ],
      "stateMutability": "view",
      "type": "function"
    },
    {
      "inputs": [],
      "name": "round",
      "outputs": [
        {
          "internalType": "uint256",
          "name": "",
          "type": "uint256"
        }
      ],
      "stateMutability": "view",
      "type": "function"
    },
    {
      "inputs": [
        {
          "internalType": "uint256",
          "name": "_burnRate",
          "type": "uint256"
        }
      ],
      "name": "setBurnRate",
      "outputs": [],
      "stateMutability": "nonpayable",
      "type": "function"
    },
    {
      "inputs": [
        {
          "internalType": "uint256",
          "name": "_drawFeeRate",
          "type": "uint256"
        }
      ],
      "name": "setDrawFeeRate",
      "outputs": [],
      "stateMutability": "nonpayable",
      "type": "function"
    },
    {
      "inputs": [
        {
          "internalType": "uint256",
          "name": "_minDrawDuration",
          "type": "uint256"
        }
      ],
      "name": "setMinDrawDuration",
      "outputs": [],
      "stateMutability": "nonpayable",
      "type": "function"
    },
    {
      "inputs": [
        {
          "internalType": "uint256",
          "name": "_refRateLayer1",
          "type": "uint256"
        }
      ],
      "name": "setRefRateLayer1",
      "outputs": [],
      "stateMutability": "nonpayable",
      "type": "function"
    },
    {
      "inputs": [
        {
          "internalType": "uint256",
          "name": "_refRateLayer2",
          "type": "uint256"
        }
      ],
      "name": "setRefRateLayer2",
      "outputs": [],
      "stateMutability": "nonpayable",
      "type": "function"
    },
    {
      "inputs": [
        {
          "internalType": "uint256",
          "name": "_refRateLayer3",
          "type": "uint256"
        }
      ],
      "name": "setRefRateLayer3",
      "outputs": [],
      "stateMutability": "nonpayable",
      "type": "function"
    },
    {
      "inputs": [
        {
          "internalType": "uint256",
          "name": "_systemFeeRate",
          "type": "uint256"
        }
      ],
      "name": "setSystemFeeRate",
      "outputs": [],
      "stateMutability": "nonpayable",
      "type": "function"
    },
    {
      "inputs": [
        {
          "internalType": "uint256",
          "name": "_ticketPrice",
          "type": "uint256"
        }
      ],
      "name": "setTicketPrice",
      "outputs": [],
      "stateMutability": "nonpayable",
      "type": "function"
    },
    {
      "inputs": [],
      "name": "systemFeeRate",
      "outputs": [
        {
          "internalType": "uint256",
          "name": "",
          "type": "uint256"
        }
      ],
      "stateMutability": "view",
      "type": "function"
    },
    {
      "inputs": [],
      "name": "ticketPrice",
      "outputs": [
        {
          "internalType": "uint256",
          "name": "",
          "type": "uint256"
        }
      ],
      "stateMutability": "view",
      "type": "function"
    },
    {
      "inputs": [],
      "name": "token",
      "outputs": [
        {
          "internalType": "contract IERC20",
          "name": "",
          "type": "address"
        }
      ],
      "stateMutability": "view",
      "type": "function"
    },
    {
      "inputs": [],
      "name": "totalSupply",
      "outputs": [
        {
          "internalType": "uint256",
          "name": "",
          "type": "uint256"
        }
      ],
      "stateMutability": "view",
      "type": "function"
    },
    {
      "inputs": [],
      "name": "totalTicket",
      "outputs": [
        {
          "internalType": "uint256",
          "name": "",
          "type": "uint256"
        }
      ],
      "stateMutability": "view",
      "type": "function"
    },
    {
      "inputs": [],
      "name": "vaultAddress",
      "outputs": [
        {
          "internalType": "address",
          "name": "",
          "type": "address"
        }
      ],
      "stateMutability": "view",
      "type": "function"
    },
    {
      "inputs": [
        {
          "internalType": "uint256",
          "name": "amount",
          "type": "uint256"
        }
      ],
      "name": "withdraw",
      "outputs": [],
      "stateMutability": "nonpayable",
      "type": "function"
    }
  ],
  "bytecode": "0x60e0604052600073ffffffffffffffffffffffffffffffffffffffff1660809073ffffffffffffffffffffffffffffffffffffffff168152506101186007556101f460085560326009556046600a55601e600b556014600c553480156200006557600080fd5b50604051620036da380380620036da83398181016040528101906200008b9190620001ff565b336000806101000a81548173ffffffffffffffffffffffffffffffffffffffff021916908373ffffffffffffffffffffffffffffffffffffffff16021790555060006001819055508373ffffffffffffffffffffffffffffffffffffffff1660a08173ffffffffffffffffffffffffffffffffffffffff16815250508273ffffffffffffffffffffffffffffffffffffffff1660c08173ffffffffffffffffffffffffffffffffffffffff16815250508160038190555080600481905550426002819055505050505062000271565b600080fd5b600073ffffffffffffffffffffffffffffffffffffffff82169050919050565b60006200018c826200015f565b9050919050565b6200019e816200017f565b8114620001aa57600080fd5b50565b600081519050620001be8162000193565b92915050565b6000819050919050565b620001d981620001c4565b8114620001e557600080fd5b50565b600081519050620001f981620001ce565b92915050565b600080600080608085870312156200021c576200021b6200015a565b5b60006200022c87828801620001ad565b94505060206200023f87828801620001ad565b93505060406200025287828801620001e8565b92505060606200026587828801620001e8565b91505092959194509250565b60805160a05160c0516133d76200030360003960008181610c9e01528181610d1e01528181610f46015281816115a4015281816119db015281816122670152818161232301526123840152600081816117c601528181611ed00152818161228e0152612449015260008181610b7a01528181610c4201528181610f70015281816116a3015261197701526133d76000f3fe608060405234801561001057600080fd5b50600436106102275760003560e01c806392b0779211610130578063c3f909d4116100b8578063e80f2fb21161007c578063e80f2fb214610631578063e94bc43b1461064f578063f31607451461066d578063fc0c546a14610689578063fd301423146106a757610227565b8063c3f909d414610570578063c4b6ebdf14610595578063c60ab694146105c5578063c7f698f9146105f5578063dc0e50ea1461061357610227565b8063b8a28336116100ff578063b8a28336146104be578063bed99850146104dc578063c0da1e68146104fa578063c172d6a414610520578063c1d486061461055257610227565b806392b077921461044a5780639351f0ac14610468578063aa1fbc9914610484578063aacc5a17146104a057610227565b8063430bf08a116101b35780635c97b6e1116101825780635c97b6e1146103a657806370a08231146103c2578063725c0cea146103f25780638c21460b1461040e5780638da5cb5b1461042c57610227565b8063430bf08a14610330578063480bc31f1461034e578063496d2f3d1461036c5780635596e5011461038a57610227565b8063146ca531116101fa578063146ca531146102a057806315981650146102be57806318160ddd146102da578063189d165e146102f85780632e1a7d4d1461031457610227565b806307fcbd6f1461022c57806308c49767146102485780630eecae21146102785780631209b1f614610282575b600080fd5b6102466004803603810190610241919061258b565b6106d7565b005b610262600480360381019061025d919061258b565b61076f565b60405161026f91906126a8565b60405180910390f35b6102806109e1565b005b61028a610d73565b60405161029791906126d9565b60405180910390f35b6102a8610d79565b6040516102b591906126d9565b60405180910390f35b6102d860048036038101906102d3919061258b565b610d7f565b005b6102e2610e17565b6040516102ef91906126d9565b60405180910390f35b610312600480360381019061030d919061258b565b610e1d565b005b61032e6004803603810190610329919061258b565b610eb5565b005b610338610f44565b6040516103459190612703565b60405180910390f35b610356610f68565b60405161036391906126d9565b60405180910390f35b610374610fcf565b60405161038191906126d9565b60405180910390f35b6103a4600480360381019061039f919061258b565b610fd5565b005b6103c060048036038101906103bb919061258b565b61106d565b005b6103dc60048036038101906103d7919061274a565b611105565b6040516103e991906126d9565b60405180910390f35b61040c6004803603810190610407919061258b565b61111d565b005b6104166111b5565b60405161042391906126d9565b60405180910390f35b6104346111bb565b6040516104419190612703565b60405180910390f35b6104526111df565b60405161045f91906126d9565b60405180910390f35b610482600480360381019061047d91906127dc565b6111e5565b005b61049e6004803603810190610499919061258b565b611870565b005b6104a8611908565b6040516104b591906126d9565b60405180910390f35b6104c6611956565b6040516104d391906126d9565b60405180910390f35b6104e461195c565b6040516104f191906126d9565b60405180910390f35b610502611962565b60405161051799989796959493929190612857565b60405180910390f35b61053a6004803603810190610535919061258b565b611acd565b604051610549939291906128e4565b60405180910390f35b61055a611af7565b60405161056791906126d9565b60405180910390f35b610578611afd565b60405161058c98979695949392919061291b565b60405180910390f35b6105af60048036038101906105aa919061274a565b611b3b565b6040516105bc9190612703565b60405180910390f35b6105df60048036038101906105da919061274a565b611b6e565b6040516105ec9190612a57565b60405180910390f35b6105fd611d40565b60405161060a9190612b4b565b60405180910390f35b61061b611e24565b60405161062891906126d9565b60405180910390f35b610639611e2a565b60405161064691906126d9565b60405180910390f35b610657611e30565b60405161066491906126d9565b60405180910390f35b6106876004803603810190610682919061258b565b611e36565b005b610691611ece565b60405161069e9190612bcc565b60405180910390f35b6106c160048036038101906106bc919061258b565b611ef2565b6040516106ce91906126d9565b60405180910390f35b60008054906101000a900473ffffffffffffffffffffffffffffffffffffffff1673ffffffffffffffffffffffffffffffffffffffff163373ffffffffffffffffffffffffffffffffffffffff1614610765576040517f08c379a000000000000000000000000000000000000000000000000000000000815260040161075c90612c44565b60405180910390fd5b8060088190555050565b6060600060055467ffffffffffffffff81111561078f5761078e612c64565b5b6040519080825280602002602001820160405280156107bd5781602001602082028036833780820191505090505b5090506000805b6005548110156109015784600e6000838152602001908152602001600020600101541480156108565750600073ffffffffffffffffffffffffffffffffffffffff16600e600083815260200190815260200160002060000160009054906101000a900473ffffffffffffffffffffffffffffffffffffffff1673ffffffffffffffffffffffffffffffffffffffff1614155b156108ee57600e600082815260200190815260200160002060000160009054906101000a900473ffffffffffffffffffffffffffffffffffffffff168383815181106108a5576108a4612c93565b5b602002602001019073ffffffffffffffffffffffffffffffffffffffff16908173ffffffffffffffffffffffffffffffffffffffff168152505081806108ea90612cf1565b9250505b80806108f990612cf1565b9150506107c4565b5060008167ffffffffffffffff81111561091e5761091d612c64565b5b60405190808252806020026020018201604052801561094c5781602001602082028036833780820191505090505b50905060005b828110156109d55783818151811061096d5761096c612c93565b5b602002602001015182828151811061098857610987612c93565b5b602002602001019073ffffffffffffffffffffffffffffffffffffffff16908173ffffffffffffffffffffffffffffffffffffffff168152505080806109cd90612cf1565b915050610952565b50809350505050919050565b600454600254426109f29190612d39565b1015610a33576040517f08c379a0000000000000000000000000000000000000000000000000000000008152600401610a2a90612db9565b60405180910390fd5b600760055411610a78576040517f08c379a0000000000000000000000000000000000000000000000000000000008152600401610a6f90612e4b565b60405180910390fd5b60003073ffffffffffffffffffffffffffffffffffffffff1663aacc5a176040518163ffffffff1660e01b8152600401602060405180830381865afa158015610ac5573d6000803e3d6000fd5b505050506040513d601f19601f82011682018060405250810190610ae99190612e80565b905060003073ffffffffffffffffffffffffffffffffffffffff1663fd301423836040518263ffffffff1660e01b8152600401610b2691906126d9565b602060405180830381865afa158015610b43573d6000803e3d6000fd5b505050506040513d601f19601f82011682018060405250810190610b679190612e80565b90506000811115610c78576000601060007f000000000000000000000000000000000000000000000000000000000000000073ffffffffffffffffffffffffffffffffffffffff1673ffffffffffffffffffffffffffffffffffffffff16815260200190815260200160002054905060008282610be49190612edc565b905083600f600060015481526020019081526020016000206000018190555082600f600060015481526020019081526020016000206001018190555080600f6000600154815260200190815260200160002060020181905550610c677f000000000000000000000000000000000000000000000000000000000000000083611fbb565b610c71848261202e565b5050610c96565b81600f60006001548152602001908152602001600020600001819055505b6000601060007f000000000000000000000000000000000000000000000000000000000000000073ffffffffffffffffffffffffffffffffffffffff1673ffffffffffffffffffffffffffffffffffffffff168152602001908152602001600020549050600061271060085483610d0d9190612f0d565b610d179190612edc565b9050610d437f000000000000000000000000000000000000000000000000000000000000000082611fbb565b610d4d33826121d0565b610d5682612243565b610d5e61231b565b610d666123ac565b4260028190555050505050565b60035481565b60015481565b60008054906101000a900473ffffffffffffffffffffffffffffffffffffffff1673ffffffffffffffffffffffffffffffffffffffff163373ffffffffffffffffffffffffffffffffffffffff1614610e0d576040517f08c379a0000000000000000000000000000000000000000000000000000000008152600401610e0490612c44565b60405180910390fd5b8060038190555050565b60065481565b60008054906101000a900473ffffffffffffffffffffffffffffffffffffffff1673ffffffffffffffffffffffffffffffffffffffff163373ffffffffffffffffffffffffffffffffffffffff1614610eab576040517f08c379a0000000000000000000000000000000000000000000000000000000008152600401610ea290612c44565b60405180910390fd5b8060098190555050565b80601060003373ffffffffffffffffffffffffffffffffffffffff1673ffffffffffffffffffffffffffffffffffffffff168152602001908152602001600020541015610f37576040517f08c379a0000000000000000000000000000000000000000000000000000000008152600401610f2e90612f9b565b60405180910390fd5b610f4133826123ce565b50565b7f000000000000000000000000000000000000000000000000000000000000000081565b6000601060007f000000000000000000000000000000000000000000000000000000000000000073ffffffffffffffffffffffffffffffffffffffff1673ffffffffffffffffffffffffffffffffffffffff16815260200190815260200160002054905090565b60045481565b60008054906101000a900473ffffffffffffffffffffffffffffffffffffffff1673ffffffffffffffffffffffffffffffffffffffff163373ffffffffffffffffffffffffffffffffffffffff1614611063576040517f08c379a000000000000000000000000000000000000000000000000000000000815260040161105a90612c44565b60405180910390fd5b80600a8190555050565b60008054906101000a900473ffffffffffffffffffffffffffffffffffffffff1673ffffffffffffffffffffffffffffffffffffffff163373ffffffffffffffffffffffffffffffffffffffff16146110fb576040517f08c379a00000000000000000000000000000000000000000000000000000000081526004016110f290612c44565b60405180910390fd5b8060078190555050565b60106020528060005260406000206000915090505481565b60008054906101000a900473ffffffffffffffffffffffffffffffffffffffff1673ffffffffffffffffffffffffffffffffffffffff163373ffffffffffffffffffffffffffffffffffffffff16146111ab576040517f08c379a00000000000000000000000000000000000000000000000000000000081526004016111a290612c44565b60405180910390fd5b80600b8190555050565b60025481565b60008054906101000a900473ffffffffffffffffffffffffffffffffffffffff1681565b600c5481565b6000838390501161122b576040517f08c379a000000000000000000000000000000000000000000000000000000000815260040161122290613007565b60405180910390fd5b6007838390501115611272576040517f08c379a000000000000000000000000000000000000000000000000000000000815260040161126990613099565b60405180910390fd5b3373ffffffffffffffffffffffffffffffffffffffff168173ffffffffffffffffffffffffffffffffffffffff16036112e0576040517f08c379a00000000000000000000000000000000000000000000000000000000081526004016112d79061312b565b60405180910390fd5b6000838390506003546112f39190612f0d565b90506000819050600073ffffffffffffffffffffffffffffffffffffffff16600d60003373ffffffffffffffffffffffffffffffffffffffff1673ffffffffffffffffffffffffffffffffffffffff16815260200190815260200160002060009054906101000a900473ffffffffffffffffffffffffffffffffffffffff1673ffffffffffffffffffffffffffffffffffffffff161480156113c25750600073ffffffffffffffffffffffffffffffffffffffff168373ffffffffffffffffffffffffffffffffffffffff1614155b156114465782600d60003373ffffffffffffffffffffffffffffffffffffffff1673ffffffffffffffffffffffffffffffffffffffff16815260200190815260200160002060006101000a81548173ffffffffffffffffffffffffffffffffffffffff021916908373ffffffffffffffffffffffffffffffffffffffff1602179055505b6000600d60003373ffffffffffffffffffffffffffffffffffffffff1673ffffffffffffffffffffffffffffffffffffffff16815260200190815260200160002060009054906101000a900473ffffffffffffffffffffffffffffffffffffffff1690506000600d60008373ffffffffffffffffffffffffffffffffffffffff1673ffffffffffffffffffffffffffffffffffffffff16815260200190815260200160002060009054906101000a900473ffffffffffffffffffffffffffffffffffffffff1690506000600d60008373ffffffffffffffffffffffffffffffffffffffff1673ffffffffffffffffffffffffffffffffffffffff16815260200190815260200160002060009054906101000a900473ffffffffffffffffffffffffffffffffffffffff1690506000612710600754876115859190612f0d565b61158f9190612edc565b9050808561159d9190612d39565b94506115c97f0000000000000000000000000000000000000000000000000000000000000000826121d0565b6115d2846124ea565b15611610576000612710600a54886115ea9190612f0d565b6115f49190612edc565b905080866116029190612d39565b955061160e85826121d0565b505b611619836124ea565b15611657576000612710600b54886116319190612f0d565b61163b9190612edc565b905080866116499190612d39565b955061165584826121d0565b505b611660826124ea565b1561169e576000612710600c54886116789190612f0d565b6116829190612edc565b905080866116909190612d39565b955061169c83826121d0565b505b6116c87f0000000000000000000000000000000000000000000000000000000000000000866121d0565b60005b898990508110156117a75760008a8a838181106116eb576116ea612c93565b5b90506020020135905060405180604001604052803373ffffffffffffffffffffffffffffffffffffffff16815260200182815250600e600084600554611731919061314b565b815260200190815260200160002060008201518160000160006101000a81548173ffffffffffffffffffffffffffffffffffffffff021916908373ffffffffffffffffffffffffffffffffffffffff1602179055506020820151816001015590505050808061179f90612cf1565b9150506116cb565b5088889050600560008282546117bd919061314b565b925050819055507f000000000000000000000000000000000000000000000000000000000000000073ffffffffffffffffffffffffffffffffffffffff166323b872dd3330896040518463ffffffff1660e01b81526004016118219392919061317f565b6020604051808303816000875af1158015611840573d6000803e3d6000fd5b505050506040513d601f19601f8201168201806040525081019061186491906131e2565b50505050505050505050565b60008054906101000a900473ffffffffffffffffffffffffffffffffffffffff1673ffffffffffffffffffffffffffffffffffffffff163373ffffffffffffffffffffffffffffffffffffffff16146118fe576040517f08c379a00000000000000000000000000000000000000000000000000000000081526004016118f590612c44565b60405180910390fd5b80600c8190555050565b6000600161047542443360405160200161192493929190613278565b6040516020818303038152906040528051906020012060001c61194791906132b5565b6119519190612d39565b905090565b60055481565b60095481565b600080600080600080600080600080601060007f000000000000000000000000000000000000000000000000000000000000000073ffffffffffffffffffffffffffffffffffffffff1673ffffffffffffffffffffffffffffffffffffffff1681526020019081526020016000205490506000601060007f000000000000000000000000000000000000000000000000000000000000000073ffffffffffffffffffffffffffffffffffffffff1673ffffffffffffffffffffffffffffffffffffffff168152602001908152602001600020549050600061271060085483611a4a9190612f0d565b611a549190612edc565b9050600061271060095484611a699190612f0d565b611a739190612edc565b9050600060045460025442611a889190612d39565b10158015611a9857506007600554115b905060025460015482600554600654898989899d509d509d509d509d509d509d509d509d505050505050909192939495969798565b600f6020528060005260406000206000915090508060000154908060010154908060020154905083565b600a5481565b600080600080600080600080600354600754600854600954600a54600b54600c54600454975097509750975097509750975097509091929394959697565b600d6020528060005260406000206000915054906101000a900473ffffffffffffffffffffffffffffffffffffffff1681565b6060600060055467ffffffffffffffff811115611b8e57611b8d612c64565b5b604051908082528060200260200182016040528015611bbc5781602001602082028036833780820191505090505b5090506000805b600554811015611c8e578473ffffffffffffffffffffffffffffffffffffffff16600e600083815260200190815260200160002060000160009054906101000a900473ffffffffffffffffffffffffffffffffffffffff1673ffffffffffffffffffffffffffffffffffffffff1603611c7b57600e600082815260200190815260200160002060010154838381518110611c6057611c5f612c93565b5b6020026020010181815250508180611c7790612cf1565b9250505b8080611c8690612cf1565b915050611bc3565b5060008167ffffffffffffffff811115611cab57611caa612c64565b5b604051908082528060200260200182016040528015611cd95781602001602082028036833780820191505090505b50905060005b82811015611d3457838181518110611cfa57611cf9612c93565b5b6020026020010151828281518110611d1557611d14612c93565b5b6020026020010181815250508080611d2c90612cf1565b915050611cdf565b50809350505050919050565b611d48612523565b600f600060018054611d5a9190612d39565b815260200190815260200160002060405180608001604052908160008201548152602001600182015481526020016002820154815260200160038201805480602002602001604051908101604052809291908181526020018280548015611e1657602002820191906000526020600020905b8160009054906101000a900473ffffffffffffffffffffffffffffffffffffffff1673ffffffffffffffffffffffffffffffffffffffff1681526020019060010190808311611dcc575b505050505081525050905090565b600b5481565b60075481565b60085481565b60008054906101000a900473ffffffffffffffffffffffffffffffffffffffff1673ffffffffffffffffffffffffffffffffffffffff163373ffffffffffffffffffffffffffffffffffffffff1614611ec4576040517f08c379a0000000000000000000000000000000000000000000000000000000008152600401611ebb90612c44565b60405180910390fd5b8060048190555050565b7f000000000000000000000000000000000000000000000000000000000000000081565b60008060005b600554811015611fb15783600e600083815260200190815260200160002060010154148015611f8a5750600073ffffffffffffffffffffffffffffffffffffffff16600e600083815260200190815260200160002060000160009054906101000a900473ffffffffffffffffffffffffffffffffffffffff1673ffffffffffffffffffffffffffffffffffffffff1614155b15611f9e578180611f9a90612cf1565b9250505b8080611fa990612cf1565b915050611ef8565b5080915050919050565b8060066000828254611fcd9190612d39565b9250508190555080601060008473ffffffffffffffffffffffffffffffffffffffff1673ffffffffffffffffffffffffffffffffffffffff16815260200190815260200160002060008282546120239190612d39565b925050819055505050565b60005b6005548110156121cb5782600e6000838152602001908152602001600020600101541480156120c35750600073ffffffffffffffffffffffffffffffffffffffff16600e600083815260200190815260200160002060000160009054906101000a900473ffffffffffffffffffffffffffffffffffffffff1673ffffffffffffffffffffffffffffffffffffffff1614155b156121b857600f60006001548152602001908152602001600020600301600e600083815260200190815260200160002060000160009054906101000a900473ffffffffffffffffffffffffffffffffffffffff169080600181540180825580915050600190039060005260206000200160009091909190916101000a81548173ffffffffffffffffffffffffffffffffffffffff021916908373ffffffffffffffffffffffffffffffffffffffff1602179055506121b7600e600083815260200190815260200160002060000160009054906101000a900473ffffffffffffffffffffffffffffffffffffffff16836121d0565b5b80806121c390612cf1565b915050612031565b505050565b80600660008282546121e2919061314b565b9250508190555080601060008473ffffffffffffffffffffffffffffffffffffffff1673ffffffffffffffffffffffffffffffffffffffff1681526020019081526020016000206000828254612238919061314b565b925050819055505050565b6000612710600954836122569190612f0d565b6122609190612edc565b905061228c7f000000000000000000000000000000000000000000000000000000000000000082611fbb565b7f000000000000000000000000000000000000000000000000000000000000000073ffffffffffffffffffffffffffffffffffffffff166342966c68826040518263ffffffff1660e01b81526004016122e591906126d9565b600060405180830381600087803b1580156122ff57600080fd5b505af1158015612313573d6000803e3d6000fd5b505050505050565b6000601060007f000000000000000000000000000000000000000000000000000000000000000073ffffffffffffffffffffffffffffffffffffffff1673ffffffffffffffffffffffffffffffffffffffff1681526020019081526020016000205490506123a97f0000000000000000000000000000000000000000000000000000000000000000826123ce565b50565b6000600581905550600160008154809291906123c790612cf1565b9190505550565b600073ffffffffffffffffffffffffffffffffffffffff168273ffffffffffffffffffffffffffffffffffffffff160361243d576040517f08c379a000000000000000000000000000000000000000000000000000000000815260040161243490613358565b60405180910390fd5b6124478282611fbb565b7f000000000000000000000000000000000000000000000000000000000000000073ffffffffffffffffffffffffffffffffffffffff1663a9059cbb83836040518363ffffffff1660e01b81526004016124a2929190613378565b6020604051808303816000875af11580156124c1573d6000803e3d6000fd5b505050506040513d601f19601f820116820180604052508101906124e591906131e2565b505050565b60008073ffffffffffffffffffffffffffffffffffffffff168273ffffffffffffffffffffffffffffffffffffffff1614159050919050565b6040518060800160405280600081526020016000815260200160008152602001606081525090565b600080fd5b600080fd5b6000819050919050565b61256881612555565b811461257357600080fd5b50565b6000813590506125858161255f565b92915050565b6000602082840312156125a1576125a061254b565b5b60006125af84828501612576565b91505092915050565b600081519050919050565b600082825260208201905092915050565b6000819050602082019050919050565b600073ffffffffffffffffffffffffffffffffffffffff82169050919050565b600061260f826125e4565b9050919050565b61261f81612604565b82525050565b60006126318383612616565b60208301905092915050565b6000602082019050919050565b6000612655826125b8565b61265f81856125c3565b935061266a836125d4565b8060005b8381101561269b5781516126828882612625565b975061268d8361263d565b92505060018101905061266e565b5085935050505092915050565b600060208201905081810360008301526126c2818461264a565b905092915050565b6126d381612555565b82525050565b60006020820190506126ee60008301846126ca565b92915050565b6126fd81612604565b82525050565b600060208201905061271860008301846126f4565b92915050565b61272781612604565b811461273257600080fd5b50565b6000813590506127448161271e565b92915050565b6000602082840312156127605761275f61254b565b5b600061276e84828501612735565b91505092915050565b600080fd5b600080fd5b600080fd5b60008083601f84011261279c5761279b612777565b5b8235905067ffffffffffffffff8111156127b9576127b861277c565b5b6020830191508360208202830111156127d5576127d4612781565b5b9250929050565b6000806000604084860312156127f5576127f461254b565b5b600084013567ffffffffffffffff81111561281357612812612550565b5b61281f86828701612786565b9350935050602061283286828701612735565b9150509250925092565b60008115159050919050565b6128518161283c565b82525050565b60006101208201905061286d600083018c6126ca565b61287a602083018b6126ca565b612887604083018a612848565b61289460608301896126ca565b6128a160808301886126ca565b6128ae60a08301876126ca565b6128bb60c08301866126ca565b6128c860e08301856126ca565b6128d66101008301846126ca565b9a9950505050505050505050565b60006060820190506128f960008301866126ca565b61290660208301856126ca565b61291360408301846126ca565b949350505050565b600061010082019050612931600083018b6126ca565b61293e602083018a6126ca565b61294b60408301896126ca565b61295860608301886126ca565b61296560808301876126ca565b61297260a08301866126ca565b61297f60c08301856126ca565b61298c60e08301846126ca565b9998505050505050505050565b600081519050919050565b600082825260208201905092915050565b6000819050602082019050919050565b6129ce81612555565b82525050565b60006129e083836129c5565b60208301905092915050565b6000602082019050919050565b6000612a0482612999565b612a0e81856129a4565b9350612a19836129b5565b8060005b83811015612a4a578151612a3188826129d4565b9750612a3c836129ec565b925050600181019050612a1d565b5085935050505092915050565b60006020820190508181036000830152612a7181846129f9565b905092915050565b600082825260208201905092915050565b6000612a95826125b8565b612a9f8185612a79565b9350612aaa836125d4565b8060005b83811015612adb578151612ac28882612625565b9750612acd8361263d565b925050600181019050612aae565b5085935050505092915050565b6000608083016000830151612b0060008601826129c5565b506020830151612b1360208601826129c5565b506040830151612b2660408601826129c5565b5060608301518482036060860152612b3e8282612a8a565b9150508091505092915050565b60006020820190508181036000830152612b658184612ae8565b905092915050565b6000819050919050565b6000612b92612b8d612b88846125e4565b612b6d565b6125e4565b9050919050565b6000612ba482612b77565b9050919050565b6000612bb682612b99565b9050919050565b612bc681612bab565b82525050565b6000602082019050612be16000830184612bbd565b92915050565b600082825260208201905092915050565b7f4c6f7474653a2063616c6c6572206973206e6f7420746865206f776e65720000600082015250565b6000612c2e601e83612be7565b9150612c3982612bf8565b602082019050919050565b60006020820190508181036000830152612c5d81612c21565b9050919050565b7f4e487b7100000000000000000000000000000000000000000000000000000000600052604160045260246000fd5b7f4e487b7100000000000000000000000000000000000000000000000000000000600052603260045260246000fd5b7f4e487b7100000000000000000000000000000000000000000000000000000000600052601160045260246000fd5b6000612cfc82612555565b91507fffffffffffffffffffffffffffffffffffffffffffffffffffffffffffffffff8203612d2e57612d2d612cc2565b5b600182019050919050565b6000612d4482612555565b9150612d4f83612555565b9250828203905081811115612d6757612d66612cc2565b5b92915050565b7f4c6f7474653a206e6f7420656e6f7567682074696d6520746f20647261770000600082015250565b6000612da3601e83612be7565b9150612dae82612d6d565b602082019050919050565b60006020820190508181036000830152612dd281612d96565b9050919050565b7f4c6f7474653a20746f74616c207469636b65742073686f756c64206265206d6f60008201527f7265207468616e20370000000000000000000000000000000000000000000000602082015250565b6000612e35602983612be7565b9150612e4082612dd9565b604082019050919050565b60006020820190508181036000830152612e6481612e28565b9050919050565b600081519050612e7a8161255f565b92915050565b600060208284031215612e9657612e9561254b565b5b6000612ea484828501612e6b565b91505092915050565b7f4e487b7100000000000000000000000000000000000000000000000000000000600052601260045260246000fd5b6000612ee782612555565b9150612ef283612555565b925082612f0257612f01612ead565b5b828204905092915050565b6000612f1882612555565b9150612f2383612555565b9250828202612f3181612555565b91508282048414831517612f4857612f47612cc2565b5b5092915050565b7f4c6f7474653a206e6f7420656e6f7567682062616c616e636500000000000000600082015250565b6000612f85601983612be7565b9150612f9082612f4f565b602082019050919050565b60006020820190508181036000830152612fb481612f78565b9050919050565b7f4c6f7474653a207469636b65742063616e6e6f7420626520656d707479000000600082015250565b6000612ff1601d83612be7565b9150612ffc82612fbb565b602082019050919050565b6000602082019050818103600083015261302081612fe4565b9050919050565b7f4c6f7474653a207469636b65742063616e6e6f74206265206d6f72652074686160008201527f6e20370000000000000000000000000000000000000000000000000000000000602082015250565b6000613083602383612be7565b915061308e82613027565b604082019050919050565b600060208201905081810360008301526130b281613076565b9050919050565b7f4c6f7474653a2072656665727265722063616e6e6f7420626520796f7572736560008201527f6c66000000000000000000000000000000000000000000000000000000000000602082015250565b6000613115602283612be7565b9150613120826130b9565b604082019050919050565b6000602082019050818103600083015261314481613108565b9050919050565b600061315682612555565b915061316183612555565b925082820190508082111561317957613178612cc2565b5b92915050565b600060608201905061319460008301866126f4565b6131a160208301856126f4565b6131ae60408301846126ca565b949350505050565b6131bf8161283c565b81146131ca57600080fd5b50565b6000815190506131dc816131b6565b92915050565b6000602082840312156131f8576131f761254b565b5b6000613206848285016131cd565b91505092915050565b6000819050919050565b61322a61322582612555565b61320f565b82525050565b60008160601b9050919050565b600061324882613230565b9050919050565b600061325a8261323d565b9050919050565b61327261326d82612604565b61324f565b82525050565b60006132848286613219565b6020820191506132948285613219565b6020820191506132a48284613261565b601482019150819050949350505050565b60006132c082612555565b91506132cb83612555565b9250826132db576132da612ead565b5b828206905092915050565b7f4c6f7474653a20616464726573732073686f756c64206e6f74206265207a657260008201527f6f00000000000000000000000000000000000000000000000000000000000000602082015250565b6000613342602183612be7565b915061334d826132e6565b604082019050919050565b6000602082019050818103600083015261337181613335565b9050919050565b600060408201905061338d60008301856126f4565b61339a60208301846126ca565b939250505056fea26469706673582212200fb7e074443d1ffc02bd6e13ba4f615b0ba484b9672c6ae0613bdf8dcaa7c4ea64736f6c63430008120033",
  "linkReferences": {},
  "deployedLinkReferences": {}
}