{
  "_format": "hh-sol-artifact-1",
  "contractName": "LfxAirdrop",
  "sourceName": "contracts/LfxAirdrop.sol",
  "abi": [
    {
      "inputs": [
        {
          "internalType": "address",
          "name": "_token",
          "type": "address"
        },
        {
          "internalType": "uint256",
          "name": "_maxParticipant",
          "type": "uint256"
        },
        {
          "internalType": "uint256",
          "name": "_maxTotalSupply",
          "type": "uint256"
        },
        {
          "internalType": "uint256",
          "name": "_minDepositAmount",
          "type": "uint256"
        },
        {
          "internalType": "uint256",
          "name": "_maxDepositAmount",
          "type": "uint256"
        }
      ],
      "stateMutability": "nonpayable",
      "type": "constructor"
    },
    {
      "anonymous": false,
      "inputs": [
        {
          "indexed": true,
          "internalType": "address",
          "name": "to",
          "type": "address"
        },
        {
          "indexed": false,
          "internalType": "uint256",
          "name": "amount",
          "type": "uint256"
        }
      ],
      "name": "Airdrop",
      "type": "event"
    },
    {
      "inputs": [
        {
          "internalType": "address",
          "name": "",
          "type": "address"
        }
      ],
      "name": "balanceOf",
      "outputs": [
        {
          "internalType": "uint256",
          "name": "",
          "type": "uint256"
        }
      ],
      "stateMutability": "view",
      "type": "function"
    },
    {
      "inputs": [],
      "name": "getInformation",
      "outputs": [
        {
          "internalType": "bool",
          "name": "",
          "type": "bool"
        },
        {
          "internalType": "uint256",
          "name": "",
          "type": "uint256"
        },
        {
          "internalType": "uint256",
          "name": "",
          "type": "uint256"
        },
        {
          "internalType": "uint256",
          "name": "",
          "type": "uint256"
        },
        {
          "internalType": "uint256",
          "name": "",
          "type": "uint256"
        },
        {
          "internalType": "uint256",
          "name": "",
          "type": "uint256"
        },
        {
          "internalType": "uint256",
          "name": "",
          "type": "uint256"
        },
        {
          "internalType": "uint256",
          "name": "",
          "type": "uint256"
        },
        {
          "internalType": "uint256",
          "name": "",
          "type": "uint256"
        }
      ],
      "stateMutability": "view",
      "type": "function"
    },
    {
      "inputs": [],
      "name": "initTimestamp",
      "outputs": [
        {
          "internalType": "uint256",
          "name": "",
          "type": "uint256"
        }
      ],
      "stateMutability": "view",
      "type": "function"
    },
    {
      "inputs": [],
      "name": "isWithdrawable",
      "outputs": [
        {
          "internalType": "bool",
          "name": "",
          "type": "bool"
        }
      ],
      "stateMutability": "view",
      "type": "function"
    },
    {
      "inputs": [],
      "name": "maxDepositAmount",
      "outputs": [
        {
          "internalType": "uint256",
          "name": "",
          "type": "uint256"
        }
      ],
      "stateMutability": "view",
      "type": "function"
    },
    {
      "inputs": [],
      "name": "maxParticipant",
      "outputs": [
        {
          "internalType": "uint256",
          "name": "",
          "type": "uint256"
        }
      ],
      "stateMutability": "view",
      "type": "function"
    },
    {
      "inputs": [],
      "name": "maxTotalSupply",
      "outputs": [
        {
          "internalType": "uint256",
          "name": "",
          "type": "uint256"
        }
      ],
      "stateMutability": "view",
      "type": "function"
    },
    {
      "inputs": [],
      "name": "minDepositAmount",
      "outputs": [
        {
          "internalType": "uint256",
          "name": "",
          "type": "uint256"
        }
      ],
      "stateMutability": "view",
      "type": "function"
    },
    {
      "inputs": [],
      "name": "owner",
      "outputs": [
        {
          "internalType": "address",
          "name": "",
          "type": "address"
        }
      ],
      "stateMutability": "view",
      "type": "function"
    },
    {
      "inputs": [],
      "name": "participantCount",
      "outputs": [
        {
          "internalType": "uint256",
          "name": "",
          "type": "uint256"
        }
      ],
      "stateMutability": "view",
      "type": "function"
    },
    {
      "inputs": [],
      "name": "token",
      "outputs": [
        {
          "internalType": "contract IERC20",
          "name": "",
          "type": "address"
        }
      ],
      "stateMutability": "view",
      "type": "function"
    },
    {
      "inputs": [],
      "name": "totalSupply",
      "outputs": [
        {
          "internalType": "uint256",
          "name": "",
          "type": "uint256"
        }
      ],
      "stateMutability": "view",
      "type": "function"
    },
    {
      "inputs": [],
      "name": "withdraw",
      "outputs": [],
      "stateMutability": "nonpayable",
      "type": "function"
    },
    {
      "stateMutability": "payable",
      "type": "receive"
    }
  ],
  "bytecode": "0x60a06040523480156200001157600080fd5b5060405162001480380380620014808339818101604052810190620000379190620001d8565b33600860006101000a81548173ffffffffffffffffffffffffffffffffffffffff021916908373ffffffffffffffffffffffffffffffffffffffff1602179055504260018190555060008060006101000a81548160ff0219169083151502179055508473ffffffffffffffffffffffffffffffffffffffff1660808173ffffffffffffffffffffffffffffffffffffffff168152505083600481905550670de0b6b3a764000083620000ea91906200028f565b600281905550670de0b6b3a7640000826200010691906200028f565b600681905550670de0b6b3a7640000816200012291906200028f565b6007819055505050505050620002da565b600080fd5b600073ffffffffffffffffffffffffffffffffffffffff82169050919050565b6000620001658262000138565b9050919050565b620001778162000158565b81146200018357600080fd5b50565b60008151905062000197816200016c565b92915050565b6000819050919050565b620001b2816200019d565b8114620001be57600080fd5b50565b600081519050620001d281620001a7565b92915050565b600080600080600060a08688031215620001f757620001f662000133565b5b6000620002078882890162000186565b95505060206200021a88828901620001c1565b94505060406200022d88828901620001c1565b93505060606200024088828901620001c1565b92505060806200025388828901620001c1565b9150509295509295909350565b7f4e487b7100000000000000000000000000000000000000000000000000000000600052601160045260246000fd5b60006200029c826200019d565b9150620002a9836200019d565b9250828202620002b9816200019d565b91508282048414831517620002d357620002d262000260565b5b5092915050565b6080516111756200030b60003960008181610634015281816106f7015281816108ba015261098001526111756000f3fe6080604052600436106100c65760003560e01c8063645006ca1161007f5780638da5cb5b116100595780638da5cb5b146103d75780638ed8327114610402578063c0da1e681461042d578063fc0c546a1461046057610251565b8063645006ca1461034457806370a082311461036f5780637358c57a146103ac57610251565b806318160ddd146102565780631e4f2479146102815780632ab4d052146102ac578063362f04c0146102d75780633ccfd60b146103025780634d840bcc1461031957610251565b36610251576000151560008054906101000a900460ff1615151461011f576040517f08c379a000000000000000000000000000000000000000000000000000000000815260040161011690610a98565b60405180910390fd5b6000600960003373ffffffffffffffffffffffffffffffffffffffff1673ffffffffffffffffffffffffffffffffffffffff16815260200190815260200160002054146101a1576040517f08c379a000000000000000000000000000000000000000000000000000000000815260040161019890610b2a565b60405180910390fd5b60065434101580156101b557506007543411155b6101f4576040517f08c379a00000000000000000000000000000000000000000000000000000000081526004016101eb90610bbc565b60405180910390fd5b6101fe333461048b565b6001600560008282546102119190610c15565b9250508190555060045460055410158061022f575060025460035410155b1561024f5760016000806101000a81548160ff0219169083151502179055505b005b600080fd5b34801561026257600080fd5b5061026b6104fe565b6040516102789190610c58565b60405180910390f35b34801561028d57600080fd5b50610296610504565b6040516102a39190610c58565b60405180910390f35b3480156102b857600080fd5b506102c161050a565b6040516102ce9190610c58565b60405180910390f35b3480156102e357600080fd5b506102ec610510565b6040516102f99190610c58565b60405180910390f35b34801561030e57600080fd5b50610317610516565b005b34801561032557600080fd5b5061032e610834565b60405161033b9190610c8e565b60405180910390f35b34801561035057600080fd5b50610359610845565b6040516103669190610c58565b60405180910390f35b34801561037b57600080fd5b5061039660048036038101906103919190610d0c565b61084b565b6040516103a39190610c58565b60405180910390f35b3480156103b857600080fd5b506103c1610863565b6040516103ce9190610c58565b60405180910390f35b3480156103e357600080fd5b506103ec610869565b6040516103f99190610d48565b60405180910390f35b34801561040e57600080fd5b5061041761088f565b6040516104249190610c58565b60405180910390f35b34801561043957600080fd5b50610442610895565b60405161045799989796959493929190610d63565b60405180910390f35b34801561046c57600080fd5b5061047561097e565b6040516104829190610e4f565b60405180910390f35b806003600082825461049d9190610c15565b9250508190555080600960008473ffffffffffffffffffffffffffffffffffffffff1673ffffffffffffffffffffffffffffffffffffffff16815260200190815260200160002060008282546104f39190610c15565b925050819055505050565b60035481565b60045481565b60025481565b60055481565b6001151560008054906101000a900460ff1615151461056a576040517f08c379a000000000000000000000000000000000000000000000000000000000815260040161056190610edc565b60405180910390fd5b6000600960003373ffffffffffffffffffffffffffffffffffffffff1673ffffffffffffffffffffffffffffffffffffffff16815260200190815260200160002054116105ec576040517f08c379a00000000000000000000000000000000000000000000000000000000081526004016105e390610f6e565b60405180910390fd5b6000600960003373ffffffffffffffffffffffffffffffffffffffff1673ffffffffffffffffffffffffffffffffffffffff16815260200190815260200160002054905060007f000000000000000000000000000000000000000000000000000000000000000073ffffffffffffffffffffffffffffffffffffffff166370a08231306040518263ffffffff1660e01b815260040161068b9190610d48565b602060405180830381865afa1580156106a8573d6000803e3d6000fd5b505050506040513d601f19601f820116820180604052508101906106cc9190610fba565b9050600060035482846106df9190610fe7565b6106e99190611058565b90506106f533846109a2565b7f000000000000000000000000000000000000000000000000000000000000000073ffffffffffffffffffffffffffffffffffffffff1663a9059cbb33836040518363ffffffff1660e01b8152600401610750929190611089565b6020604051808303816000875af115801561076f573d6000803e3d6000fd5b505050506040513d601f19601f8201168201806040525081019061079391906110de565b503373ffffffffffffffffffffffffffffffffffffffff167f8c32c568416fcf97be35ce5b27844cfddcd63a67a1a602c3595ba5dac38f303a826040516107da9190610c58565b60405180910390a260003390508073ffffffffffffffffffffffffffffffffffffffff166108fc859081150290604051600060405180830381858888f1935050505015801561082d573d6000803e3d6000fd5b5050505050565b60008054906101000a900460ff1681565b60065481565b60096020528060005260406000206000915090505481565b60015481565b600860009054906101000a900473ffffffffffffffffffffffffffffffffffffffff1681565b60075481565b60008060008060008060008060008060009054906101000a900460ff166005546003547f000000000000000000000000000000000000000000000000000000000000000073ffffffffffffffffffffffffffffffffffffffff166370a08231306040518263ffffffff1660e01b81526004016109119190610d48565b602060405180830381865afa15801561092e573d6000803e3d6000fd5b505050506040513d601f19601f820116820180604052508101906109529190610fba565b600454600254600654600754600154985098509850985098509850985098509850909192939495969798565b7f000000000000000000000000000000000000000000000000000000000000000081565b80600360008282546109b4919061110b565b9250508190555080600960008473ffffffffffffffffffffffffffffffffffffffff1673ffffffffffffffffffffffffffffffffffffffff1681526020019081526020016000206000828254610a0a919061110b565b925050819055505050565b600082825260208201905092915050565b7f4c667841697264726f703a205468652061697264726f7020697320616c72656160008201527f64792066696e6973686564000000000000000000000000000000000000000000602082015250565b6000610a82602b83610a15565b9150610a8d82610a26565b604082019050919050565b60006020820190508181036000830152610ab181610a75565b9050919050565b7f4c667841697264726f703a20596f75206861766520616c72656164792064657060008201527f6f73697465640000000000000000000000000000000000000000000000000000602082015250565b6000610b14602683610a15565b9150610b1f82610ab8565b604082019050919050565b60006020820190508181036000830152610b4381610b07565b9050919050565b7f4c667841697264726f703a2056616c7565206d75737420626520696e2072616e60008201527f6765000000000000000000000000000000000000000000000000000000000000602082015250565b6000610ba6602283610a15565b9150610bb182610b4a565b604082019050919050565b60006020820190508181036000830152610bd581610b99565b9050919050565b6000819050919050565b7f4e487b7100000000000000000000000000000000000000000000000000000000600052601160045260246000fd5b6000610c2082610bdc565b9150610c2b83610bdc565b9250828201905080821115610c4357610c42610be6565b5b92915050565b610c5281610bdc565b82525050565b6000602082019050610c6d6000830184610c49565b92915050565b60008115159050919050565b610c8881610c73565b82525050565b6000602082019050610ca36000830184610c7f565b92915050565b600080fd5b600073ffffffffffffffffffffffffffffffffffffffff82169050919050565b6000610cd982610cae565b9050919050565b610ce981610cce565b8114610cf457600080fd5b50565b600081359050610d0681610ce0565b92915050565b600060208284031215610d2257610d21610ca9565b5b6000610d3084828501610cf7565b91505092915050565b610d4281610cce565b82525050565b6000602082019050610d5d6000830184610d39565b92915050565b600061012082019050610d79600083018c610c7f565b610d86602083018b610c49565b610d93604083018a610c49565b610da06060830189610c49565b610dad6080830188610c49565b610dba60a0830187610c49565b610dc760c0830186610c49565b610dd460e0830185610c49565b610de2610100830184610c49565b9a9950505050505050505050565b6000819050919050565b6000610e15610e10610e0b84610cae565b610df0565b610cae565b9050919050565b6000610e2782610dfa565b9050919050565b6000610e3982610e1c565b9050919050565b610e4981610e2e565b82525050565b6000602082019050610e646000830184610e40565b92915050565b7f4c667841697264726f703a205468652061697264726f70206973206e6f74206660008201527f696e697368656420796574000000000000000000000000000000000000000000602082015250565b6000610ec6602b83610a15565b9150610ed182610e6a565b604082019050919050565b60006020820190508181036000830152610ef581610eb9565b9050919050565b7f4c667841697264726f703a20596f752068617665206e6f2062616c616e63652060008201527f746f207769746864726177000000000000000000000000000000000000000000602082015250565b6000610f58602b83610a15565b9150610f6382610efc565b604082019050919050565b60006020820190508181036000830152610f8781610f4b565b9050919050565b610f9781610bdc565b8114610fa257600080fd5b50565b600081519050610fb481610f8e565b92915050565b600060208284031215610fd057610fcf610ca9565b5b6000610fde84828501610fa5565b91505092915050565b6000610ff282610bdc565b9150610ffd83610bdc565b925082820261100b81610bdc565b9150828204841483151761102257611021610be6565b5b5092915050565b7f4e487b7100000000000000000000000000000000000000000000000000000000600052601260045260246000fd5b600061106382610bdc565b915061106e83610bdc565b92508261107e5761107d611029565b5b828204905092915050565b600060408201905061109e6000830185610d39565b6110ab6020830184610c49565b9392505050565b6110bb81610c73565b81146110c657600080fd5b50565b6000815190506110d8816110b2565b92915050565b6000602082840312156110f4576110f3610ca9565b5b6000611102848285016110c9565b91505092915050565b600061111682610bdc565b915061112183610bdc565b925082820390508181111561113957611138610be6565b5b9291505056fea26469706673582212201bba4e203d84457939e716aa7bd4bdd16646c1545b9c36f9156fbf85ab21b77d64736f6c63430008120033",
  "linkReferences": {},
  "deployedLinkReferences": {}
}