{
  "_format": "hh-sol-artifact-1",
  "contractName": "DezMM",
  "sourceName": "contracts/DezMM.sol",
  "abi": [
    {
      "inputs": [
        {
          "internalType": "address",
          "name": "_dez",
          "type": "address"
        },
        {
          "internalType": "address",
          "name": "_refs",
          "type": "address"
        },
        {
          "internalType": "address",
          "name": "_vaultAddress",
          "type": "address"
        },
        {
          "internalType": "uint256",
          "name": "_finalizeTs",
          "type": "uint256"
        }
      ],
      "stateMutability": "nonpayable",
      "type": "constructor"
    },
    {
      "anonymous": false,
      "inputs": [
        {
          "indexed": true,
          "internalType": "address",
          "name": "spender",
          "type": "address"
        },
        {
          "indexed": false,
          "internalType": "uint256",
          "name": "amount",
          "type": "uint256"
        }
      ],
      "name": "BetOnMark",
      "type": "event"
    },
    {
      "anonymous": false,
      "inputs": [
        {
          "indexed": true,
          "internalType": "address",
          "name": "spender",
          "type": "address"
        },
        {
          "indexed": false,
          "internalType": "uint256",
          "name": "amount",
          "type": "uint256"
        }
      ],
      "name": "BetOnMusk",
      "type": "event"
    },
    {
      "inputs": [
        {
          "internalType": "uint256",
          "name": "_amount",
          "type": "uint256"
        },
        {
          "internalType": "address",
          "name": "refAddress",
          "type": "address"
        }
      ],
      "name": "betOnMark",
      "outputs": [],
      "stateMutability": "nonpayable",
      "type": "function"
    },
    {
      "inputs": [
        {
          "internalType": "uint256",
          "name": "_amount",
          "type": "uint256"
        },
        {
          "internalType": "address",
          "name": "refAddress",
          "type": "address"
        }
      ],
      "name": "betOnMusk",
      "outputs": [],
      "stateMutability": "nonpayable",
      "type": "function"
    },
    {
      "inputs": [],
      "name": "dez",
      "outputs": [
        {
          "internalType": "contract IERC20",
          "name": "",
          "type": "address"
        }
      ],
      "stateMutability": "view",
      "type": "function"
    },
    {
      "inputs": [],
      "name": "finalizeTs",
      "outputs": [
        {
          "internalType": "uint256",
          "name": "",
          "type": "uint256"
        }
      ],
      "stateMutability": "view",
      "type": "function"
    },
    {
      "inputs": [
        {
          "internalType": "address",
          "name": "sender",
          "type": "address"
        }
      ],
      "name": "getPrize",
      "outputs": [
        {
          "internalType": "uint256",
          "name": "",
          "type": "uint256"
        }
      ],
      "stateMutability": "view",
      "type": "function"
    },
    {
      "inputs": [],
      "name": "initialTs",
      "outputs": [
        {
          "internalType": "uint256",
          "name": "",
          "type": "uint256"
        }
      ],
      "stateMutability": "view",
      "type": "function"
    },
    {
      "inputs": [],
      "name": "owner",
      "outputs": [
        {
          "internalType": "address",
          "name": "",
          "type": "address"
        }
      ],
      "stateMutability": "view",
      "type": "function"
    },
    {
      "inputs": [],
      "name": "refs",
      "outputs": [
        {
          "internalType": "contract DezRefs",
          "name": "",
          "type": "address"
        }
      ],
      "stateMutability": "view",
      "type": "function"
    },
    {
      "inputs": [
        {
          "internalType": "uint256",
          "name": "_finalizeTs",
          "type": "uint256"
        }
      ],
      "name": "setFinalizeTs",
      "outputs": [],
      "stateMutability": "nonpayable",
      "type": "function"
    },
    {
      "inputs": [
        {
          "internalType": "uint256",
          "name": "_systemBurnRate",
          "type": "uint256"
        }
      ],
      "name": "setSystemBurnRate",
      "outputs": [],
      "stateMutability": "nonpayable",
      "type": "function"
    },
    {
      "inputs": [
        {
          "internalType": "uint256",
          "name": "_systemFeeRate",
          "type": "uint256"
        }
      ],
      "name": "setSystemFeeRate",
      "outputs": [],
      "stateMutability": "nonpayable",
      "type": "function"
    },
    {
      "inputs": [
        {
          "internalType": "uint256",
          "name": "_winner",
          "type": "uint256"
        }
      ],
      "name": "setWinner",
      "outputs": [],
      "stateMutability": "nonpayable",
      "type": "function"
    },
    {
      "inputs": [],
      "name": "systemBurnRate",
      "outputs": [
        {
          "internalType": "uint256",
          "name": "",
          "type": "uint256"
        }
      ],
      "stateMutability": "view",
      "type": "function"
    },
    {
      "inputs": [],
      "name": "systemFeeRate",
      "outputs": [
        {
          "internalType": "uint256",
          "name": "",
          "type": "uint256"
        }
      ],
      "stateMutability": "view",
      "type": "function"
    },
    {
      "inputs": [
        {
          "internalType": "address",
          "name": "",
          "type": "address"
        }
      ],
      "name": "teamMark",
      "outputs": [
        {
          "internalType": "uint256",
          "name": "",
          "type": "uint256"
        }
      ],
      "stateMutability": "view",
      "type": "function"
    },
    {
      "inputs": [
        {
          "internalType": "address",
          "name": "",
          "type": "address"
        }
      ],
      "name": "teamMusk",
      "outputs": [
        {
          "internalType": "uint256",
          "name": "",
          "type": "uint256"
        }
      ],
      "stateMutability": "view",
      "type": "function"
    },
    {
      "inputs": [],
      "name": "totalMark",
      "outputs": [
        {
          "internalType": "uint256",
          "name": "",
          "type": "uint256"
        }
      ],
      "stateMutability": "view",
      "type": "function"
    },
    {
      "inputs": [],
      "name": "totalMusk",
      "outputs": [
        {
          "internalType": "uint256",
          "name": "",
          "type": "uint256"
        }
      ],
      "stateMutability": "view",
      "type": "function"
    },
    {
      "inputs": [],
      "name": "vaultAddress",
      "outputs": [
        {
          "internalType": "address",
          "name": "",
          "type": "address"
        }
      ],
      "stateMutability": "view",
      "type": "function"
    },
    {
      "inputs": [],
      "name": "winner",
      "outputs": [
        {
          "internalType": "uint256",
          "name": "",
          "type": "uint256"
        }
      ],
      "stateMutability": "view",
      "type": "function"
    },
    {
      "inputs": [],
      "name": "withdraw",
      "outputs": [],
      "stateMutability": "nonpayable",
      "type": "function"
    }
  ],
  "bytecode": "0x60c060405260c860075560c86008553480156200001b57600080fd5b5060405162002c3f38038062002c3f8339818101604052810190620000419190620001e7565b336000806101000a81548173ffffffffffffffffffffffffffffffffffffffff021916908373ffffffffffffffffffffffffffffffffffffffff16021790555042600281905550806003819055508373ffffffffffffffffffffffffffffffffffffffff1660808173ffffffffffffffffffffffffffffffffffffffff168152505082600160006101000a81548173ffffffffffffffffffffffffffffffffffffffff021916908373ffffffffffffffffffffffffffffffffffffffff1602179055508173ffffffffffffffffffffffffffffffffffffffff1660a08173ffffffffffffffffffffffffffffffffffffffff16815250505050505062000259565b600080fd5b600073ffffffffffffffffffffffffffffffffffffffff82169050919050565b6000620001748262000147565b9050919050565b620001868162000167565b81146200019257600080fd5b50565b600081519050620001a6816200017b565b92915050565b6000819050919050565b620001c181620001ac565b8114620001cd57600080fd5b50565b600081519050620001e181620001b6565b92915050565b6000806000806080858703121562000204576200020362000142565b5b6000620002148782880162000195565b9450506020620002278782880162000195565b93505060406200023a8782880162000195565b92505060606200024d87828801620001d0565b91505092959194509250565b60805160a051612957620002e8600039600081816106950152610bf50152600081816104ed015281816105ce01528181610659015281816107e001528181610a9801528181610b4f01528181610f89015281816110ad015281816111d10152818161129601528181611570015281816118450152818161196901528181611a8d0152611b5201526129576000f3fe608060405234801561001057600080fd5b50600436106101375760003560e01c8063a9931350116100b8578063dfbf53ae1161007c578063dfbf53ae14610304578063e3cf916314610322578063e80f2fb214610340578063edb144891461035e578063f59a2d121461038e578063fddd4b74146103ac57610137565b8063a993135014610272578063ad8ddc0d14610290578063bc25a391146102ae578063c2202586146102cc578063c86606e3146102e857610137565b80636038bb5a116100ff5780636038bb5a146101cc578063741c6b49146101ea5780638a3b3cc7146102065780638da5cb5b14610236578063a02f98581461025457610137565b80630df716021461013c5780632d5cd1d6146101585780633ccfd60b14610188578063430bf08a146101925780635c97b6e1146101b0575b600080fd5b61015660048036038101906101519190611e43565b6103c8565b005b610172600480360381019061016d9190611ece565b61071c565b60405161017f9190611f0a565b60405180910390f35b6101906108a2565b005b61019a610bf3565b6040516101a79190611f34565b60405180910390f35b6101ca60048036038101906101c59190611e43565b610c17565b005b6101d4610cf4565b6040516101e19190611f0a565b60405180910390f35b61020460048036038101906101ff9190611f4f565b610cfa565b005b610220600480360381019061021b9190611ece565b61133d565b60405161022d9190611f0a565b60405180910390f35b61023e611355565b60405161024b9190611f34565b60405180910390f35b61025c611379565b6040516102699190611fee565b60405180910390f35b61027a61139f565b6040516102879190611f0a565b60405180910390f35b6102986113a5565b6040516102a59190611f0a565b60405180910390f35b6102b66113ab565b6040516102c39190611f0a565b60405180910390f35b6102e660048036038101906102e19190611e43565b6113b1565b005b61030260048036038101906102fd9190611e43565b61148e565b005b61030c611568565b6040516103199190611f0a565b60405180910390f35b61032a61156e565b604051610337919061202a565b60405180910390f35b610348611592565b6040516103559190611f0a565b60405180910390f35b61037860048036038101906103739190611ece565b611598565b6040516103859190611f0a565b60405180910390f35b6103966115b0565b6040516103a39190611f0a565b60405180910390f35b6103c660048036038101906103c19190611f4f565b6115b6565b005b60008054906101000a900473ffffffffffffffffffffffffffffffffffffffff1673ffffffffffffffffffffffffffffffffffffffff163373ffffffffffffffffffffffffffffffffffffffff1614610456576040517f08c379a000000000000000000000000000000000000000000000000000000000815260040161044d906120a2565b60405180910390fd5b60006006541461049b576040517f08c379a00000000000000000000000000000000000000000000000000000000081526004016104929061210e565b60405180910390fd5b60018114806104aa5750600281145b6104e9576040517f08c379a00000000000000000000000000000000000000000000000000000000081526004016104e09061217a565b60405180910390fd5b60007f000000000000000000000000000000000000000000000000000000000000000073ffffffffffffffffffffffffffffffffffffffff166370a08231306040518263ffffffff1660e01b81526004016105449190611f34565b602060405180830381865afa158015610561573d6000803e3d6000fd5b505050506040513d601f19601f8201168201806040525081019061058591906121af565b905060006127106007548361059a919061220b565b6105a4919061227c565b90506000612710600854846105b9919061220b565b6105c3919061227c565b9050836006819055507f000000000000000000000000000000000000000000000000000000000000000073ffffffffffffffffffffffffffffffffffffffff166342966c68826040518263ffffffff1660e01b81526004016106259190611f0a565b600060405180830381600087803b15801561063f57600080fd5b505af1158015610653573d6000803e3d6000fd5b505050507f000000000000000000000000000000000000000000000000000000000000000073ffffffffffffffffffffffffffffffffffffffff1663a9059cbb7f0000000000000000000000000000000000000000000000000000000000000000846040518363ffffffff1660e01b81526004016106d29291906122ad565b6020604051808303816000875af11580156106f1573d6000803e3d6000fd5b505050506040513d601f19601f82011682018060405250810190610715919061230e565b5050505050565b60008060065403610730576000905061089d565b60008060016006540361078957600960008573ffffffffffffffffffffffffffffffffffffffff1673ffffffffffffffffffffffffffffffffffffffff16815260200190815260200160002054915060045490506107dc565b6002600654036107db57600a60008573ffffffffffffffffffffffffffffffffffffffff1673ffffffffffffffffffffffffffffffffffffffff16815260200190815260200160002054915060055490505b5b60007f000000000000000000000000000000000000000000000000000000000000000073ffffffffffffffffffffffffffffffffffffffff166370a08231306040518263ffffffff1660e01b81526004016108379190611f34565b602060405180830381865afa158015610854573d6000803e3d6000fd5b505050506040513d601f19601f8201168201806040525081019061087891906121af565b90506000828285610889919061220b565b610893919061227c565b9050809450505050505b919050565b60003390506000600654036108ec576040517f08c379a00000000000000000000000000000000000000000000000000000000081526004016108e390612387565b60405180910390fd5b6000600960008373ffffffffffffffffffffffffffffffffffffffff1673ffffffffffffffffffffffffffffffffffffffff1681526020019081526020016000205411801561093d57506001600654145b8061099557506000600a60008373ffffffffffffffffffffffffffffffffffffffff1673ffffffffffffffffffffffffffffffffffffffff1681526020019081526020016000205411801561099457506002600654145b5b6109d4576040517f08c379a00000000000000000000000000000000000000000000000000000000081526004016109cb906123f3565b60405180910390fd5b600080600160065403610a3757600960008473ffffffffffffffffffffffffffffffffffffffff1673ffffffffffffffffffffffffffffffffffffffff1681526020019081526020016000205491506004549050610a328383611bf9565b610a94565b600260065403610a9357600a60008473ffffffffffffffffffffffffffffffffffffffff1673ffffffffffffffffffffffffffffffffffffffff1681526020019081526020016000205491506005549050610a928383611c6c565b5b5b60007f000000000000000000000000000000000000000000000000000000000000000073ffffffffffffffffffffffffffffffffffffffff166370a08231306040518263ffffffff1660e01b8152600401610aef9190611f34565b602060405180830381865afa158015610b0c573d6000803e3d6000fd5b505050506040513d601f19601f82011682018060405250810190610b3091906121af565b90506000828285610b41919061220b565b610b4b919061227c565b90507f000000000000000000000000000000000000000000000000000000000000000073ffffffffffffffffffffffffffffffffffffffff1663a9059cbb86836040518363ffffffff1660e01b8152600401610ba89291906122ad565b6020604051808303816000875af1158015610bc7573d6000803e3d6000fd5b505050506040513d601f19601f82011682018060405250810190610beb919061230e565b505050505050565b7f000000000000000000000000000000000000000000000000000000000000000081565b60008054906101000a900473ffffffffffffffffffffffffffffffffffffffff1673ffffffffffffffffffffffffffffffffffffffff163373ffffffffffffffffffffffffffffffffffffffff1614610ca5576040517f08c379a0000000000000000000000000000000000000000000000000000000008152600401610c9c906120a2565b60405180910390fd5b612710811115610cea576040517f08c379a0000000000000000000000000000000000000000000000000000000008152600401610ce19061245f565b60405180910390fd5b8060078190555050565b60055481565b6003544210610d3e576040517f08c379a0000000000000000000000000000000000000000000000000000000008152600401610d35906124cb565b60405180910390fd5b60003390506000839050600160009054906101000a900473ffffffffffffffffffffffffffffffffffffffff1673ffffffffffffffffffffffffffffffffffffffff16632a267e1933856040518363ffffffff1660e01b8152600401610da59291906124eb565b6020604051808303816000875af1158015610dc4573d6000803e3d6000fd5b505050506040513d601f19601f82011682018060405250810190610de8919061230e565b506000600160009054906101000a900473ffffffffffffffffffffffffffffffffffffffff1673ffffffffffffffffffffffffffffffffffffffff16634fd79488846040518263ffffffff1660e01b8152600401610e469190611f34565b606060405180830381865afa158015610e63573d6000803e3d6000fd5b505050506040513d601f19601f82011682018060405250810190610e879190612670565b90506000600160009054906101000a900473ffffffffffffffffffffffffffffffffffffffff1673ffffffffffffffffffffffffffffffffffffffff16639a5a127c6040518163ffffffff1660e01b8152600401606060405180830381865afa158015610ef8573d6000803e3d6000fd5b505050506040513d601f19601f82011682018060405250810190610f1c919061274e565b9050610f3f82600060038110610f3557610f3461277b565b5b6020020151611cdf565b1561104257600061271082600060038110610f5d57610f5c61277b565b5b602002015188610f6d919061220b565b610f77919061227c565b90508084610f8591906127aa565b93507f000000000000000000000000000000000000000000000000000000000000000073ffffffffffffffffffffffffffffffffffffffff166323b872dd8685600060038110610fd857610fd761277b565b5b6020020151846040518463ffffffff1660e01b8152600401610ffc939291906127de565b6020604051808303816000875af115801561101b573d6000803e3d6000fd5b505050506040513d601f19601f8201168201806040525081019061103f919061230e565b50505b611063826001600381106110595761105861277b565b5b6020020151611cdf565b15611166576000612710826001600381106110815761108061277b565b5b602002015188611091919061220b565b61109b919061227c565b905080846110a991906127aa565b93507f000000000000000000000000000000000000000000000000000000000000000073ffffffffffffffffffffffffffffffffffffffff166323b872dd86856001600381106110fc576110fb61277b565b5b6020020151846040518463ffffffff1660e01b8152600401611120939291906127de565b6020604051808303816000875af115801561113f573d6000803e3d6000fd5b505050506040513d601f19601f82011682018060405250810190611163919061230e565b50505b6111878260026003811061117d5761117c61277b565b5b6020020151611cdf565b1561128a576000612710826002600381106111a5576111a461277b565b5b6020020151886111b5919061220b565b6111bf919061227c565b905080846111cd91906127aa565b93507f000000000000000000000000000000000000000000000000000000000000000073ffffffffffffffffffffffffffffffffffffffff166323b872dd86856002600381106112205761121f61277b565b5b6020020151846040518463ffffffff1660e01b8152600401611244939291906127de565b6020604051808303816000875af1158015611263573d6000803e3d6000fd5b505050506040513d601f19601f82011682018060405250810190611287919061230e565b50505b6112948487611d18565b7f000000000000000000000000000000000000000000000000000000000000000073ffffffffffffffffffffffffffffffffffffffff166323b872dd8530866040518463ffffffff1660e01b81526004016112f1939291906127de565b6020604051808303816000875af1158015611310573d6000803e3d6000fd5b505050506040513d601f19601f82011682018060405250810190611334919061230e565b50505050505050565b600a6020528060005260406000206000915090505481565b60008054906101000a900473ffffffffffffffffffffffffffffffffffffffff1681565b600160009054906101000a900473ffffffffffffffffffffffffffffffffffffffff1681565b60085481565b60025481565b60045481565b60008054906101000a900473ffffffffffffffffffffffffffffffffffffffff1673ffffffffffffffffffffffffffffffffffffffff163373ffffffffffffffffffffffffffffffffffffffff161461143f576040517f08c379a0000000000000000000000000000000000000000000000000000000008152600401611436906120a2565b60405180910390fd5b612710811115611484576040517f08c379a000000000000000000000000000000000000000000000000000000000815260040161147b90612861565b60405180910390fd5b8060088190555050565b60008054906101000a900473ffffffffffffffffffffffffffffffffffffffff1673ffffffffffffffffffffffffffffffffffffffff163373ffffffffffffffffffffffffffffffffffffffff161461151c576040517f08c379a0000000000000000000000000000000000000000000000000000000008152600401611513906120a2565b60405180910390fd5b80421061155e576040517f08c379a0000000000000000000000000000000000000000000000000000000008152600401611555906128cd565b60405180910390fd5b8060038190555050565b60065481565b7f000000000000000000000000000000000000000000000000000000000000000081565b60075481565b60096020528060005260406000206000915090505481565b60035481565b60035442106115fa576040517f08c379a00000000000000000000000000000000000000000000000000000000081526004016115f1906124cb565b60405180910390fd5b60003390506000839050600160009054906101000a900473ffffffffffffffffffffffffffffffffffffffff1673ffffffffffffffffffffffffffffffffffffffff16632a267e1933856040518363ffffffff1660e01b81526004016116619291906124eb565b6020604051808303816000875af1158015611680573d6000803e3d6000fd5b505050506040513d601f19601f820116820180604052508101906116a4919061230e565b506000600160009054906101000a900473ffffffffffffffffffffffffffffffffffffffff1673ffffffffffffffffffffffffffffffffffffffff16634fd79488846040518263ffffffff1660e01b81526004016117029190611f34565b606060405180830381865afa15801561171f573d6000803e3d6000fd5b505050506040513d601f19601f820116820180604052508101906117439190612670565b90506000600160009054906101000a900473ffffffffffffffffffffffffffffffffffffffff1673ffffffffffffffffffffffffffffffffffffffff16639a5a127c6040518163ffffffff1660e01b8152600401606060405180830381865afa1580156117b4573d6000803e3d6000fd5b505050506040513d601f19601f820116820180604052508101906117d8919061274e565b90506117fb826000600381106117f1576117f061277b565b5b6020020151611cdf565b156118fe576000612710826000600381106118195761181861277b565b5b602002015188611829919061220b565b611833919061227c565b9050808461184191906127aa565b93507f000000000000000000000000000000000000000000000000000000000000000073ffffffffffffffffffffffffffffffffffffffff166323b872dd86856000600381106118945761189361277b565b5b6020020151846040518463ffffffff1660e01b81526004016118b8939291906127de565b6020604051808303816000875af11580156118d7573d6000803e3d6000fd5b505050506040513d601f19601f820116820180604052508101906118fb919061230e565b50505b61191f826001600381106119155761191461277b565b5b6020020151611cdf565b15611a225760006127108260016003811061193d5761193c61277b565b5b60200201518861194d919061220b565b611957919061227c565b9050808461196591906127aa565b93507f000000000000000000000000000000000000000000000000000000000000000073ffffffffffffffffffffffffffffffffffffffff166323b872dd86856001600381106119b8576119b761277b565b5b6020020151846040518463ffffffff1660e01b81526004016119dc939291906127de565b6020604051808303816000875af11580156119fb573d6000803e3d6000fd5b505050506040513d601f19601f82011682018060405250810190611a1f919061230e565b50505b611a4382600260038110611a3957611a3861277b565b5b6020020151611cdf565b15611b4657600061271082600260038110611a6157611a6061277b565b5b602002015188611a71919061220b565b611a7b919061227c565b90508084611a8991906127aa565b93507f000000000000000000000000000000000000000000000000000000000000000073ffffffffffffffffffffffffffffffffffffffff166323b872dd8685600260038110611adc57611adb61277b565b5b6020020151846040518463ffffffff1660e01b8152600401611b00939291906127de565b6020604051808303816000875af1158015611b1f573d6000803e3d6000fd5b505050506040513d601f19601f82011682018060405250810190611b43919061230e565b50505b611b508487611d8b565b7f000000000000000000000000000000000000000000000000000000000000000073ffffffffffffffffffffffffffffffffffffffff166323b872dd8530866040518463ffffffff1660e01b8152600401611bad939291906127de565b6020604051808303816000875af1158015611bcc573d6000803e3d6000fd5b505050506040513d601f19601f82011682018060405250810190611bf0919061230e565b50505050505050565b8060046000828254611c0b91906127aa565b9250508190555080600960008473ffffffffffffffffffffffffffffffffffffffff1673ffffffffffffffffffffffffffffffffffffffff1681526020019081526020016000206000828254611c6191906127aa565b925050819055505050565b8060056000828254611c7e91906127aa565b9250508190555080600a60008473ffffffffffffffffffffffffffffffffffffffff1673ffffffffffffffffffffffffffffffffffffffff1681526020019081526020016000206000828254611cd491906127aa565b925050819055505050565b60008073ffffffffffffffffffffffffffffffffffffffff168273ffffffffffffffffffffffffffffffffffffffff1614159050919050565b8060056000828254611d2a91906128ed565b9250508190555080600a60008473ffffffffffffffffffffffffffffffffffffffff1673ffffffffffffffffffffffffffffffffffffffff1681526020019081526020016000206000828254611d8091906128ed565b925050819055505050565b8060046000828254611d9d91906128ed565b9250508190555080600960008473ffffffffffffffffffffffffffffffffffffffff1673ffffffffffffffffffffffffffffffffffffffff1681526020019081526020016000206000828254611df391906128ed565b925050819055505050565b6000604051905090565b600080fd5b6000819050919050565b611e2081611e0d565b8114611e2b57600080fd5b50565b600081359050611e3d81611e17565b92915050565b600060208284031215611e5957611e58611e08565b5b6000611e6784828501611e2e565b91505092915050565b600073ffffffffffffffffffffffffffffffffffffffff82169050919050565b6000611e9b82611e70565b9050919050565b611eab81611e90565b8114611eb657600080fd5b50565b600081359050611ec881611ea2565b92915050565b600060208284031215611ee457611ee3611e08565b5b6000611ef284828501611eb9565b91505092915050565b611f0481611e0d565b82525050565b6000602082019050611f1f6000830184611efb565b92915050565b611f2e81611e90565b82525050565b6000602082019050611f496000830184611f25565b92915050565b60008060408385031215611f6657611f65611e08565b5b6000611f7485828601611e2e565b9250506020611f8585828601611eb9565b9150509250929050565b6000819050919050565b6000611fb4611faf611faa84611e70565b611f8f565b611e70565b9050919050565b6000611fc682611f99565b9050919050565b6000611fd882611fbb565b9050919050565b611fe881611fcd565b82525050565b60006020820190506120036000830184611fdf565b92915050565b600061201482611fbb565b9050919050565b61202481612009565b82525050565b600060208201905061203f600083018461201b565b92915050565b600082825260208201905092915050565b7f63616c6c6572206973206e6f7420746865206f776e6572000000000000000000600082015250565b600061208c601783612045565b915061209782612056565b602082019050919050565b600060208201905081810360008301526120bb8161207f565b9050919050565b7f77696e6e657220616c7265616479206465636964656400000000000000000000600082015250565b60006120f8601683612045565b9150612103826120c2565b602082019050919050565b60006020820190508181036000830152612127816120eb565b9050919050565b7f696e76616c69642077696e6e6572000000000000000000000000000000000000600082015250565b6000612164600e83612045565b915061216f8261212e565b602082019050919050565b6000602082019050818103600083015261219381612157565b9050919050565b6000815190506121a981611e17565b92915050565b6000602082840312156121c5576121c4611e08565b5b60006121d38482850161219a565b91505092915050565b7f4e487b7100000000000000000000000000000000000000000000000000000000600052601160045260246000fd5b600061221682611e0d565b915061222183611e0d565b925082820261222f81611e0d565b91508282048414831517612246576122456121dc565b5b5092915050565b7f4e487b7100000000000000000000000000000000000000000000000000000000600052601260045260246000fd5b600061228782611e0d565b915061229283611e0d565b9250826122a2576122a161224d565b5b828204905092915050565b60006040820190506122c26000830185611f25565b6122cf6020830184611efb565b9392505050565b60008115159050919050565b6122eb816122d6565b81146122f657600080fd5b50565b600081519050612308816122e2565b92915050565b60006020828403121561232457612323611e08565b5b6000612332848285016122f9565b91505092915050565b7f77696e6e6572206e6f7420646563696465640000000000000000000000000000600082015250565b6000612371601283612045565b915061237c8261233b565b602082019050919050565b600060208201905081810360008301526123a081612364565b9050919050565b7f6e6f7420612077696e6e65720000000000000000000000000000000000000000600082015250565b60006123dd600c83612045565b91506123e8826123a7565b602082019050919050565b6000602082019050818103600083015261240c816123d0565b9050919050565b7f696e76616c69642073797374656d206665652072617465000000000000000000600082015250565b6000612449601783612045565b915061245482612413565b602082019050919050565b600060208201905081810360008301526124788161243c565b9050919050565b7f62657474696e672068617320656e646564000000000000000000000000000000600082015250565b60006124b5601183612045565b91506124c08261247f565b602082019050919050565b600060208201905081810360008301526124e4816124a8565b9050919050565b60006040820190506125006000830185611f25565b61250d6020830184611f25565b9392505050565b600080fd5b6000601f19601f8301169050919050565b7f4e487b7100000000000000000000000000000000000000000000000000000000600052604160045260246000fd5b61256282612519565b810181811067ffffffffffffffff821117156125815761258061252a565b5b80604052505050565b6000612594611dfe565b90506125a08282612559565b919050565b600067ffffffffffffffff8211156125c0576125bf61252a565b5b602082029050919050565b600080fd5b6000815190506125df81611ea2565b92915050565b60006125f86125f3846125a5565b61258a565b90508060208402830185811115612612576126116125cb565b5b835b8181101561263b578061262788826125d0565b845260208401935050602081019050612614565b5050509392505050565b600082601f83011261265a57612659612514565b5b60036126678482856125e5565b91505092915050565b60006060828403121561268657612685611e08565b5b600061269484828501612645565b91505092915050565b600067ffffffffffffffff8211156126b8576126b761252a565b5b602082029050919050565b60006126d66126d18461269d565b61258a565b905080602084028301858111156126f0576126ef6125cb565b5b835b818110156127195780612705888261219a565b8452602084019350506020810190506126f2565b5050509392505050565b600082601f83011261273857612737612514565b5b60036127458482856126c3565b91505092915050565b60006060828403121561276457612763611e08565b5b600061277284828501612723565b91505092915050565b7f4e487b7100000000000000000000000000000000000000000000000000000000600052603260045260246000fd5b60006127b582611e0d565b91506127c083611e0d565b92508282039050818111156127d8576127d76121dc565b5b92915050565b60006060820190506127f36000830186611f25565b6128006020830185611f25565b61280d6040830184611efb565b949350505050565b7f696e76616c69642073797374656d206275726e20726174650000000000000000600082015250565b600061284b601883612045565b915061285682612815565b602082019050919050565b6000602082019050818103600083015261287a8161283e565b9050919050565b7f696e76616c69642066696e616c697a6520747300000000000000000000000000600082015250565b60006128b7601383612045565b91506128c282612881565b602082019050919050565b600060208201905081810360008301526128e6816128aa565b9050919050565b60006128f882611e0d565b915061290383611e0d565b925082820190508082111561291b5761291a6121dc565b5b9291505056fea2646970667358221220556bdcfa5514e86202ebdf8935798b63e981f8b04ea6527972d159966a9cecbb64736f6c63430008120033",
  "linkReferences": {},
  "deployedLinkReferences": {}
}