{
  "_format": "hh-sol-artifact-1",
  "contractName": "Lotte",
  "sourceName": "contracts/Lotte.sol",
  "abi": [
    {
      "inputs": [
        {
          "internalType": "address",
          "name": "_token",
          "type": "address"
        },
        {
          "internalType": "address",
          "name": "_vaultAddress",
          "type": "address"
        }
      ],
      "stateMutability": "nonpayable",
      "type": "constructor"
    },
    {
      "anonymous": false,
      "inputs": [
        {
          "indexed": true,
          "internalType": "address",
          "name": "_from",
          "type": "address"
        },
        {
          "indexed": true,
          "internalType": "address",
          "name": "_to",
          "type": "address"
        },
        {
          "indexed": false,
          "internalType": "uint256",
          "name": "_value",
          "type": "uint256"
        }
      ],
      "name": "Purchase",
      "type": "event"
    },
    {
      "inputs": [
        {
          "internalType": "address",
          "name": "",
          "type": "address"
        }
      ],
      "name": "balanceOf",
      "outputs": [
        {
          "internalType": "uint256",
          "name": "",
          "type": "uint256"
        }
      ],
      "stateMutability": "view",
      "type": "function"
    },
    {
      "inputs": [],
      "name": "burnRate",
      "outputs": [
        {
          "internalType": "uint256",
          "name": "",
          "type": "uint256"
        }
      ],
      "stateMutability": "view",
      "type": "function"
    },
    {
      "inputs": [],
      "name": "draw",
      "outputs": [],
      "stateMutability": "nonpayable",
      "type": "function"
    },
    {
      "inputs": [
        {
          "internalType": "uint256",
          "name": "",
          "type": "uint256"
        }
      ],
      "name": "drawData",
      "outputs": [
        {
          "internalType": "uint256",
          "name": "winningNumber",
          "type": "uint256"
        },
        {
          "internalType": "uint256",
          "name": "winnerCount",
          "type": "uint256"
        },
        {
          "internalType": "uint256",
          "name": "winnerAmount",
          "type": "uint256"
        }
      ],
      "stateMutability": "view",
      "type": "function"
    },
    {
      "inputs": [],
      "name": "drawFeeRate",
      "outputs": [
        {
          "internalType": "uint256",
          "name": "",
          "type": "uint256"
        }
      ],
      "stateMutability": "view",
      "type": "function"
    },
    {
      "inputs": [
        {
          "internalType": "uint256",
          "name": "ticketNumber",
          "type": "uint256"
        }
      ],
      "name": "getAddressListByTicketNumber",
      "outputs": [
        {
          "internalType": "address[]",
          "name": "",
          "type": "address[]"
        }
      ],
      "stateMutability": "view",
      "type": "function"
    },
    {
      "inputs": [
        {
          "internalType": "uint256",
          "name": "ticketNumber",
          "type": "uint256"
        }
      ],
      "name": "getAmountOfTicketByTicketNumber",
      "outputs": [
        {
          "internalType": "uint256",
          "name": "",
          "type": "uint256"
        }
      ],
      "stateMutability": "view",
      "type": "function"
    },
    {
      "inputs": [],
      "name": "getLastDraw",
      "outputs": [
        {
          "components": [
            {
              "internalType": "uint256",
              "name": "winningNumber",
              "type": "uint256"
            },
            {
              "internalType": "uint256",
              "name": "winnerCount",
              "type": "uint256"
            },
            {
              "internalType": "uint256",
              "name": "winnerAmount",
              "type": "uint256"
            },
            {
              "internalType": "address[]",
              "name": "winnerList",
              "type": "address[]"
            }
          ],
          "internalType": "struct Lotte.Draw",
          "name": "",
          "type": "tuple"
        }
      ],
      "stateMutability": "view",
      "type": "function"
    },
    {
      "inputs": [],
      "name": "getRandom",
      "outputs": [
        {
          "internalType": "uint256",
          "name": "",
          "type": "uint256"
        }
      ],
      "stateMutability": "view",
      "type": "function"
    },
    {
      "inputs": [
        {
          "internalType": "address",
          "name": "_address",
          "type": "address"
        }
      ],
      "name": "getTicketListByAddress",
      "outputs": [
        {
          "internalType": "uint256[]",
          "name": "",
          "type": "uint256[]"
        }
      ],
      "stateMutability": "view",
      "type": "function"
    },
    {
      "inputs": [],
      "name": "getTotalPot",
      "outputs": [
        {
          "internalType": "uint256",
          "name": "",
          "type": "uint256"
        }
      ],
      "stateMutability": "view",
      "type": "function"
    },
    {
      "inputs": [],
      "name": "lastDrawTimestamp",
      "outputs": [
        {
          "internalType": "uint256",
          "name": "",
          "type": "uint256"
        }
      ],
      "stateMutability": "view",
      "type": "function"
    },
    {
      "inputs": [],
      "name": "owner",
      "outputs": [
        {
          "internalType": "address",
          "name": "",
          "type": "address"
        }
      ],
      "stateMutability": "view",
      "type": "function"
    },
    {
      "inputs": [
        {
          "internalType": "uint256[]",
          "name": "_tickets",
          "type": "uint256[]"
        },
        {
          "internalType": "address",
          "name": "refAddress",
          "type": "address"
        }
      ],
      "name": "purchase",
      "outputs": [],
      "stateMutability": "nonpayable",
      "type": "function"
    },
    {
      "inputs": [
        {
          "internalType": "address",
          "name": "",
          "type": "address"
        }
      ],
      "name": "ref",
      "outputs": [
        {
          "internalType": "address",
          "name": "",
          "type": "address"
        }
      ],
      "stateMutability": "view",
      "type": "function"
    },
    {
      "inputs": [],
      "name": "refRateLayer1",
      "outputs": [
        {
          "internalType": "uint256",
          "name": "",
          "type": "uint256"
        }
      ],
      "stateMutability": "view",
      "type": "function"
    },
    {
      "inputs": [],
      "name": "refRateLayer2",
      "outputs": [
        {
          "internalType": "uint256",
          "name": "",
          "type": "uint256"
        }
      ],
      "stateMutability": "view",
      "type": "function"
    },
    {
      "inputs": [],
      "name": "refRateLayer3",
      "outputs": [
        {
          "internalType": "uint256",
          "name": "",
          "type": "uint256"
        }
      ],
      "stateMutability": "view",
      "type": "function"
    },
    {
      "inputs": [],
      "name": "round",
      "outputs": [
        {
          "internalType": "uint256",
          "name": "",
          "type": "uint256"
        }
      ],
      "stateMutability": "view",
      "type": "function"
    },
    {
      "inputs": [
        {
          "internalType": "uint256",
          "name": "_burnRate",
          "type": "uint256"
        }
      ],
      "name": "setBurnRate",
      "outputs": [],
      "stateMutability": "nonpayable",
      "type": "function"
    },
    {
      "inputs": [
        {
          "internalType": "uint256",
          "name": "_drawFeeRate",
          "type": "uint256"
        }
      ],
      "name": "setDrawFeeRate",
      "outputs": [],
      "stateMutability": "nonpayable",
      "type": "function"
    },
    {
      "inputs": [
        {
          "internalType": "uint256",
          "name": "_refRateLayer1",
          "type": "uint256"
        }
      ],
      "name": "setRefRateLayer1",
      "outputs": [],
      "stateMutability": "nonpayable",
      "type": "function"
    },
    {
      "inputs": [
        {
          "internalType": "uint256",
          "name": "_refRateLayer2",
          "type": "uint256"
        }
      ],
      "name": "setRefRateLayer2",
      "outputs": [],
      "stateMutability": "nonpayable",
      "type": "function"
    },
    {
      "inputs": [
        {
          "internalType": "uint256",
          "name": "_refRateLayer3",
          "type": "uint256"
        }
      ],
      "name": "setRefRateLayer3",
      "outputs": [],
      "stateMutability": "nonpayable",
      "type": "function"
    },
    {
      "inputs": [
        {
          "internalType": "uint256",
          "name": "_systemFeeRate",
          "type": "uint256"
        }
      ],
      "name": "setSystemFeeRate",
      "outputs": [],
      "stateMutability": "nonpayable",
      "type": "function"
    },
    {
      "inputs": [
        {
          "internalType": "uint256",
          "name": "_ticketPrice",
          "type": "uint256"
        }
      ],
      "name": "setTicketPrice",
      "outputs": [],
      "stateMutability": "nonpayable",
      "type": "function"
    },
    {
      "inputs": [],
      "name": "systemFeeRate",
      "outputs": [
        {
          "internalType": "uint256",
          "name": "",
          "type": "uint256"
        }
      ],
      "stateMutability": "view",
      "type": "function"
    },
    {
      "inputs": [],
      "name": "ticketPrice",
      "outputs": [
        {
          "internalType": "uint256",
          "name": "",
          "type": "uint256"
        }
      ],
      "stateMutability": "view",
      "type": "function"
    },
    {
      "inputs": [],
      "name": "token",
      "outputs": [
        {
          "internalType": "contract IERC20",
          "name": "",
          "type": "address"
        }
      ],
      "stateMutability": "view",
      "type": "function"
    },
    {
      "inputs": [],
      "name": "totalSupply",
      "outputs": [
        {
          "internalType": "uint256",
          "name": "",
          "type": "uint256"
        }
      ],
      "stateMutability": "view",
      "type": "function"
    },
    {
      "inputs": [],
      "name": "totalTicket",
      "outputs": [
        {
          "internalType": "uint256",
          "name": "",
          "type": "uint256"
        }
      ],
      "stateMutability": "view",
      "type": "function"
    },
    {
      "inputs": [],
      "name": "vaultAddress",
      "outputs": [
        {
          "internalType": "address",
          "name": "",
          "type": "address"
        }
      ],
      "stateMutability": "view",
      "type": "function"
    },
    {
      "inputs": [
        {
          "internalType": "uint256",
          "name": "amount",
          "type": "uint256"
        }
      ],
      "name": "withdraw",
      "outputs": [],
      "stateMutability": "nonpayable",
      "type": "function"
    }
  ],
  "bytecode": "0x60e0604052600073ffffffffffffffffffffffffffffffffffffffff1660809073ffffffffffffffffffffffffffffffffffffffff1681525060646003556101186006556101f460075560326008556046600955601e600a556014600b553480156200006a57600080fd5b50604051620032b4380380620032b48339818101604052810190620000909190620001b9565b336000806101000a81548173ffffffffffffffffffffffffffffffffffffffff021916908373ffffffffffffffffffffffffffffffffffffffff16021790555060006001819055508173ffffffffffffffffffffffffffffffffffffffff1660a08173ffffffffffffffffffffffffffffffffffffffff16815250508073ffffffffffffffffffffffffffffffffffffffff1660c08173ffffffffffffffffffffffffffffffffffffffff168152505042600281905550505062000200565b600080fd5b600073ffffffffffffffffffffffffffffffffffffffff82169050919050565b6000620001818262000154565b9050919050565b620001938162000174565b81146200019f57600080fd5b50565b600081519050620001b38162000188565b92915050565b60008060408385031215620001d357620001d26200014f565b5b6000620001e385828601620001a2565b9250506020620001f685828601620001a2565b9150509250929050565b60805160a05160c0516130296200028b60003960008181610bee01528181610c6e01528181610e95015281816114ed01528181611f5301528181611fd30152818161208f01526120f001526000818161170f01528181611bd801528181611ffa01526121b5015260008181610aca01528181610b9201528181610ebf01526115ec01526130296000f3fe608060405234801561001057600080fd5b50600436106101fb5760003560e01c80638da5cb5b1161011a578063c1d48606116100ad578063dc0e50ea1161007c578063dc0e50ea1461057e578063e80f2fb21461059c578063e94bc43b146105ba578063fc0c546a146105d8578063fd301423146105f6576101fb565b8063c1d48606146104e2578063c4b6ebdf14610500578063c60ab69414610530578063c7f698f914610560576101fb565b8063aacc5a17116100e9578063aacc5a1714610456578063b8a2833614610474578063bed9985014610492578063c172d6a4146104b0576101fb565b80638da5cb5b146103e257806392b07792146104005780639351f0ac1461041e578063aa1fbc991461043a576101fb565b80632e1a7d4d116101925780635c97b6e1116101615780635c97b6e11461035c57806370a0823114610378578063725c0cea146103a85780638c21460b146103c4576101fb565b80632e1a7d4d146102e8578063430bf08a14610304578063480bc31f146103225780635596e50114610340576101fb565b8063146ca531116101ce578063146ca53114610274578063159816501461029257806318160ddd146102ae578063189d165e146102cc576101fb565b806307fcbd6f1461020057806308c497671461021c5780630eecae211461024c5780631209b1f614610256575b600080fd5b61021a600480360381019061021591906122f7565b610626565b005b610236600480360381019061023191906122f7565b6106be565b6040516102439190612414565b60405180910390f35b610254610930565b005b61025e610cc2565b60405161026b9190612445565b60405180910390f35b61027c610cc8565b6040516102899190612445565b60405180910390f35b6102ac60048036038101906102a791906122f7565b610cce565b005b6102b6610d66565b6040516102c39190612445565b60405180910390f35b6102e660048036038101906102e191906122f7565b610d6c565b005b61030260048036038101906102fd91906122f7565b610e04565b005b61030c610e93565b604051610319919061246f565b60405180910390f35b61032a610eb7565b6040516103379190612445565b60405180910390f35b61035a600480360381019061035591906122f7565b610f1e565b005b610376600480360381019061037191906122f7565b610fb6565b005b610392600480360381019061038d91906124b6565b61104e565b60405161039f9190612445565b60405180910390f35b6103c260048036038101906103bd91906122f7565b611066565b005b6103cc6110fe565b6040516103d99190612445565b60405180910390f35b6103ea611104565b6040516103f7919061246f565b60405180910390f35b610408611128565b6040516104159190612445565b60405180910390f35b61043860048036038101906104339190612548565b61112e565b005b610454600480360381019061044f91906122f7565b6117b9565b005b61045e611851565b60405161046b9190612445565b60405180910390f35b61047c61189f565b6040516104899190612445565b60405180910390f35b61049a6118a5565b6040516104a79190612445565b60405180910390f35b6104ca60048036038101906104c591906122f7565b6118ab565b6040516104d9939291906125a8565b60405180910390f35b6104ea6118d5565b6040516104f79190612445565b60405180910390f35b61051a600480360381019061051591906124b6565b6118db565b604051610527919061246f565b60405180910390f35b61054a600480360381019061054591906124b6565b61190e565b604051610557919061269d565b60405180910390f35b610568611ae0565b6040516105759190612791565b60405180910390f35b610586611bc4565b6040516105939190612445565b60405180910390f35b6105a4611bca565b6040516105b19190612445565b60405180910390f35b6105c2611bd0565b6040516105cf9190612445565b60405180910390f35b6105e0611bd6565b6040516105ed9190612812565b60405180910390f35b610610600480360381019061060b91906122f7565b611bfa565b60405161061d9190612445565b60405180910390f35b60008054906101000a900473ffffffffffffffffffffffffffffffffffffffff1673ffffffffffffffffffffffffffffffffffffffff163373ffffffffffffffffffffffffffffffffffffffff16146106b4576040517f08c379a00000000000000000000000000000000000000000000000000000000081526004016106ab9061288a565b60405180910390fd5b8060078190555050565b6060600060045467ffffffffffffffff8111156106de576106dd6128aa565b5b60405190808252806020026020018201604052801561070c5781602001602082028036833780820191505090505b5090506000805b6004548110156108505784600d6000838152602001908152602001600020600101541480156107a55750600073ffffffffffffffffffffffffffffffffffffffff16600d600083815260200190815260200160002060000160009054906101000a900473ffffffffffffffffffffffffffffffffffffffff1673ffffffffffffffffffffffffffffffffffffffff1614155b1561083d57600d600082815260200190815260200160002060000160009054906101000a900473ffffffffffffffffffffffffffffffffffffffff168383815181106107f4576107f36128d9565b5b602002602001019073ffffffffffffffffffffffffffffffffffffffff16908173ffffffffffffffffffffffffffffffffffffffff1681525050818061083990612937565b9250505b808061084890612937565b915050610713565b5060008167ffffffffffffffff81111561086d5761086c6128aa565b5b60405190808252806020026020018201604052801561089b5781602001602082028036833780820191505090505b50905060005b82811015610924578381815181106108bc576108bb6128d9565b5b60200260200101518282815181106108d7576108d66128d9565b5b602002602001019073ffffffffffffffffffffffffffffffffffffffff16908173ffffffffffffffffffffffffffffffffffffffff1681525050808061091c90612937565b9150506108a1565b50809350505050919050565b6201518060025442610942919061297f565b1015610983576040517f08c379a000000000000000000000000000000000000000000000000000000000815260040161097a906129ff565b60405180910390fd5b6007600454116109c8576040517f08c379a00000000000000000000000000000000000000000000000000000000081526004016109bf90612a91565b60405180910390fd5b60003073ffffffffffffffffffffffffffffffffffffffff1663aacc5a176040518163ffffffff1660e01b8152600401602060405180830381865afa158015610a15573d6000803e3d6000fd5b505050506040513d601f19601f82011682018060405250810190610a399190612ac6565b905060003073ffffffffffffffffffffffffffffffffffffffff1663fd301423836040518263ffffffff1660e01b8152600401610a769190612445565b602060405180830381865afa158015610a93573d6000803e3d6000fd5b505050506040513d601f19601f82011682018060405250810190610ab79190612ac6565b90506000811115610bc8576000600f60007f000000000000000000000000000000000000000000000000000000000000000073ffffffffffffffffffffffffffffffffffffffff1673ffffffffffffffffffffffffffffffffffffffff16815260200190815260200160002054905060008282610b349190612b22565b905083600e600060015481526020019081526020016000206000018190555082600e600060015481526020019081526020016000206001018190555080600e6000600154815260200190815260200160002060020181905550610bb77f000000000000000000000000000000000000000000000000000000000000000083611cc3565b610bc18482611d36565b5050610be6565b81600e60006001548152602001908152602001600020600001819055505b6000600f60007f000000000000000000000000000000000000000000000000000000000000000073ffffffffffffffffffffffffffffffffffffffff1673ffffffffffffffffffffffffffffffffffffffff168152602001908152602001600020549050600060075461271083610c5d9190612b22565b610c679190612b53565b9050610c937f000000000000000000000000000000000000000000000000000000000000000082611cc3565b610c9d3382611ed8565b610ca5611f4b565b610cad612087565b610cb5612118565b4260028190555050505050565b60035481565b60015481565b60008054906101000a900473ffffffffffffffffffffffffffffffffffffffff1673ffffffffffffffffffffffffffffffffffffffff163373ffffffffffffffffffffffffffffffffffffffff1614610d5c576040517f08c379a0000000000000000000000000000000000000000000000000000000008152600401610d539061288a565b60405180910390fd5b8060038190555050565b60055481565b60008054906101000a900473ffffffffffffffffffffffffffffffffffffffff1673ffffffffffffffffffffffffffffffffffffffff163373ffffffffffffffffffffffffffffffffffffffff1614610dfa576040517f08c379a0000000000000000000000000000000000000000000000000000000008152600401610df19061288a565b60405180910390fd5b8060088190555050565b80600f60003373ffffffffffffffffffffffffffffffffffffffff1673ffffffffffffffffffffffffffffffffffffffff168152602001908152602001600020541015610e86576040517f08c379a0000000000000000000000000000000000000000000000000000000008152600401610e7d90612be1565b60405180910390fd5b610e90338261213a565b50565b7f000000000000000000000000000000000000000000000000000000000000000081565b6000600f60007f000000000000000000000000000000000000000000000000000000000000000073ffffffffffffffffffffffffffffffffffffffff1673ffffffffffffffffffffffffffffffffffffffff16815260200190815260200160002054905090565b60008054906101000a900473ffffffffffffffffffffffffffffffffffffffff1673ffffffffffffffffffffffffffffffffffffffff163373ffffffffffffffffffffffffffffffffffffffff1614610fac576040517f08c379a0000000000000000000000000000000000000000000000000000000008152600401610fa39061288a565b60405180910390fd5b8060098190555050565b60008054906101000a900473ffffffffffffffffffffffffffffffffffffffff1673ffffffffffffffffffffffffffffffffffffffff163373ffffffffffffffffffffffffffffffffffffffff1614611044576040517f08c379a000000000000000000000000000000000000000000000000000000000815260040161103b9061288a565b60405180910390fd5b8060068190555050565b600f6020528060005260406000206000915090505481565b60008054906101000a900473ffffffffffffffffffffffffffffffffffffffff1673ffffffffffffffffffffffffffffffffffffffff163373ffffffffffffffffffffffffffffffffffffffff16146110f4576040517f08c379a00000000000000000000000000000000000000000000000000000000081526004016110eb9061288a565b60405180910390fd5b80600a8190555050565b60025481565b60008054906101000a900473ffffffffffffffffffffffffffffffffffffffff1681565b600b5481565b60008383905011611174576040517f08c379a000000000000000000000000000000000000000000000000000000000815260040161116b90612c4d565b60405180910390fd5b60078383905011156111bb576040517f08c379a00000000000000000000000000000000000000000000000000000000081526004016111b290612cdf565b60405180910390fd5b3373ffffffffffffffffffffffffffffffffffffffff168173ffffffffffffffffffffffffffffffffffffffff1603611229576040517f08c379a000000000000000000000000000000000000000000000000000000000815260040161122090612d71565b60405180910390fd5b60008383905060035461123c9190612b53565b90506000819050600073ffffffffffffffffffffffffffffffffffffffff16600c60003373ffffffffffffffffffffffffffffffffffffffff1673ffffffffffffffffffffffffffffffffffffffff16815260200190815260200160002060009054906101000a900473ffffffffffffffffffffffffffffffffffffffff1673ffffffffffffffffffffffffffffffffffffffff1614801561130b5750600073ffffffffffffffffffffffffffffffffffffffff168373ffffffffffffffffffffffffffffffffffffffff1614155b1561138f5782600c60003373ffffffffffffffffffffffffffffffffffffffff1673ffffffffffffffffffffffffffffffffffffffff16815260200190815260200160002060006101000a81548173ffffffffffffffffffffffffffffffffffffffff021916908373ffffffffffffffffffffffffffffffffffffffff1602179055505b6000600c60003373ffffffffffffffffffffffffffffffffffffffff1673ffffffffffffffffffffffffffffffffffffffff16815260200190815260200160002060009054906101000a900473ffffffffffffffffffffffffffffffffffffffff1690506000600c60008373ffffffffffffffffffffffffffffffffffffffff1673ffffffffffffffffffffffffffffffffffffffff16815260200190815260200160002060009054906101000a900473ffffffffffffffffffffffffffffffffffffffff1690506000600c60008373ffffffffffffffffffffffffffffffffffffffff1673ffffffffffffffffffffffffffffffffffffffff16815260200190815260200160002060009054906101000a900473ffffffffffffffffffffffffffffffffffffffff1690506000612710600654876114ce9190612b53565b6114d89190612b22565b905080856114e6919061297f565b94506115127f000000000000000000000000000000000000000000000000000000000000000082611ed8565b61151b84612256565b15611559576000612710600954886115339190612b53565b61153d9190612b22565b9050808661154b919061297f565b95506115578582611ed8565b505b61156283612256565b156115a0576000612710600a548861157a9190612b53565b6115849190612b22565b90508086611592919061297f565b955061159e8482611ed8565b505b6115a982612256565b156115e7576000612710600b54886115c19190612b53565b6115cb9190612b22565b905080866115d9919061297f565b95506115e58382611ed8565b505b6116117f000000000000000000000000000000000000000000000000000000000000000086611ed8565b60005b898990508110156116f05760008a8a83818110611634576116336128d9565b5b90506020020135905060405180604001604052803373ffffffffffffffffffffffffffffffffffffffff16815260200182815250600d60008460045461167a9190612d91565b815260200190815260200160002060008201518160000160006101000a81548173ffffffffffffffffffffffffffffffffffffffff021916908373ffffffffffffffffffffffffffffffffffffffff160217905550602082015181600101559050505080806116e890612937565b915050611614565b5088889050600460008282546117069190612d91565b925050819055507f000000000000000000000000000000000000000000000000000000000000000073ffffffffffffffffffffffffffffffffffffffff166323b872dd3330896040518463ffffffff1660e01b815260040161176a93929190612dc5565b6020604051808303816000875af1158015611789573d6000803e3d6000fd5b505050506040513d601f19601f820116820180604052508101906117ad9190612e34565b50505050505050505050565b60008054906101000a900473ffffffffffffffffffffffffffffffffffffffff1673ffffffffffffffffffffffffffffffffffffffff163373ffffffffffffffffffffffffffffffffffffffff1614611847576040517f08c379a000000000000000000000000000000000000000000000000000000000815260040161183e9061288a565b60405180910390fd5b80600b8190555050565b6000600161047642443360405160200161186d93929190612eca565b6040516020818303038152906040528051906020012060001c6118909190612f07565b61189a919061297f565b905090565b60045481565b60085481565b600e6020528060005260406000206000915090508060000154908060010154908060020154905083565b60095481565b600c6020528060005260406000206000915054906101000a900473ffffffffffffffffffffffffffffffffffffffff1681565b6060600060045467ffffffffffffffff81111561192e5761192d6128aa565b5b60405190808252806020026020018201604052801561195c5781602001602082028036833780820191505090505b5090506000805b600454811015611a2e578473ffffffffffffffffffffffffffffffffffffffff16600d600083815260200190815260200160002060000160009054906101000a900473ffffffffffffffffffffffffffffffffffffffff1673ffffffffffffffffffffffffffffffffffffffff1603611a1b57600d600082815260200190815260200160002060010154838381518110611a00576119ff6128d9565b5b6020026020010181815250508180611a1790612937565b9250505b8080611a2690612937565b915050611963565b5060008167ffffffffffffffff811115611a4b57611a4a6128aa565b5b604051908082528060200260200182016040528015611a795781602001602082028036833780820191505090505b50905060005b82811015611ad457838181518110611a9a57611a996128d9565b5b6020026020010151828281518110611ab557611ab46128d9565b5b6020026020010181815250508080611acc90612937565b915050611a7f565b50809350505050919050565b611ae861228f565b600e600060018054611afa919061297f565b815260200190815260200160002060405180608001604052908160008201548152602001600182015481526020016002820154815260200160038201805480602002602001604051908101604052809291908181526020018280548015611bb657602002820191906000526020600020905b8160009054906101000a900473ffffffffffffffffffffffffffffffffffffffff1673ffffffffffffffffffffffffffffffffffffffff1681526020019060010190808311611b6c575b505050505081525050905090565b600a5481565b60065481565b60075481565b7f000000000000000000000000000000000000000000000000000000000000000081565b60008060005b600454811015611cb95783600d600083815260200190815260200160002060010154148015611c925750600073ffffffffffffffffffffffffffffffffffffffff16600d600083815260200190815260200160002060000160009054906101000a900473ffffffffffffffffffffffffffffffffffffffff1673ffffffffffffffffffffffffffffffffffffffff1614155b15611ca6578180611ca290612937565b9250505b8080611cb190612937565b915050611c00565b5080915050919050565b8060056000828254611cd5919061297f565b9250508190555080600f60008473ffffffffffffffffffffffffffffffffffffffff1673ffffffffffffffffffffffffffffffffffffffff1681526020019081526020016000206000828254611d2b919061297f565b925050819055505050565b60005b600454811015611ed35782600d600083815260200190815260200160002060010154148015611dcb5750600073ffffffffffffffffffffffffffffffffffffffff16600d600083815260200190815260200160002060000160009054906101000a900473ffffffffffffffffffffffffffffffffffffffff1673ffffffffffffffffffffffffffffffffffffffff1614155b15611ec057600e60006001548152602001908152602001600020600301600d600083815260200190815260200160002060000160009054906101000a900473ffffffffffffffffffffffffffffffffffffffff169080600181540180825580915050600190039060005260206000200160009091909190916101000a81548173ffffffffffffffffffffffffffffffffffffffff021916908373ffffffffffffffffffffffffffffffffffffffff160217905550611ebf600d600083815260200190815260200160002060000160009054906101000a900473ffffffffffffffffffffffffffffffffffffffff1683611ed8565b5b8080611ecb90612937565b915050611d39565b505050565b8060056000828254611eea9190612d91565b9250508190555080600f60008473ffffffffffffffffffffffffffffffffffffffff1673ffffffffffffffffffffffffffffffffffffffff1681526020019081526020016000206000828254611f409190612d91565b925050819055505050565b6000600f60007f000000000000000000000000000000000000000000000000000000000000000073ffffffffffffffffffffffffffffffffffffffff1673ffffffffffffffffffffffffffffffffffffffff168152602001908152602001600020549050600061271060085483611fc29190612b53565b611fcc9190612b22565b9050611ff87f000000000000000000000000000000000000000000000000000000000000000082611cc3565b7f000000000000000000000000000000000000000000000000000000000000000073ffffffffffffffffffffffffffffffffffffffff166342966c68826040518263ffffffff1660e01b81526004016120519190612445565b600060405180830381600087803b15801561206b57600080fd5b505af115801561207f573d6000803e3d6000fd5b505050505050565b6000600f60007f000000000000000000000000000000000000000000000000000000000000000073ffffffffffffffffffffffffffffffffffffffff1673ffffffffffffffffffffffffffffffffffffffff1681526020019081526020016000205490506121157f00000000000000000000000000000000000000000000000000000000000000008261213a565b50565b60006004819055506001600081548092919061213390612937565b9190505550565b600073ffffffffffffffffffffffffffffffffffffffff168273ffffffffffffffffffffffffffffffffffffffff16036121a9576040517f08c379a00000000000000000000000000000000000000000000000000000000081526004016121a090612faa565b60405180910390fd5b6121b38282611cc3565b7f000000000000000000000000000000000000000000000000000000000000000073ffffffffffffffffffffffffffffffffffffffff1663a9059cbb83836040518363ffffffff1660e01b815260040161220e929190612fca565b6020604051808303816000875af115801561222d573d6000803e3d6000fd5b505050506040513d601f19601f820116820180604052508101906122519190612e34565b505050565b60008073ffffffffffffffffffffffffffffffffffffffff168273ffffffffffffffffffffffffffffffffffffffff1614159050919050565b6040518060800160405280600081526020016000815260200160008152602001606081525090565b600080fd5b600080fd5b6000819050919050565b6122d4816122c1565b81146122df57600080fd5b50565b6000813590506122f1816122cb565b92915050565b60006020828403121561230d5761230c6122b7565b5b600061231b848285016122e2565b91505092915050565b600081519050919050565b600082825260208201905092915050565b6000819050602082019050919050565b600073ffffffffffffffffffffffffffffffffffffffff82169050919050565b600061237b82612350565b9050919050565b61238b81612370565b82525050565b600061239d8383612382565b60208301905092915050565b6000602082019050919050565b60006123c182612324565b6123cb818561232f565b93506123d683612340565b8060005b838110156124075781516123ee8882612391565b97506123f9836123a9565b9250506001810190506123da565b5085935050505092915050565b6000602082019050818103600083015261242e81846123b6565b905092915050565b61243f816122c1565b82525050565b600060208201905061245a6000830184612436565b92915050565b61246981612370565b82525050565b60006020820190506124846000830184612460565b92915050565b61249381612370565b811461249e57600080fd5b50565b6000813590506124b08161248a565b92915050565b6000602082840312156124cc576124cb6122b7565b5b60006124da848285016124a1565b91505092915050565b600080fd5b600080fd5b600080fd5b60008083601f840112612508576125076124e3565b5b8235905067ffffffffffffffff811115612525576125246124e8565b5b602083019150836020820283011115612541576125406124ed565b5b9250929050565b600080600060408486031215612561576125606122b7565b5b600084013567ffffffffffffffff81111561257f5761257e6122bc565b5b61258b868287016124f2565b9350935050602061259e868287016124a1565b9150509250925092565b60006060820190506125bd6000830186612436565b6125ca6020830185612436565b6125d76040830184612436565b949350505050565b600081519050919050565b600082825260208201905092915050565b6000819050602082019050919050565b612614816122c1565b82525050565b6000612626838361260b565b60208301905092915050565b6000602082019050919050565b600061264a826125df565b61265481856125ea565b935061265f836125fb565b8060005b83811015612690578151612677888261261a565b975061268283612632565b925050600181019050612663565b5085935050505092915050565b600060208201905081810360008301526126b7818461263f565b905092915050565b600082825260208201905092915050565b60006126db82612324565b6126e581856126bf565b93506126f083612340565b8060005b838110156127215781516127088882612391565b9750612713836123a9565b9250506001810190506126f4565b5085935050505092915050565b6000608083016000830151612746600086018261260b565b506020830151612759602086018261260b565b50604083015161276c604086018261260b565b506060830151848203606086015261278482826126d0565b9150508091505092915050565b600060208201905081810360008301526127ab818461272e565b905092915050565b6000819050919050565b60006127d86127d36127ce84612350565b6127b3565b612350565b9050919050565b60006127ea826127bd565b9050919050565b60006127fc826127df565b9050919050565b61280c816127f1565b82525050565b60006020820190506128276000830184612803565b92915050565b600082825260208201905092915050565b7f4c6f7474653a2063616c6c6572206973206e6f7420746865206f776e65720000600082015250565b6000612874601e8361282d565b915061287f8261283e565b602082019050919050565b600060208201905081810360008301526128a381612867565b9050919050565b7f4e487b7100000000000000000000000000000000000000000000000000000000600052604160045260246000fd5b7f4e487b7100000000000000000000000000000000000000000000000000000000600052603260045260246000fd5b7f4e487b7100000000000000000000000000000000000000000000000000000000600052601160045260246000fd5b6000612942826122c1565b91507fffffffffffffffffffffffffffffffffffffffffffffffffffffffffffffffff820361297457612973612908565b5b600182019050919050565b600061298a826122c1565b9150612995836122c1565b92508282039050818111156129ad576129ac612908565b5b92915050565b7f4c6f7474653a206e6f7420656e6f7567682074696d6520746f20647261770000600082015250565b60006129e9601e8361282d565b91506129f4826129b3565b602082019050919050565b60006020820190508181036000830152612a18816129dc565b9050919050565b7f4c6f7474653a20746f74616c207469636b65742073686f756c64206265206d6f60008201527f7265207468616e20370000000000000000000000000000000000000000000000602082015250565b6000612a7b60298361282d565b9150612a8682612a1f565b604082019050919050565b60006020820190508181036000830152612aaa81612a6e565b9050919050565b600081519050612ac0816122cb565b92915050565b600060208284031215612adc57612adb6122b7565b5b6000612aea84828501612ab1565b91505092915050565b7f4e487b7100000000000000000000000000000000000000000000000000000000600052601260045260246000fd5b6000612b2d826122c1565b9150612b38836122c1565b925082612b4857612b47612af3565b5b828204905092915050565b6000612b5e826122c1565b9150612b69836122c1565b9250828202612b77816122c1565b91508282048414831517612b8e57612b8d612908565b5b5092915050565b7f4c6f7474653a206e6f7420656e6f7567682062616c616e636500000000000000600082015250565b6000612bcb60198361282d565b9150612bd682612b95565b602082019050919050565b60006020820190508181036000830152612bfa81612bbe565b9050919050565b7f4c6f7474653a207469636b65742063616e6e6f7420626520656d707479000000600082015250565b6000612c37601d8361282d565b9150612c4282612c01565b602082019050919050565b60006020820190508181036000830152612c6681612c2a565b9050919050565b7f4c6f7474653a207469636b65742063616e6e6f74206265206d6f72652074686160008201527f6e20370000000000000000000000000000000000000000000000000000000000602082015250565b6000612cc960238361282d565b9150612cd482612c6d565b604082019050919050565b60006020820190508181036000830152612cf881612cbc565b9050919050565b7f4c6f7474653a2072656665727265722063616e6e6f7420626520796f7572736560008201527f6c66000000000000000000000000000000000000000000000000000000000000602082015250565b6000612d5b60228361282d565b9150612d6682612cff565b604082019050919050565b60006020820190508181036000830152612d8a81612d4e565b9050919050565b6000612d9c826122c1565b9150612da7836122c1565b9250828201905080821115612dbf57612dbe612908565b5b92915050565b6000606082019050612dda6000830186612460565b612de76020830185612460565b612df46040830184612436565b949350505050565b60008115159050919050565b612e1181612dfc565b8114612e1c57600080fd5b50565b600081519050612e2e81612e08565b92915050565b600060208284031215612e4a57612e496122b7565b5b6000612e5884828501612e1f565b91505092915050565b6000819050919050565b612e7c612e77826122c1565b612e61565b82525050565b60008160601b9050919050565b6000612e9a82612e82565b9050919050565b6000612eac82612e8f565b9050919050565b612ec4612ebf82612370565b612ea1565b82525050565b6000612ed68286612e6b565b602082019150612ee68285612e6b565b602082019150612ef68284612eb3565b601482019150819050949350505050565b6000612f12826122c1565b9150612f1d836122c1565b925082612f2d57612f2c612af3565b5b828206905092915050565b7f4c6f7474653a20616464726573732073686f756c64206e6f74206265207a657260008201527f6f00000000000000000000000000000000000000000000000000000000000000602082015250565b6000612f9460218361282d565b9150612f9f82612f38565b604082019050919050565b60006020820190508181036000830152612fc381612f87565b9050919050565b6000604082019050612fdf6000830185612460565b612fec6020830184612436565b939250505056fea264697066735822122007eecf061471a2bd76a374fc1591866eeeabf046a94d8addaa60a158090b196764736f6c63430008120033",
  "linkReferences": {},
  "deployedLinkReferences": {}
}