{
  "_format": "hh-sol-artifact-1",
  "contractName": "LfxAirdrop",
  "sourceName": "contracts/LfxAirdrop.sol",
  "abi": [
    {
      "inputs": [
        {
          "internalType": "address",
          "name": "_token",
          "type": "address"
        },
        {
          "internalType": "uint256",
          "name": "_maxParticipant",
          "type": "uint256"
        },
        {
          "internalType": "uint256",
          "name": "_maxTotalSupply",
          "type": "uint256"
        },
        {
          "internalType": "uint256",
          "name": "_minDepositAmount",
          "type": "uint256"
        },
        {
          "internalType": "uint256",
          "name": "_maxDepositAmount",
          "type": "uint256"
        }
      ],
      "stateMutability": "nonpayable",
      "type": "constructor"
    },
    {
      "anonymous": false,
      "inputs": [
        {
          "indexed": true,
          "internalType": "address",
          "name": "to",
          "type": "address"
        },
        {
          "indexed": false,
          "internalType": "uint256",
          "name": "amount",
          "type": "uint256"
        }
      ],
      "name": "Airdrop",
      "type": "event"
    },
    {
      "inputs": [
        {
          "internalType": "address",
          "name": "",
          "type": "address"
        }
      ],
      "name": "balanceOf",
      "outputs": [
        {
          "internalType": "uint256",
          "name": "",
          "type": "uint256"
        }
      ],
      "stateMutability": "view",
      "type": "function"
    },
    {
      "inputs": [
        {
          "internalType": "uint256",
          "name": "_amount",
          "type": "uint256"
        }
      ],
      "name": "deposit",
      "outputs": [],
      "stateMutability": "payable",
      "type": "function"
    },
    {
      "inputs": [],
      "name": "getInformation",
      "outputs": [
        {
          "internalType": "bool",
          "name": "",
          "type": "bool"
        },
        {
          "internalType": "uint256",
          "name": "",
          "type": "uint256"
        },
        {
          "internalType": "uint256",
          "name": "",
          "type": "uint256"
        },
        {
          "internalType": "uint256",
          "name": "",
          "type": "uint256"
        },
        {
          "internalType": "uint256",
          "name": "",
          "type": "uint256"
        },
        {
          "internalType": "uint256",
          "name": "",
          "type": "uint256"
        },
        {
          "internalType": "uint256",
          "name": "",
          "type": "uint256"
        },
        {
          "internalType": "uint256",
          "name": "",
          "type": "uint256"
        },
        {
          "internalType": "uint256",
          "name": "",
          "type": "uint256"
        }
      ],
      "stateMutability": "view",
      "type": "function"
    },
    {
      "inputs": [],
      "name": "initTimestamp",
      "outputs": [
        {
          "internalType": "uint256",
          "name": "",
          "type": "uint256"
        }
      ],
      "stateMutability": "view",
      "type": "function"
    },
    {
      "inputs": [],
      "name": "isWithdrawable",
      "outputs": [
        {
          "internalType": "bool",
          "name": "",
          "type": "bool"
        }
      ],
      "stateMutability": "view",
      "type": "function"
    },
    {
      "inputs": [],
      "name": "maxDepositAmount",
      "outputs": [
        {
          "internalType": "uint256",
          "name": "",
          "type": "uint256"
        }
      ],
      "stateMutability": "view",
      "type": "function"
    },
    {
      "inputs": [],
      "name": "maxParticipant",
      "outputs": [
        {
          "internalType": "uint256",
          "name": "",
          "type": "uint256"
        }
      ],
      "stateMutability": "view",
      "type": "function"
    },
    {
      "inputs": [],
      "name": "maxTotalSupply",
      "outputs": [
        {
          "internalType": "uint256",
          "name": "",
          "type": "uint256"
        }
      ],
      "stateMutability": "view",
      "type": "function"
    },
    {
      "inputs": [],
      "name": "minDepositAmount",
      "outputs": [
        {
          "internalType": "uint256",
          "name": "",
          "type": "uint256"
        }
      ],
      "stateMutability": "view",
      "type": "function"
    },
    {
      "inputs": [],
      "name": "owner",
      "outputs": [
        {
          "internalType": "address",
          "name": "",
          "type": "address"
        }
      ],
      "stateMutability": "view",
      "type": "function"
    },
    {
      "inputs": [],
      "name": "participantCount",
      "outputs": [
        {
          "internalType": "uint256",
          "name": "",
          "type": "uint256"
        }
      ],
      "stateMutability": "view",
      "type": "function"
    },
    {
      "inputs": [],
      "name": "token",
      "outputs": [
        {
          "internalType": "contract IERC20",
          "name": "",
          "type": "address"
        }
      ],
      "stateMutability": "view",
      "type": "function"
    },
    {
      "inputs": [],
      "name": "totalSupply",
      "outputs": [
        {
          "internalType": "uint256",
          "name": "",
          "type": "uint256"
        }
      ],
      "stateMutability": "view",
      "type": "function"
    },
    {
      "inputs": [],
      "name": "withdraw",
      "outputs": [],
      "stateMutability": "nonpayable",
      "type": "function"
    },
    {
      "stateMutability": "payable",
      "type": "receive"
    }
  ],
  "bytecode": "0x60a06040523480156200001157600080fd5b50604051620016c7380380620016c78339818101604052810190620000379190620001d8565b33600860006101000a81548173ffffffffffffffffffffffffffffffffffffffff021916908373ffffffffffffffffffffffffffffffffffffffff1602179055504260018190555060008060006101000a81548160ff0219169083151502179055508473ffffffffffffffffffffffffffffffffffffffff1660808173ffffffffffffffffffffffffffffffffffffffff168152505083600481905550670de0b6b3a764000083620000ea91906200028f565b600281905550670de0b6b3a7640000826200010691906200028f565b600681905550670de0b6b3a7640000816200012291906200028f565b6007819055505050505050620002da565b600080fd5b600073ffffffffffffffffffffffffffffffffffffffff82169050919050565b6000620001658262000138565b9050919050565b620001778162000158565b81146200018357600080fd5b50565b60008151905062000197816200016c565b92915050565b6000819050919050565b620001b2816200019d565b8114620001be57600080fd5b50565b600081519050620001d281620001a7565b92915050565b600080600080600060a08688031215620001f757620001f662000133565b5b6000620002078882890162000186565b95505060206200021a88828901620001c1565b94505060406200022d88828901620001c1565b93505060606200024088828901620001c1565b92505060806200025388828901620001c1565b9150509295509295909350565b7f4e487b7100000000000000000000000000000000000000000000000000000000600052601160045260246000fd5b60006200029c826200019d565b9150620002a9836200019d565b9250828202620002b9816200019d565b91508282048414831517620002d357620002d262000260565b5b5092915050565b6080516113bc6200030b6000396000818161066b0152818161072e01528181610abf0152610b8501526113bc6000f3fe6080604052600436106100e15760003560e01c806370a082311161007f5780638ed83271116100595780638ed832711461041d578063b6b55f2514610448578063c0da1e6814610464578063fc0c546a146104975761026c565b806370a082311461038a5780637358c57a146103c75780638da5cb5b146103f25761026c565b8063362f04c0116100bb578063362f04c0146102f25780633ccfd60b1461031d5780634d840bcc14610334578063645006ca1461035f5761026c565b806318160ddd146102715780631e4f24791461029c5780632ab4d052146102c75761026c565b3661026c576000151560008054906101000a900460ff1615151461013a576040517f08c379a000000000000000000000000000000000000000000000000000000000815260040161013190610c9d565b60405180910390fd5b6000600960003373ffffffffffffffffffffffffffffffffffffffff1673ffffffffffffffffffffffffffffffffffffffff16815260200190815260200160002054146101bc576040517f08c379a00000000000000000000000000000000000000000000000000000000081526004016101b390610d2f565b60405180910390fd5b60065434101580156101d057506007543411155b61020f576040517f08c379a000000000000000000000000000000000000000000000000000000000815260040161020690610dc1565b60405180910390fd5b61021933346104c2565b60016005600082825461022c9190610e1a565b9250508190555060045460055410158061024a575060025460035410155b1561026a5760016000806101000a81548160ff0219169083151502179055505b005b600080fd5b34801561027d57600080fd5b50610286610535565b6040516102939190610e5d565b60405180910390f35b3480156102a857600080fd5b506102b161053b565b6040516102be9190610e5d565b60405180910390f35b3480156102d357600080fd5b506102dc610541565b6040516102e99190610e5d565b60405180910390f35b3480156102fe57600080fd5b50610307610547565b6040516103149190610e5d565b60405180910390f35b34801561032957600080fd5b5061033261054d565b005b34801561034057600080fd5b5061034961086b565b6040516103569190610e93565b60405180910390f35b34801561036b57600080fd5b5061037461087c565b6040516103819190610e5d565b60405180910390f35b34801561039657600080fd5b506103b160048036038101906103ac9190610f11565b610882565b6040516103be9190610e5d565b60405180910390f35b3480156103d357600080fd5b506103dc61089a565b6040516103e99190610e5d565b60405180910390f35b3480156103fe57600080fd5b506104076108a0565b6040516104149190610f4d565b60405180910390f35b34801561042957600080fd5b506104326108c6565b60405161043f9190610e5d565b60405180910390f35b610462600480360381019061045d9190610f94565b6108cc565b005b34801561047057600080fd5b50610479610a9a565b60405161048e99989796959493929190610fc1565b60405180910390f35b3480156104a357600080fd5b506104ac610b83565b6040516104b991906110ad565b60405180910390f35b80600360008282546104d49190610e1a565b9250508190555080600960008473ffffffffffffffffffffffffffffffffffffffff1673ffffffffffffffffffffffffffffffffffffffff168152602001908152602001600020600082825461052a9190610e1a565b925050819055505050565b60035481565b60045481565b60025481565b60055481565b6001151560008054906101000a900460ff161515146105a1576040517f08c379a00000000000000000000000000000000000000000000000000000000081526004016105989061113a565b60405180910390fd5b6000600960003373ffffffffffffffffffffffffffffffffffffffff1673ffffffffffffffffffffffffffffffffffffffff1681526020019081526020016000205411610623576040517f08c379a000000000000000000000000000000000000000000000000000000000815260040161061a906111cc565b60405180910390fd5b6000600960003373ffffffffffffffffffffffffffffffffffffffff1673ffffffffffffffffffffffffffffffffffffffff16815260200190815260200160002054905060007f000000000000000000000000000000000000000000000000000000000000000073ffffffffffffffffffffffffffffffffffffffff166370a08231306040518263ffffffff1660e01b81526004016106c29190610f4d565b602060405180830381865afa1580156106df573d6000803e3d6000fd5b505050506040513d601f19601f820116820180604052508101906107039190611201565b905060006003548284610716919061122e565b610720919061129f565b905061072c3384610ba7565b7f000000000000000000000000000000000000000000000000000000000000000073ffffffffffffffffffffffffffffffffffffffff1663a9059cbb33836040518363ffffffff1660e01b81526004016107879291906112d0565b6020604051808303816000875af11580156107a6573d6000803e3d6000fd5b505050506040513d601f19601f820116820180604052508101906107ca9190611325565b503373ffffffffffffffffffffffffffffffffffffffff167f8c32c568416fcf97be35ce5b27844cfddcd63a67a1a602c3595ba5dac38f303a826040516108119190610e5d565b60405180910390a260003390508073ffffffffffffffffffffffffffffffffffffffff166108fc859081150290604051600060405180830381858888f19350505050158015610864573d6000803e3d6000fd5b5050505050565b60008054906101000a900460ff1681565b60065481565b60096020528060005260406000206000915090505481565b60015481565b600860009054906101000a900473ffffffffffffffffffffffffffffffffffffffff1681565b60075481565b6000151560008054906101000a900460ff16151514610920576040517f08c379a000000000000000000000000000000000000000000000000000000000815260040161091790610c9d565b60405180910390fd5b6000600960003373ffffffffffffffffffffffffffffffffffffffff1673ffffffffffffffffffffffffffffffffffffffff16815260200190815260200160002054146109a2576040517f08c379a000000000000000000000000000000000000000000000000000000000815260040161099990610d2f565b60405180910390fd5b60065481101580156109b657506007548111155b6109f5576040517f08c379a00000000000000000000000000000000000000000000000000000000081526004016109ec90610dc1565b60405180910390fd5b6109ff33826104c2565b600160056000828254610a129190610e1a565b92505081905550600454600554101580610a30575060025460035410155b15610a505760016000806101000a81548160ff0219169083151502179055505b3073ffffffffffffffffffffffffffffffffffffffff166108fc829081150290604051600060405180830381858888f19350505050158015610a96573d6000803e3d6000fd5b5050565b60008060008060008060008060008060009054906101000a900460ff166005546003547f000000000000000000000000000000000000000000000000000000000000000073ffffffffffffffffffffffffffffffffffffffff166370a08231306040518263ffffffff1660e01b8152600401610b169190610f4d565b602060405180830381865afa158015610b33573d6000803e3d6000fd5b505050506040513d601f19601f82011682018060405250810190610b579190611201565b600454600254600654600754600154985098509850985098509850985098509850909192939495969798565b7f000000000000000000000000000000000000000000000000000000000000000081565b8060036000828254610bb99190611352565b9250508190555080600960008473ffffffffffffffffffffffffffffffffffffffff1673ffffffffffffffffffffffffffffffffffffffff1681526020019081526020016000206000828254610c0f9190611352565b925050819055505050565b600082825260208201905092915050565b7f4c667841697264726f703a205468652061697264726f7020697320616c72656160008201527f64792066696e6973686564000000000000000000000000000000000000000000602082015250565b6000610c87602b83610c1a565b9150610c9282610c2b565b604082019050919050565b60006020820190508181036000830152610cb681610c7a565b9050919050565b7f4c667841697264726f703a20596f75206861766520616c72656164792064657060008201527f6f73697465640000000000000000000000000000000000000000000000000000602082015250565b6000610d19602683610c1a565b9150610d2482610cbd565b604082019050919050565b60006020820190508181036000830152610d4881610d0c565b9050919050565b7f4c667841697264726f703a2056616c7565206d75737420626520696e2072616e60008201527f6765000000000000000000000000000000000000000000000000000000000000602082015250565b6000610dab602283610c1a565b9150610db682610d4f565b604082019050919050565b60006020820190508181036000830152610dda81610d9e565b9050919050565b6000819050919050565b7f4e487b7100000000000000000000000000000000000000000000000000000000600052601160045260246000fd5b6000610e2582610de1565b9150610e3083610de1565b9250828201905080821115610e4857610e47610deb565b5b92915050565b610e5781610de1565b82525050565b6000602082019050610e726000830184610e4e565b92915050565b60008115159050919050565b610e8d81610e78565b82525050565b6000602082019050610ea86000830184610e84565b92915050565b600080fd5b600073ffffffffffffffffffffffffffffffffffffffff82169050919050565b6000610ede82610eb3565b9050919050565b610eee81610ed3565b8114610ef957600080fd5b50565b600081359050610f0b81610ee5565b92915050565b600060208284031215610f2757610f26610eae565b5b6000610f3584828501610efc565b91505092915050565b610f4781610ed3565b82525050565b6000602082019050610f626000830184610f3e565b92915050565b610f7181610de1565b8114610f7c57600080fd5b50565b600081359050610f8e81610f68565b92915050565b600060208284031215610faa57610fa9610eae565b5b6000610fb884828501610f7f565b91505092915050565b600061012082019050610fd7600083018c610e84565b610fe4602083018b610e4e565b610ff1604083018a610e4e565b610ffe6060830189610e4e565b61100b6080830188610e4e565b61101860a0830187610e4e565b61102560c0830186610e4e565b61103260e0830185610e4e565b611040610100830184610e4e565b9a9950505050505050505050565b6000819050919050565b600061107361106e61106984610eb3565b61104e565b610eb3565b9050919050565b600061108582611058565b9050919050565b60006110978261107a565b9050919050565b6110a78161108c565b82525050565b60006020820190506110c2600083018461109e565b92915050565b7f4c667841697264726f703a205468652061697264726f70206973206e6f74206660008201527f696e697368656420796574000000000000000000000000000000000000000000602082015250565b6000611124602b83610c1a565b915061112f826110c8565b604082019050919050565b6000602082019050818103600083015261115381611117565b9050919050565b7f4c667841697264726f703a20596f752068617665206e6f2062616c616e63652060008201527f746f207769746864726177000000000000000000000000000000000000000000602082015250565b60006111b6602b83610c1a565b91506111c18261115a565b604082019050919050565b600060208201905081810360008301526111e5816111a9565b9050919050565b6000815190506111fb81610f68565b92915050565b60006020828403121561121757611216610eae565b5b6000611225848285016111ec565b91505092915050565b600061123982610de1565b915061124483610de1565b925082820261125281610de1565b9150828204841483151761126957611268610deb565b5b5092915050565b7f4e487b7100000000000000000000000000000000000000000000000000000000600052601260045260246000fd5b60006112aa82610de1565b91506112b583610de1565b9250826112c5576112c4611270565b5b828204905092915050565b60006040820190506112e56000830185610f3e565b6112f26020830184610e4e565b9392505050565b61130281610e78565b811461130d57600080fd5b50565b60008151905061131f816112f9565b92915050565b60006020828403121561133b5761133a610eae565b5b600061134984828501611310565b91505092915050565b600061135d82610de1565b915061136883610de1565b92508282039050818111156113805761137f610deb565b5b9291505056fea2646970667358221220f506f02ba5882f6e2fd245639107aecb198a41d469372041c7b2deb2b8ddb7bb64736f6c63430008120033",
  "linkReferences": {},
  "deployedLinkReferences": {}
}