{
  "_format": "hh-sol-artifact-1",
  "contractName": "DezRefs",
  "sourceName": "contracts/DezRefs.sol",
  "abi": [
    {
      "inputs": [
        {
          "internalType": "uint256",
          "name": "_refRateLayer1",
          "type": "uint256"
        },
        {
          "internalType": "uint256",
          "name": "_refRateLayer2",
          "type": "uint256"
        },
        {
          "internalType": "uint256",
          "name": "_refRateLayer3",
          "type": "uint256"
        }
      ],
      "stateMutability": "nonpayable",
      "type": "constructor"
    },
    {
      "inputs": [],
      "name": "getRefFees",
      "outputs": [
        {
          "internalType": "uint256[3]",
          "name": "",
          "type": "uint256[3]"
        }
      ],
      "stateMutability": "view",
      "type": "function"
    },
    {
      "inputs": [
        {
          "internalType": "address",
          "name": "_user",
          "type": "address"
        }
      ],
      "name": "getRefLayers",
      "outputs": [
        {
          "internalType": "address[3]",
          "name": "",
          "type": "address[3]"
        }
      ],
      "stateMutability": "view",
      "type": "function"
    },
    {
      "inputs": [
        {
          "internalType": "address",
          "name": "",
          "type": "address"
        }
      ],
      "name": "isRef",
      "outputs": [
        {
          "internalType": "bool",
          "name": "",
          "type": "bool"
        }
      ],
      "stateMutability": "view",
      "type": "function"
    },
    {
      "inputs": [],
      "name": "owner",
      "outputs": [
        {
          "internalType": "address",
          "name": "",
          "type": "address"
        }
      ],
      "stateMutability": "view",
      "type": "function"
    },
    {
      "inputs": [
        {
          "internalType": "address",
          "name": "",
          "type": "address"
        }
      ],
      "name": "ref",
      "outputs": [
        {
          "internalType": "address",
          "name": "",
          "type": "address"
        }
      ],
      "stateMutability": "view",
      "type": "function"
    },
    {
      "inputs": [],
      "name": "refRateLayer1",
      "outputs": [
        {
          "internalType": "uint256",
          "name": "",
          "type": "uint256"
        }
      ],
      "stateMutability": "view",
      "type": "function"
    },
    {
      "inputs": [],
      "name": "refRateLayer2",
      "outputs": [
        {
          "internalType": "uint256",
          "name": "",
          "type": "uint256"
        }
      ],
      "stateMutability": "view",
      "type": "function"
    },
    {
      "inputs": [],
      "name": "refRateLayer3",
      "outputs": [
        {
          "internalType": "uint256",
          "name": "",
          "type": "uint256"
        }
      ],
      "stateMutability": "view",
      "type": "function"
    },
    {
      "inputs": [
        {
          "internalType": "address",
          "name": "_user",
          "type": "address"
        },
        {
          "internalType": "address",
          "name": "_ref",
          "type": "address"
        }
      ],
      "name": "setRef",
      "outputs": [
        {
          "internalType": "bool",
          "name": "",
          "type": "bool"
        }
      ],
      "stateMutability": "nonpayable",
      "type": "function"
    },
    {
      "inputs": [
        {
          "internalType": "uint256",
          "name": "_refRateLayer1",
          "type": "uint256"
        }
      ],
      "name": "setRefRateLayer1",
      "outputs": [],
      "stateMutability": "nonpayable",
      "type": "function"
    },
    {
      "inputs": [
        {
          "internalType": "uint256",
          "name": "_refRateLayer2",
          "type": "uint256"
        }
      ],
      "name": "setRefRateLayer2",
      "outputs": [],
      "stateMutability": "nonpayable",
      "type": "function"
    },
    {
      "inputs": [
        {
          "internalType": "uint256",
          "name": "_refRateLayer3",
          "type": "uint256"
        }
      ],
      "name": "setRefRateLayer3",
      "outputs": [],
      "stateMutability": "nonpayable",
      "type": "function"
    }
  ],
  "bytecode": "0x60806040526078600155603760025560196003553480156200002057600080fd5b506040516200125c3803806200125c8339818101604052810190620000469190620000e4565b336000806101000a81548173ffffffffffffffffffffffffffffffffffffffff021916908373ffffffffffffffffffffffffffffffffffffffff16021790555082600181905550816002819055508060038190555050505062000140565b600080fd5b6000819050919050565b620000be81620000a9565b8114620000ca57600080fd5b50565b600081519050620000de81620000b3565b92915050565b6000806000606084860312156200010057620000ff620000a4565b5b60006200011086828701620000cd565b93505060206200012386828701620000cd565b92505060406200013686828701620000cd565b9150509250925092565b61110c80620001506000396000f3fe608060405234801561001057600080fd5b50600436106100b45760003560e01c806392b077921161007157806392b077921461019f5780639a5a127c146101bd578063aa1fbc99146101db578063c1d48606146101f7578063c4b6ebdf14610215578063dc0e50ea14610245576100b4565b80632a267e19146100b957806344e21646146100e95780634fd79488146101195780635596e50114610149578063725c0cea146101655780638da5cb5b14610181575b600080fd5b6100d360048036038101906100ce9190610b94565b610263565b6040516100e09190610bef565b60405180910390f35b61010360048036038101906100fe9190610c0a565b6105db565b6040516101109190610bef565b60405180910390f35b610133600480360381019061012e9190610c0a565b6105fb565b6040516101409190610ce2565b60405180910390f35b610163600480360381019061015e9190610d33565b610845565b005b61017f600480360381019061017a9190610d33565b6108dd565b005b610189610975565b6040516101969190610d6f565b60405180910390f35b6101a7610999565b6040516101b49190610d99565b60405180910390f35b6101c561099f565b6040516101d29190610e5f565b60405180910390f35b6101f560048036038101906101f09190610d33565b610a16565b005b6101ff610aae565b60405161020c9190610d99565b60405180910390f35b61022f600480360381019061022a9190610c0a565b610ab4565b60405161023c9190610d6f565b60405180910390f35b61024d610ae7565b60405161025a9190610d99565b60405180910390f35b6000600560008473ffffffffffffffffffffffffffffffffffffffff1673ffffffffffffffffffffffffffffffffffffffff16815260200190815260200160002060009054906101000a900460ff16156102f2576040517f08c379a00000000000000000000000000000000000000000000000000000000081526004016102e990610ed7565b60405180910390fd5b8173ffffffffffffffffffffffffffffffffffffffff168373ffffffffffffffffffffffffffffffffffffffff1603610360576040517f08c379a000000000000000000000000000000000000000000000000000000000815260040161035790610f43565b60405180910390fd5b600073ffffffffffffffffffffffffffffffffffffffff16600460008573ffffffffffffffffffffffffffffffffffffffff1673ffffffffffffffffffffffffffffffffffffffff16815260200190815260200160002060009054906101000a900473ffffffffffffffffffffffffffffffffffffffff1673ffffffffffffffffffffffffffffffffffffffff161461042e576040517f08c379a000000000000000000000000000000000000000000000000000000000815260040161042590610faf565b60405180910390fd5b8273ffffffffffffffffffffffffffffffffffffffff16600460008473ffffffffffffffffffffffffffffffffffffffff1673ffffffffffffffffffffffffffffffffffffffff16815260200190815260200160002060009054906101000a900473ffffffffffffffffffffffffffffffffffffffff1673ffffffffffffffffffffffffffffffffffffffff16036104fb576040517f08c379a00000000000000000000000000000000000000000000000000000000081526004016104f29061101b565b60405180910390fd5b6001600560008473ffffffffffffffffffffffffffffffffffffffff1673ffffffffffffffffffffffffffffffffffffffff16815260200190815260200160002060006101000a81548160ff02191690831515021790555081600460008573ffffffffffffffffffffffffffffffffffffffff1673ffffffffffffffffffffffffffffffffffffffff16815260200190815260200160002060006101000a81548173ffffffffffffffffffffffffffffffffffffffff021916908373ffffffffffffffffffffffffffffffffffffffff1602179055506001905092915050565b60056020528060005260406000206000915054906101000a900460ff1681565b610603610aed565b61060b610aed565b600460008473ffffffffffffffffffffffffffffffffffffffff1673ffffffffffffffffffffffffffffffffffffffff16815260200190815260200160002060009054906101000a900473ffffffffffffffffffffffffffffffffffffffff168160006003811061067f5761067e61103b565b5b602002019073ffffffffffffffffffffffffffffffffffffffff16908173ffffffffffffffffffffffffffffffffffffffff168152505060046000826000600381106106ce576106cd61103b565b5b602002015173ffffffffffffffffffffffffffffffffffffffff1673ffffffffffffffffffffffffffffffffffffffff16815260200190815260200160002060009054906101000a900473ffffffffffffffffffffffffffffffffffffffff16816001600381106107425761074161103b565b5b602002019073ffffffffffffffffffffffffffffffffffffffff16908173ffffffffffffffffffffffffffffffffffffffff168152505060046000826001600381106107915761079061103b565b5b602002015173ffffffffffffffffffffffffffffffffffffffff1673ffffffffffffffffffffffffffffffffffffffff16815260200190815260200160002060009054906101000a900473ffffffffffffffffffffffffffffffffffffffff16816002600381106108055761080461103b565b5b602002019073ffffffffffffffffffffffffffffffffffffffff16908173ffffffffffffffffffffffffffffffffffffffff168152505080915050919050565b60008054906101000a900473ffffffffffffffffffffffffffffffffffffffff1673ffffffffffffffffffffffffffffffffffffffff163373ffffffffffffffffffffffffffffffffffffffff16146108d3576040517f08c379a00000000000000000000000000000000000000000000000000000000081526004016108ca906110b6565b60405180910390fd5b8060018190555050565b60008054906101000a900473ffffffffffffffffffffffffffffffffffffffff1673ffffffffffffffffffffffffffffffffffffffff163373ffffffffffffffffffffffffffffffffffffffff161461096b576040517f08c379a0000000000000000000000000000000000000000000000000000000008152600401610962906110b6565b60405180910390fd5b8060028190555050565b60008054906101000a900473ffffffffffffffffffffffffffffffffffffffff1681565b60035481565b6109a7610b0f565b6109af610b0f565b600154816000600381106109c6576109c561103b565b5b602002018181525050600254816001600381106109e6576109e561103b565b5b60200201818152505060035481600260038110610a0657610a0561103b565b5b6020020181815250508091505090565b60008054906101000a900473ffffffffffffffffffffffffffffffffffffffff1673ffffffffffffffffffffffffffffffffffffffff163373ffffffffffffffffffffffffffffffffffffffff1614610aa4576040517f08c379a0000000000000000000000000000000000000000000000000000000008152600401610a9b906110b6565b60405180910390fd5b8060038190555050565b60015481565b60046020528060005260406000206000915054906101000a900473ffffffffffffffffffffffffffffffffffffffff1681565b60025481565b6040518060600160405280600390602082028036833780820191505090505090565b6040518060600160405280600390602082028036833780820191505090505090565b600080fd5b600073ffffffffffffffffffffffffffffffffffffffff82169050919050565b6000610b6182610b36565b9050919050565b610b7181610b56565b8114610b7c57600080fd5b50565b600081359050610b8e81610b68565b92915050565b60008060408385031215610bab57610baa610b31565b5b6000610bb985828601610b7f565b9250506020610bca85828601610b7f565b9150509250929050565b60008115159050919050565b610be981610bd4565b82525050565b6000602082019050610c046000830184610be0565b92915050565b600060208284031215610c2057610c1f610b31565b5b6000610c2e84828501610b7f565b91505092915050565b600060039050919050565b600081905092915050565b6000819050919050565b610c6081610b56565b82525050565b6000610c728383610c57565b60208301905092915050565b6000602082019050919050565b610c9481610c37565b610c9e8184610c42565b9250610ca982610c4d565b8060005b83811015610cda578151610cc18782610c66565b9650610ccc83610c7e565b925050600181019050610cad565b505050505050565b6000606082019050610cf76000830184610c8b565b92915050565b6000819050919050565b610d1081610cfd565b8114610d1b57600080fd5b50565b600081359050610d2d81610d07565b92915050565b600060208284031215610d4957610d48610b31565b5b6000610d5784828501610d1e565b91505092915050565b610d6981610b56565b82525050565b6000602082019050610d846000830184610d60565b92915050565b610d9381610cfd565b82525050565b6000602082019050610dae6000830184610d8a565b92915050565b600060039050919050565b600081905092915050565b6000819050919050565b610ddd81610cfd565b82525050565b6000610def8383610dd4565b60208301905092915050565b6000602082019050919050565b610e1181610db4565b610e1b8184610dbf565b9250610e2682610dca565b8060005b83811015610e57578151610e3e8782610de3565b9650610e4983610dfb565b925050600181019050610e2a565b505050505050565b6000606082019050610e746000830184610e08565b92915050565b600082825260208201905092915050565b7f726f6f742072656620616c726561647920736574000000000000000000000000600082015250565b6000610ec1601483610e7a565b9150610ecc82610e8b565b602082019050919050565b60006020820190508181036000830152610ef081610eb4565b9050919050565b7f7265662063616e6e6f742062652073656c660000000000000000000000000000600082015250565b6000610f2d601283610e7a565b9150610f3882610ef7565b602082019050919050565b60006020820190508181036000830152610f5c81610f20565b9050919050565b7f72656620616c7265616479207365740000000000000000000000000000000000600082015250565b6000610f99600f83610e7a565b9150610fa482610f63565b602082019050919050565b60006020820190508181036000830152610fc881610f8c565b9050919050565b7f7265662063616e6e6f7420626520726566657272657200000000000000000000600082015250565b6000611005601683610e7a565b915061101082610fcf565b602082019050919050565b6000602082019050818103600083015261103481610ff8565b9050919050565b7f4e487b7100000000000000000000000000000000000000000000000000000000600052603260045260246000fd5b7f6e6f74206f776e65720000000000000000000000000000000000000000000000600082015250565b60006110a0600983610e7a565b91506110ab8261106a565b602082019050919050565b600060208201905081810360008301526110cf81611093565b905091905056fea2646970667358221220178bc6355cb5ae894ad8dc2506c077561244b35c98cee0765908e99515985f8464736f6c63430008120033",
  "linkReferences": {},
  "deployedLinkReferences": {}
}