{
  "_format": "hh-sol-artifact-1",
  "contractName": "LfxAirdrop",
  "sourceName": "contracts/LfxAirdrop.sol",
  "abi": [
    {
      "inputs": [
        {
          "internalType": "address",
          "name": "_token",
          "type": "address"
        },
        {
          "internalType": "uint256",
          "name": "_participantsCount",
          "type": "uint256"
        },
        {
          "internalType": "uint256",
          "name": "_depositAmount",
          "type": "uint256"
        },
        {
          "internalType": "uint256",
          "name": "_minDepositAmount",
          "type": "uint256"
        },
        {
          "internalType": "uint256",
          "name": "_maxDepositAmount",
          "type": "uint256"
        }
      ],
      "stateMutability": "nonpayable",
      "type": "constructor"
    },
    {
      "inputs": [
        {
          "internalType": "address",
          "name": "",
          "type": "address"
        }
      ],
      "name": "balanceOf",
      "outputs": [
        {
          "internalType": "uint256",
          "name": "",
          "type": "uint256"
        }
      ],
      "stateMutability": "view",
      "type": "function"
    },
    {
      "inputs": [],
      "name": "depositAmount",
      "outputs": [
        {
          "internalType": "uint256",
          "name": "",
          "type": "uint256"
        }
      ],
      "stateMutability": "view",
      "type": "function"
    },
    {
      "inputs": [],
      "name": "initTimestamp",
      "outputs": [
        {
          "internalType": "uint256",
          "name": "",
          "type": "uint256"
        }
      ],
      "stateMutability": "view",
      "type": "function"
    },
    {
      "inputs": [],
      "name": "isWithdrawable",
      "outputs": [
        {
          "internalType": "bool",
          "name": "",
          "type": "bool"
        }
      ],
      "stateMutability": "view",
      "type": "function"
    },
    {
      "inputs": [],
      "name": "maxDepositAmount",
      "outputs": [
        {
          "internalType": "uint256",
          "name": "",
          "type": "uint256"
        }
      ],
      "stateMutability": "view",
      "type": "function"
    },
    {
      "inputs": [],
      "name": "minDepositAmount",
      "outputs": [
        {
          "internalType": "uint256",
          "name": "",
          "type": "uint256"
        }
      ],
      "stateMutability": "view",
      "type": "function"
    },
    {
      "inputs": [],
      "name": "owner",
      "outputs": [
        {
          "internalType": "address",
          "name": "",
          "type": "address"
        }
      ],
      "stateMutability": "view",
      "type": "function"
    },
    {
      "inputs": [],
      "name": "participantsCount",
      "outputs": [
        {
          "internalType": "uint256",
          "name": "",
          "type": "uint256"
        }
      ],
      "stateMutability": "view",
      "type": "function"
    },
    {
      "inputs": [],
      "name": "token",
      "outputs": [
        {
          "internalType": "contract IERC20",
          "name": "",
          "type": "address"
        }
      ],
      "stateMutability": "view",
      "type": "function"
    },
    {
      "inputs": [],
      "name": "totalSupply",
      "outputs": [
        {
          "internalType": "uint256",
          "name": "",
          "type": "uint256"
        }
      ],
      "stateMutability": "view",
      "type": "function"
    },
    {
      "inputs": [],
      "name": "withdraw",
      "outputs": [],
      "stateMutability": "nonpayable",
      "type": "function"
    },
    {
      "stateMutability": "payable",
      "type": "receive"
    }
  ],
  "bytecode": "0x60a06040523480156200001157600080fd5b5060405162001242380380620012428339818101604052810190620000379190620001d8565b33600760006101000a81548173ffffffffffffffffffffffffffffffffffffffff021916908373ffffffffffffffffffffffffffffffffffffffff1602179055504260018190555060008060006101000a81548160ff0219169083151502179055508473ffffffffffffffffffffffffffffffffffffffff1660808173ffffffffffffffffffffffffffffffffffffffff168152505083600381905550670de0b6b3a764000083620000ea91906200028f565b600481905550670de0b6b3a7640000826200010691906200028f565b600581905550670de0b6b3a7640000816200012291906200028f565b6006819055505050505050620002da565b600080fd5b600073ffffffffffffffffffffffffffffffffffffffff82169050919050565b6000620001658262000138565b9050919050565b620001778162000158565b81146200018357600080fd5b50565b60008151905062000197816200016c565b92915050565b6000819050919050565b620001b2816200019d565b8114620001be57600080fd5b50565b600081519050620001d281620001a7565b92915050565b600080600080600060a08688031215620001f757620001f662000133565b5b6000620002078882890162000186565b95505060206200021a88828901620001c1565b94505060406200022d88828901620001c1565b93505060606200024088828901620001c1565b92505060806200025388828901620001c1565b9150509295509295909350565b7f4e487b7100000000000000000000000000000000000000000000000000000000600052601160045260246000fd5b60006200029c826200019d565b9150620002a9836200019d565b9250828202620002b9816200019d565b91508282048414831517620002d357620002d262000260565b5b5092915050565b608051610f3e62000304600039600081816105b50152818161067801526107d60152610f3e6000f3fe6080604052600436106100a05760003560e01c806370a082311161006457806370a082311461030a5780637358c57a146103475780638da5cb5b146103725780638ed832711461039d578063dd60c898146103c8578063fc0c546a146103f357610242565b806318160ddd146102475780633ccfd60b14610272578063419759f5146102895780634d840bcc146102b4578063645006ca146102df57610242565b36610242576000151560008054906101000a900460ff161515146100f9576040517f08c379a00000000000000000000000000000000000000000000000000000000081526004016100f0906108ee565b60405180910390fd5b6000600860003373ffffffffffffffffffffffffffffffffffffffff1673ffffffffffffffffffffffffffffffffffffffff168152602001908152602001600020541461017b576040517f08c379a000000000000000000000000000000000000000000000000000000000815260040161017290610980565b60405180910390fd5b600554341015801561018f57506006543411155b6101ce576040517f08c379a00000000000000000000000000000000000000000000000000000000081526004016101c590610a12565b60405180910390fd5b6001600360008282546101e19190610a6b565b9250508190555034600460008282546101fa9190610a6b565b9250508190555060006003541115806102165750600060045411155b156102365760016000806101000a81548160ff0219169083151502179055505b610240333461041e565b005b600080fd5b34801561025357600080fd5b5061025c610491565b6040516102699190610aae565b60405180910390f35b34801561027e57600080fd5b50610287610497565b005b34801561029557600080fd5b5061029e610767565b6040516102ab9190610aae565b60405180910390f35b3480156102c057600080fd5b506102c961076d565b6040516102d69190610ae4565b60405180910390f35b3480156102eb57600080fd5b506102f461077e565b6040516103019190610aae565b60405180910390f35b34801561031657600080fd5b50610331600480360381019061032c9190610b62565b610784565b60405161033e9190610aae565b60405180910390f35b34801561035357600080fd5b5061035c61079c565b6040516103699190610aae565b60405180910390f35b34801561037e57600080fd5b506103876107a2565b6040516103949190610b9e565b60405180910390f35b3480156103a957600080fd5b506103b26107c8565b6040516103bf9190610aae565b60405180910390f35b3480156103d457600080fd5b506103dd6107ce565b6040516103ea9190610aae565b60405180910390f35b3480156103ff57600080fd5b506104086107d4565b6040516104159190610c18565b60405180910390f35b80600260008282546104309190610c33565b9250508190555080600860008473ffffffffffffffffffffffffffffffffffffffff1673ffffffffffffffffffffffffffffffffffffffff16815260200190815260200160002060008282546104869190610c33565b925050819055505050565b60025481565b6001151560008054906101000a900460ff161515146104eb576040517f08c379a00000000000000000000000000000000000000000000000000000000081526004016104e290610cd9565b60405180910390fd5b6000600860003373ffffffffffffffffffffffffffffffffffffffff1673ffffffffffffffffffffffffffffffffffffffff168152602001908152602001600020541161056d576040517f08c379a000000000000000000000000000000000000000000000000000000000815260040161056490610d6b565b60405180910390fd5b6000600860003373ffffffffffffffffffffffffffffffffffffffff1673ffffffffffffffffffffffffffffffffffffffff16815260200190815260200160002054905060007f000000000000000000000000000000000000000000000000000000000000000073ffffffffffffffffffffffffffffffffffffffff166370a08231306040518263ffffffff1660e01b815260040161060c9190610b9e565b602060405180830381865afa158015610629573d6000803e3d6000fd5b505050506040513d601f19601f8201168201806040525081019061064d9190610db7565b9050600060025482846106609190610de4565b61066a9190610e55565b905061067633846107f8565b7f000000000000000000000000000000000000000000000000000000000000000073ffffffffffffffffffffffffffffffffffffffff1663a9059cbb33836040518363ffffffff1660e01b81526004016106d1929190610e86565b6020604051808303816000875af11580156106f0573d6000803e3d6000fd5b505050506040513d601f19601f820116820180604052508101906107149190610edb565b5060003390508073ffffffffffffffffffffffffffffffffffffffff166108fc859081150290604051600060405180830381858888f19350505050158015610760573d6000803e3d6000fd5b5050505050565b60045481565b60008054906101000a900460ff1681565b60055481565b60086020528060005260406000206000915090505481565b60015481565b600760009054906101000a900473ffffffffffffffffffffffffffffffffffffffff1681565b60065481565b60035481565b7f000000000000000000000000000000000000000000000000000000000000000081565b806002600082825461080a9190610a6b565b9250508190555080600860008473ffffffffffffffffffffffffffffffffffffffff1673ffffffffffffffffffffffffffffffffffffffff16815260200190815260200160002060008282546108609190610a6b565b925050819055505050565b600082825260208201905092915050565b7f4c667841697264726f703a205468652061697264726f7020697320616c72656160008201527f64792066696e6973686564000000000000000000000000000000000000000000602082015250565b60006108d8602b8361086b565b91506108e38261087c565b604082019050919050565b60006020820190508181036000830152610907816108cb565b9050919050565b7f4c667841697264726f703a20596f75206861766520616c72656164792064657060008201527f6f73697465640000000000000000000000000000000000000000000000000000602082015250565b600061096a60268361086b565b91506109758261090e565b604082019050919050565b600060208201905081810360008301526109998161095d565b9050919050565b7f4c667841697264726f703a2056616c7565206d75737420626520696e2072616e60008201527f6765000000000000000000000000000000000000000000000000000000000000602082015250565b60006109fc60228361086b565b9150610a07826109a0565b604082019050919050565b60006020820190508181036000830152610a2b816109ef565b9050919050565b6000819050919050565b7f4e487b7100000000000000000000000000000000000000000000000000000000600052601160045260246000fd5b6000610a7682610a32565b9150610a8183610a32565b9250828203905081811115610a9957610a98610a3c565b5b92915050565b610aa881610a32565b82525050565b6000602082019050610ac36000830184610a9f565b92915050565b60008115159050919050565b610ade81610ac9565b82525050565b6000602082019050610af96000830184610ad5565b92915050565b600080fd5b600073ffffffffffffffffffffffffffffffffffffffff82169050919050565b6000610b2f82610b04565b9050919050565b610b3f81610b24565b8114610b4a57600080fd5b50565b600081359050610b5c81610b36565b92915050565b600060208284031215610b7857610b77610aff565b5b6000610b8684828501610b4d565b91505092915050565b610b9881610b24565b82525050565b6000602082019050610bb36000830184610b8f565b92915050565b6000819050919050565b6000610bde610bd9610bd484610b04565b610bb9565b610b04565b9050919050565b6000610bf082610bc3565b9050919050565b6000610c0282610be5565b9050919050565b610c1281610bf7565b82525050565b6000602082019050610c2d6000830184610c09565b92915050565b6000610c3e82610a32565b9150610c4983610a32565b9250828201905080821115610c6157610c60610a3c565b5b92915050565b7f4c667841697264726f703a205468652061697264726f70206973206e6f74206660008201527f696e697368656420796574000000000000000000000000000000000000000000602082015250565b6000610cc3602b8361086b565b9150610cce82610c67565b604082019050919050565b60006020820190508181036000830152610cf281610cb6565b9050919050565b7f4c667841697264726f703a20596f752068617665206e6f2062616c616e63652060008201527f746f207769746864726177000000000000000000000000000000000000000000602082015250565b6000610d55602b8361086b565b9150610d6082610cf9565b604082019050919050565b60006020820190508181036000830152610d8481610d48565b9050919050565b610d9481610a32565b8114610d9f57600080fd5b50565b600081519050610db181610d8b565b92915050565b600060208284031215610dcd57610dcc610aff565b5b6000610ddb84828501610da2565b91505092915050565b6000610def82610a32565b9150610dfa83610a32565b9250828202610e0881610a32565b91508282048414831517610e1f57610e1e610a3c565b5b5092915050565b7f4e487b7100000000000000000000000000000000000000000000000000000000600052601260045260246000fd5b6000610e6082610a32565b9150610e6b83610a32565b925082610e7b57610e7a610e26565b5b828204905092915050565b6000604082019050610e9b6000830185610b8f565b610ea86020830184610a9f565b9392505050565b610eb881610ac9565b8114610ec357600080fd5b50565b600081519050610ed581610eaf565b92915050565b600060208284031215610ef157610ef0610aff565b5b6000610eff84828501610ec6565b9150509291505056fea2646970667358221220ebaa0dea2659af30e580b86ee0a5007ff7e8f4d190cf613a090cb07b1e54c2de64736f6c63430008120033",
  "linkReferences": {},
  "deployedLinkReferences": {}
}