{
  "_format": "hh-sol-artifact-1",
  "contractName": "Lotte",
  "sourceName": "contracts/Lotte.sol",
  "abi": [
    {
      "inputs": [
        {
          "internalType": "address",
          "name": "_token",
          "type": "address"
        },
        {
          "internalType": "address",
          "name": "_vaultAddress",
          "type": "address"
        },
        {
          "internalType": "uint256",
          "name": "_ticketPrice",
          "type": "uint256"
        },
        {
          "internalType": "uint256",
          "name": "_minDrawDuration",
          "type": "uint256"
        },
        {
          "internalType": "uint256",
          "name": "_systemFeeRate",
          "type": "uint256"
        },
        {
          "internalType": "uint256",
          "name": "_drawFeeRate",
          "type": "uint256"
        },
        {
          "internalType": "uint256",
          "name": "_burnRate",
          "type": "uint256"
        },
        {
          "internalType": "uint256",
          "name": "_refRateLayer1",
          "type": "uint256"
        },
        {
          "internalType": "uint256",
          "name": "_refRateLayer2",
          "type": "uint256"
        },
        {
          "internalType": "uint256",
          "name": "_refRateLayer3",
          "type": "uint256"
        }
      ],
      "stateMutability": "nonpayable",
      "type": "constructor"
    },
    {
      "anonymous": false,
      "inputs": [
        {
          "indexed": true,
          "internalType": "address",
          "name": "_from",
          "type": "address"
        },
        {
          "components": [
            {
              "internalType": "uint256",
              "name": "timestamp",
              "type": "uint256"
            },
            {
              "internalType": "uint256",
              "name": "winningNumber",
              "type": "uint256"
            },
            {
              "internalType": "uint256",
              "name": "winnerCount",
              "type": "uint256"
            },
            {
              "internalType": "uint256",
              "name": "winnerAmount",
              "type": "uint256"
            },
            {
              "internalType": "address[]",
              "name": "winnerList",
              "type": "address[]"
            }
          ],
          "indexed": false,
          "internalType": "struct Lotte.Draw",
          "name": "draw",
          "type": "tuple"
        }
      ],
      "name": "EvtDraw",
      "type": "event"
    },
    {
      "anonymous": false,
      "inputs": [
        {
          "indexed": true,
          "internalType": "address",
          "name": "_from",
          "type": "address"
        },
        {
          "indexed": false,
          "internalType": "uint256[]",
          "name": "tickets",
          "type": "uint256[]"
        }
      ],
      "name": "EvtPurchase",
      "type": "event"
    },
    {
      "inputs": [
        {
          "internalType": "address",
          "name": "",
          "type": "address"
        }
      ],
      "name": "balanceOf",
      "outputs": [
        {
          "internalType": "uint256",
          "name": "",
          "type": "uint256"
        }
      ],
      "stateMutability": "view",
      "type": "function"
    },
    {
      "inputs": [],
      "name": "burnRate",
      "outputs": [
        {
          "internalType": "uint256",
          "name": "",
          "type": "uint256"
        }
      ],
      "stateMutability": "view",
      "type": "function"
    },
    {
      "inputs": [],
      "name": "draw",
      "outputs": [],
      "stateMutability": "nonpayable",
      "type": "function"
    },
    {
      "inputs": [
        {
          "internalType": "uint256",
          "name": "",
          "type": "uint256"
        }
      ],
      "name": "drawData",
      "outputs": [
        {
          "internalType": "uint256",
          "name": "timestamp",
          "type": "uint256"
        },
        {
          "internalType": "uint256",
          "name": "winningNumber",
          "type": "uint256"
        },
        {
          "internalType": "uint256",
          "name": "winnerCount",
          "type": "uint256"
        },
        {
          "internalType": "uint256",
          "name": "winnerAmount",
          "type": "uint256"
        }
      ],
      "stateMutability": "view",
      "type": "function"
    },
    {
      "inputs": [],
      "name": "drawFeeRate",
      "outputs": [
        {
          "internalType": "uint256",
          "name": "",
          "type": "uint256"
        }
      ],
      "stateMutability": "view",
      "type": "function"
    },
    {
      "inputs": [
        {
          "internalType": "uint256",
          "name": "ticketNumber",
          "type": "uint256"
        }
      ],
      "name": "getAddressListByTicketNumber",
      "outputs": [
        {
          "internalType": "address[]",
          "name": "",
          "type": "address[]"
        }
      ],
      "stateMutability": "view",
      "type": "function"
    },
    {
      "inputs": [
        {
          "internalType": "uint256",
          "name": "ticketNumber",
          "type": "uint256"
        }
      ],
      "name": "getAmountOfTicketByTicketNumber",
      "outputs": [
        {
          "internalType": "uint256",
          "name": "",
          "type": "uint256"
        }
      ],
      "stateMutability": "view",
      "type": "function"
    },
    {
      "inputs": [],
      "name": "getConfig",
      "outputs": [
        {
          "internalType": "uint256",
          "name": "",
          "type": "uint256"
        },
        {
          "internalType": "uint256",
          "name": "",
          "type": "uint256"
        },
        {
          "internalType": "uint256",
          "name": "",
          "type": "uint256"
        },
        {
          "internalType": "uint256",
          "name": "",
          "type": "uint256"
        },
        {
          "internalType": "uint256",
          "name": "",
          "type": "uint256"
        },
        {
          "internalType": "uint256",
          "name": "",
          "type": "uint256"
        },
        {
          "internalType": "uint256",
          "name": "",
          "type": "uint256"
        },
        {
          "internalType": "uint256",
          "name": "",
          "type": "uint256"
        }
      ],
      "stateMutability": "view",
      "type": "function"
    },
    {
      "inputs": [],
      "name": "getInformation",
      "outputs": [
        {
          "internalType": "uint256",
          "name": "",
          "type": "uint256"
        },
        {
          "internalType": "uint256",
          "name": "",
          "type": "uint256"
        },
        {
          "internalType": "bool",
          "name": "",
          "type": "bool"
        },
        {
          "internalType": "uint256",
          "name": "",
          "type": "uint256"
        },
        {
          "internalType": "uint256",
          "name": "",
          "type": "uint256"
        },
        {
          "internalType": "uint256",
          "name": "",
          "type": "uint256"
        },
        {
          "internalType": "uint256",
          "name": "",
          "type": "uint256"
        },
        {
          "internalType": "uint256",
          "name": "",
          "type": "uint256"
        },
        {
          "internalType": "uint256",
          "name": "",
          "type": "uint256"
        }
      ],
      "stateMutability": "view",
      "type": "function"
    },
    {
      "inputs": [],
      "name": "getLastDraw",
      "outputs": [
        {
          "components": [
            {
              "internalType": "uint256",
              "name": "timestamp",
              "type": "uint256"
            },
            {
              "internalType": "uint256",
              "name": "winningNumber",
              "type": "uint256"
            },
            {
              "internalType": "uint256",
              "name": "winnerCount",
              "type": "uint256"
            },
            {
              "internalType": "uint256",
              "name": "winnerAmount",
              "type": "uint256"
            },
            {
              "internalType": "address[]",
              "name": "winnerList",
              "type": "address[]"
            }
          ],
          "internalType": "struct Lotte.Draw",
          "name": "",
          "type": "tuple"
        }
      ],
      "stateMutability": "view",
      "type": "function"
    },
    {
      "inputs": [],
      "name": "getRandom",
      "outputs": [
        {
          "internalType": "uint256",
          "name": "",
          "type": "uint256"
        }
      ],
      "stateMutability": "view",
      "type": "function"
    },
    {
      "inputs": [
        {
          "internalType": "address",
          "name": "_address",
          "type": "address"
        }
      ],
      "name": "getTicketListByAddress",
      "outputs": [
        {
          "internalType": "uint256[]",
          "name": "",
          "type": "uint256[]"
        }
      ],
      "stateMutability": "view",
      "type": "function"
    },
    {
      "inputs": [],
      "name": "getTotalPot",
      "outputs": [
        {
          "internalType": "uint256",
          "name": "",
          "type": "uint256"
        }
      ],
      "stateMutability": "view",
      "type": "function"
    },
    {
      "inputs": [],
      "name": "lastDrawTimestamp",
      "outputs": [
        {
          "internalType": "uint256",
          "name": "",
          "type": "uint256"
        }
      ],
      "stateMutability": "view",
      "type": "function"
    },
    {
      "inputs": [],
      "name": "minDrawDuration",
      "outputs": [
        {
          "internalType": "uint256",
          "name": "",
          "type": "uint256"
        }
      ],
      "stateMutability": "view",
      "type": "function"
    },
    {
      "inputs": [],
      "name": "owner",
      "outputs": [
        {
          "internalType": "address",
          "name": "",
          "type": "address"
        }
      ],
      "stateMutability": "view",
      "type": "function"
    },
    {
      "inputs": [
        {
          "internalType": "uint256[]",
          "name": "_tickets",
          "type": "uint256[]"
        },
        {
          "internalType": "address",
          "name": "refAddress",
          "type": "address"
        }
      ],
      "name": "purchase",
      "outputs": [],
      "stateMutability": "nonpayable",
      "type": "function"
    },
    {
      "inputs": [
        {
          "internalType": "address",
          "name": "",
          "type": "address"
        }
      ],
      "name": "ref",
      "outputs": [
        {
          "internalType": "address",
          "name": "",
          "type": "address"
        }
      ],
      "stateMutability": "view",
      "type": "function"
    },
    {
      "inputs": [],
      "name": "refRateLayer1",
      "outputs": [
        {
          "internalType": "uint256",
          "name": "",
          "type": "uint256"
        }
      ],
      "stateMutability": "view",
      "type": "function"
    },
    {
      "inputs": [],
      "name": "refRateLayer2",
      "outputs": [
        {
          "internalType": "uint256",
          "name": "",
          "type": "uint256"
        }
      ],
      "stateMutability": "view",
      "type": "function"
    },
    {
      "inputs": [],
      "name": "refRateLayer3",
      "outputs": [
        {
          "internalType": "uint256",
          "name": "",
          "type": "uint256"
        }
      ],
      "stateMutability": "view",
      "type": "function"
    },
    {
      "inputs": [],
      "name": "round",
      "outputs": [
        {
          "internalType": "uint256",
          "name": "",
          "type": "uint256"
        }
      ],
      "stateMutability": "view",
      "type": "function"
    },
    {
      "inputs": [
        {
          "internalType": "uint256",
          "name": "_burnRate",
          "type": "uint256"
        }
      ],
      "name": "setBurnRate",
      "outputs": [],
      "stateMutability": "nonpayable",
      "type": "function"
    },
    {
      "inputs": [
        {
          "internalType": "uint256",
          "name": "_drawFeeRate",
          "type": "uint256"
        }
      ],
      "name": "setDrawFeeRate",
      "outputs": [],
      "stateMutability": "nonpayable",
      "type": "function"
    },
    {
      "inputs": [
        {
          "internalType": "uint256",
          "name": "_minDrawDuration",
          "type": "uint256"
        }
      ],
      "name": "setMinDrawDuration",
      "outputs": [],
      "stateMutability": "nonpayable",
      "type": "function"
    },
    {
      "inputs": [
        {
          "internalType": "uint256",
          "name": "_refRateLayer1",
          "type": "uint256"
        }
      ],
      "name": "setRefRateLayer1",
      "outputs": [],
      "stateMutability": "nonpayable",
      "type": "function"
    },
    {
      "inputs": [
        {
          "internalType": "uint256",
          "name": "_refRateLayer2",
          "type": "uint256"
        }
      ],
      "name": "setRefRateLayer2",
      "outputs": [],
      "stateMutability": "nonpayable",
      "type": "function"
    },
    {
      "inputs": [
        {
          "internalType": "uint256",
          "name": "_refRateLayer3",
          "type": "uint256"
        }
      ],
      "name": "setRefRateLayer3",
      "outputs": [],
      "stateMutability": "nonpayable",
      "type": "function"
    },
    {
      "inputs": [
        {
          "internalType": "uint256",
          "name": "_systemFeeRate",
          "type": "uint256"
        }
      ],
      "name": "setSystemFeeRate",
      "outputs": [],
      "stateMutability": "nonpayable",
      "type": "function"
    },
    {
      "inputs": [
        {
          "internalType": "uint256",
          "name": "_ticketPrice",
          "type": "uint256"
        }
      ],
      "name": "setTicketPrice",
      "outputs": [],
      "stateMutability": "nonpayable",
      "type": "function"
    },
    {
      "inputs": [],
      "name": "systemFeeRate",
      "outputs": [
        {
          "internalType": "uint256",
          "name": "",
          "type": "uint256"
        }
      ],
      "stateMutability": "view",
      "type": "function"
    },
    {
      "inputs": [],
      "name": "ticketPrice",
      "outputs": [
        {
          "internalType": "uint256",
          "name": "",
          "type": "uint256"
        }
      ],
      "stateMutability": "view",
      "type": "function"
    },
    {
      "inputs": [],
      "name": "token",
      "outputs": [
        {
          "internalType": "contract IERC20",
          "name": "",
          "type": "address"
        }
      ],
      "stateMutability": "view",
      "type": "function"
    },
    {
      "inputs": [],
      "name": "totalSupply",
      "outputs": [
        {
          "internalType": "uint256",
          "name": "",
          "type": "uint256"
        }
      ],
      "stateMutability": "view",
      "type": "function"
    },
    {
      "inputs": [],
      "name": "totalTicket",
      "outputs": [
        {
          "internalType": "uint256",
          "name": "",
          "type": "uint256"
        }
      ],
      "stateMutability": "view",
      "type": "function"
    },
    {
      "inputs": [],
      "name": "vaultAddress",
      "outputs": [
        {
          "internalType": "address",
          "name": "",
          "type": "address"
        }
      ],
      "stateMutability": "view",
      "type": "function"
    },
    {
      "inputs": [
        {
          "internalType": "uint256",
          "name": "amount",
          "type": "uint256"
        }
      ],
      "name": "withdraw",
      "outputs": [],
      "stateMutability": "nonpayable",
      "type": "function"
    }
  ],
  "bytecode": "0x60e0604052600073ffffffffffffffffffffffffffffffffffffffff1660809073ffffffffffffffffffffffffffffffffffffffff168152506101906007556101f460085560646009556078600a556037600b556019600c553480156200006557600080fd5b5060405162003ad738038062003ad783398181016040528101906200008b91906200022f565b336000806101000a81548173ffffffffffffffffffffffffffffffffffffffff021916908373ffffffffffffffffffffffffffffffffffffffff1602179055504260028190555060006001819055508973ffffffffffffffffffffffffffffffffffffffff1660a08173ffffffffffffffffffffffffffffffffffffffff16815250508873ffffffffffffffffffffffffffffffffffffffff1660c08173ffffffffffffffffffffffffffffffffffffffff1681525050876003819055508660048190555085600781905550846008819055508360098190555082600a8190555081600b8190555080600c819055505050505050505050505062000325565b600080fd5b600073ffffffffffffffffffffffffffffffffffffffff82169050919050565b6000620001bc826200018f565b9050919050565b620001ce81620001af565b8114620001da57600080fd5b50565b600081519050620001ee81620001c3565b92915050565b6000819050919050565b6200020981620001f4565b81146200021557600080fd5b50565b6000815190506200022981620001fe565b92915050565b6000806000806000806000806000806101408b8d0312156200025657620002556200018a565b5b6000620002668d828e01620001dd565b9a50506020620002798d828e01620001dd565b99505060406200028c8d828e0162000218565b98505060606200029f8d828e0162000218565b9750506080620002b28d828e0162000218565b96505060a0620002c58d828e0162000218565b95505060c0620002d88d828e0162000218565b94505060e0620002eb8d828e0162000218565b935050610100620002ff8d828e0162000218565b925050610120620003138d828e0162000218565b9150509295989b9194979a5092959850565b60805160a05160c051613720620003b760003960008181610c9a01528181610d1a01528181610f9d015281816115fb01528181611a820152818161231e015281816123da015261243b01526000818161181d01528181611f87015281816123450152612507015260008181610bb501528181610c6001528181610fc7015281816116fa0152611a1e01526137206000f3fe608060405234801561001057600080fd5b50600436106102275760003560e01c806392b0779211610130578063c3f909d4116100b8578063e80f2fb21161007c578063e80f2fb214610632578063e94bc43b14610650578063f31607451461066e578063fc0c546a1461068a578063fd301423146106a857610227565b8063c3f909d414610571578063c4b6ebdf14610596578063c60ab694146105c6578063c7f698f9146105f6578063dc0e50ea1461061457610227565b8063b8a28336116100ff578063b8a28336146104be578063bed99850146104dc578063c0da1e68146104fa578063c172d6a414610520578063c1d486061461055357610227565b806392b077921461044a5780639351f0ac14610468578063aa1fbc9914610484578063aacc5a17146104a057610227565b8063430bf08a116101b35780635c97b6e1116101825780635c97b6e1146103a657806370a08231146103c2578063725c0cea146103f25780638c21460b1461040e5780638da5cb5b1461042c57610227565b8063430bf08a14610330578063480bc31f1461034e578063496d2f3d1461036c5780635596e5011461038a57610227565b8063146ca531116101fa578063146ca531146102a057806315981650146102be57806318160ddd146102da578063189d165e146102f85780632e1a7d4d1461031457610227565b806307fcbd6f1461022c57806308c49767146102485780630eecae21146102785780631209b1f614610282575b600080fd5b61024660048036038101906102419190612650565b6106d8565b005b610262600480360381019061025d9190612650565b610770565b60405161026f919061276d565b60405180910390f35b6102806109e2565b005b61028a610dca565b604051610297919061279e565b60405180910390f35b6102a8610dd0565b6040516102b5919061279e565b60405180910390f35b6102d860048036038101906102d39190612650565b610dd6565b005b6102e2610e6e565b6040516102ef919061279e565b60405180910390f35b610312600480360381019061030d9190612650565b610e74565b005b61032e60048036038101906103299190612650565b610f0c565b005b610338610f9b565b60405161034591906127c8565b60405180910390f35b610356610fbf565b604051610363919061279e565b60405180910390f35b610374611026565b604051610381919061279e565b60405180910390f35b6103a4600480360381019061039f9190612650565b61102c565b005b6103c060048036038101906103bb9190612650565b6110c4565b005b6103dc60048036038101906103d7919061280f565b61115c565b6040516103e9919061279e565b60405180910390f35b61040c60048036038101906104079190612650565b611174565b005b61041661120c565b604051610423919061279e565b60405180910390f35b610434611212565b60405161044191906127c8565b60405180910390f35b610452611236565b60405161045f919061279e565b60405180910390f35b610482600480360381019061047d91906128a1565b61123c565b005b61049e60048036038101906104999190612650565b611917565b005b6104a86119af565b6040516104b5919061279e565b60405180910390f35b6104c66119fd565b6040516104d3919061279e565b60405180910390f35b6104e4611a03565b6040516104f1919061279e565b60405180910390f35b610502611a09565b6040516105179998979695949392919061291c565b60405180910390f35b61053a60048036038101906105359190612650565b611b74565b60405161054a94939291906129a9565b60405180910390f35b61055b611ba4565b604051610568919061279e565b60405180910390f35b610579611baa565b60405161058d9897969594939291906129ee565b60405180910390f35b6105b060048036038101906105ab919061280f565b611be8565b6040516105bd91906127c8565b60405180910390f35b6105e060048036038101906105db919061280f565b611c1b565b6040516105ed9190612b2a565b60405180910390f35b6105fe611ded565b60405161060b9190612c31565b60405180910390f35b61061c611edb565b604051610629919061279e565b60405180910390f35b61063a611ee1565b604051610647919061279e565b60405180910390f35b610658611ee7565b604051610665919061279e565b60405180910390f35b61068860048036038101906106839190612650565b611eed565b005b610692611f85565b60405161069f9190612cb2565b60405180910390f35b6106c260048036038101906106bd9190612650565b611fa9565b6040516106cf919061279e565b60405180910390f35b60008054906101000a900473ffffffffffffffffffffffffffffffffffffffff1673ffffffffffffffffffffffffffffffffffffffff163373ffffffffffffffffffffffffffffffffffffffff1614610766576040517f08c379a000000000000000000000000000000000000000000000000000000000815260040161075d90612d2a565b60405180910390fd5b8060088190555050565b6060600060055467ffffffffffffffff8111156107905761078f612d4a565b5b6040519080825280602002602001820160405280156107be5781602001602082028036833780820191505090505b5090506000805b6005548110156109025784600e6000838152602001908152602001600020600101541480156108575750600073ffffffffffffffffffffffffffffffffffffffff16600e600083815260200190815260200160002060000160009054906101000a900473ffffffffffffffffffffffffffffffffffffffff1673ffffffffffffffffffffffffffffffffffffffff1614155b156108ef57600e600082815260200190815260200160002060000160009054906101000a900473ffffffffffffffffffffffffffffffffffffffff168383815181106108a6576108a5612d79565b5b602002602001019073ffffffffffffffffffffffffffffffffffffffff16908173ffffffffffffffffffffffffffffffffffffffff168152505081806108eb90612dd7565b9250505b80806108fa90612dd7565b9150506107c5565b5060008167ffffffffffffffff81111561091f5761091e612d4a565b5b60405190808252806020026020018201604052801561094d5781602001602082028036833780820191505090505b50905060005b828110156109d65783818151811061096e5761096d612d79565b5b602002602001015182828151811061098957610988612d79565b5b602002602001019073ffffffffffffffffffffffffffffffffffffffff16908173ffffffffffffffffffffffffffffffffffffffff168152505080806109ce90612dd7565b915050610953565b50809350505050919050565b600454600254426109f39190612e1f565b1015610a34576040517f08c379a0000000000000000000000000000000000000000000000000000000008152600401610a2b90612e9f565b60405180910390fd5b600760055411610a79576040517f08c379a0000000000000000000000000000000000000000000000000000000008152600401610a7090612f31565b60405180910390fd5b60003073ffffffffffffffffffffffffffffffffffffffff1663aacc5a176040518163ffffffff1660e01b8152600401602060405180830381865afa158015610ac6573d6000803e3d6000fd5b505050506040513d601f19601f82011682018060405250810190610aea9190612f66565b905060003073ffffffffffffffffffffffffffffffffffffffff1663fd301423836040518263ffffffff1660e01b8152600401610b27919061279e565b602060405180830381865afa158015610b44573d6000803e3d6000fd5b505050506040513d601f19601f82011682018060405250810190610b689190612f66565b905081600f600060015481526020019081526020016000206001018190555042600f60006001548152602001908152602001600020600001819055506000811115610c92576000601060007f000000000000000000000000000000000000000000000000000000000000000073ffffffffffffffffffffffffffffffffffffffff1673ffffffffffffffffffffffffffffffffffffffff16815260200190815260200160002054905060008282610c1f9190612fc2565b905082600f600060015481526020019081526020016000206002018190555080600f6000600154815260200190815260200160002060030181905550610c857f000000000000000000000000000000000000000000000000000000000000000083612072565b610c8f84826120e5565b50505b6000601060007f000000000000000000000000000000000000000000000000000000000000000073ffffffffffffffffffffffffffffffffffffffff1673ffffffffffffffffffffffffffffffffffffffff168152602001908152602001600020549050600061271060085483610d099190612ff3565b610d139190612fc2565b9050610d3f7f000000000000000000000000000000000000000000000000000000000000000082612072565b610d493382612287565b610d52826122fa565b610d5a6123d2565b3373ffffffffffffffffffffffffffffffffffffffff167f66cfcd266d4022cf6aa445acdc9521a4fa00ffb349f8a1231a5610adb64ce1d2600f60006001548152602001908152602001600020604051610db491906131e8565b60405180910390a2610dc4612463565b50505050565b60035481565b60015481565b60008054906101000a900473ffffffffffffffffffffffffffffffffffffffff1673ffffffffffffffffffffffffffffffffffffffff163373ffffffffffffffffffffffffffffffffffffffff1614610e64576040517f08c379a0000000000000000000000000000000000000000000000000000000008152600401610e5b90612d2a565b60405180910390fd5b8060038190555050565b60065481565b60008054906101000a900473ffffffffffffffffffffffffffffffffffffffff1673ffffffffffffffffffffffffffffffffffffffff163373ffffffffffffffffffffffffffffffffffffffff1614610f02576040517f08c379a0000000000000000000000000000000000000000000000000000000008152600401610ef990612d2a565b60405180910390fd5b8060098190555050565b80601060003373ffffffffffffffffffffffffffffffffffffffff1673ffffffffffffffffffffffffffffffffffffffff168152602001908152602001600020541015610f8e576040517f08c379a0000000000000000000000000000000000000000000000000000000008152600401610f8590613256565b60405180910390fd5b610f98338261248c565b50565b7f000000000000000000000000000000000000000000000000000000000000000081565b6000601060007f000000000000000000000000000000000000000000000000000000000000000073ffffffffffffffffffffffffffffffffffffffff1673ffffffffffffffffffffffffffffffffffffffff16815260200190815260200160002054905090565b60045481565b60008054906101000a900473ffffffffffffffffffffffffffffffffffffffff1673ffffffffffffffffffffffffffffffffffffffff163373ffffffffffffffffffffffffffffffffffffffff16146110ba576040517f08c379a00000000000000000000000000000000000000000000000000000000081526004016110b190612d2a565b60405180910390fd5b80600a8190555050565b60008054906101000a900473ffffffffffffffffffffffffffffffffffffffff1673ffffffffffffffffffffffffffffffffffffffff163373ffffffffffffffffffffffffffffffffffffffff1614611152576040517f08c379a000000000000000000000000000000000000000000000000000000000815260040161114990612d2a565b60405180910390fd5b8060078190555050565b60106020528060005260406000206000915090505481565b60008054906101000a900473ffffffffffffffffffffffffffffffffffffffff1673ffffffffffffffffffffffffffffffffffffffff163373ffffffffffffffffffffffffffffffffffffffff1614611202576040517f08c379a00000000000000000000000000000000000000000000000000000000081526004016111f990612d2a565b60405180910390fd5b80600b8190555050565b60025481565b60008054906101000a900473ffffffffffffffffffffffffffffffffffffffff1681565b600c5481565b60008383905011611282576040517f08c379a0000000000000000000000000000000000000000000000000000000008152600401611279906132c2565b60405180910390fd5b60078383905011156112c9576040517f08c379a00000000000000000000000000000000000000000000000000000000081526004016112c090613354565b60405180910390fd5b3373ffffffffffffffffffffffffffffffffffffffff168173ffffffffffffffffffffffffffffffffffffffff1603611337576040517f08c379a000000000000000000000000000000000000000000000000000000000815260040161132e906133e6565b60405180910390fd5b60008383905060035461134a9190612ff3565b90506000819050600073ffffffffffffffffffffffffffffffffffffffff16600d60003373ffffffffffffffffffffffffffffffffffffffff1673ffffffffffffffffffffffffffffffffffffffff16815260200190815260200160002060009054906101000a900473ffffffffffffffffffffffffffffffffffffffff1673ffffffffffffffffffffffffffffffffffffffff161480156114195750600073ffffffffffffffffffffffffffffffffffffffff168373ffffffffffffffffffffffffffffffffffffffff1614155b1561149d5782600d60003373ffffffffffffffffffffffffffffffffffffffff1673ffffffffffffffffffffffffffffffffffffffff16815260200190815260200160002060006101000a81548173ffffffffffffffffffffffffffffffffffffffff021916908373ffffffffffffffffffffffffffffffffffffffff1602179055505b6000600d60003373ffffffffffffffffffffffffffffffffffffffff1673ffffffffffffffffffffffffffffffffffffffff16815260200190815260200160002060009054906101000a900473ffffffffffffffffffffffffffffffffffffffff1690506000600d60008373ffffffffffffffffffffffffffffffffffffffff1673ffffffffffffffffffffffffffffffffffffffff16815260200190815260200160002060009054906101000a900473ffffffffffffffffffffffffffffffffffffffff1690506000600d60008373ffffffffffffffffffffffffffffffffffffffff1673ffffffffffffffffffffffffffffffffffffffff16815260200190815260200160002060009054906101000a900473ffffffffffffffffffffffffffffffffffffffff1690506000612710600754876115dc9190612ff3565b6115e69190612fc2565b905080856115f49190612e1f565b94506116207f000000000000000000000000000000000000000000000000000000000000000082612287565b611629846125a8565b15611667576000612710600a54886116419190612ff3565b61164b9190612fc2565b905080866116599190612e1f565b95506116658582612287565b505b611670836125a8565b156116ae576000612710600b54886116889190612ff3565b6116929190612fc2565b905080866116a09190612e1f565b95506116ac8482612287565b505b6116b7826125a8565b156116f5576000612710600c54886116cf9190612ff3565b6116d99190612fc2565b905080866116e79190612e1f565b95506116f38382612287565b505b61171f7f000000000000000000000000000000000000000000000000000000000000000086612287565b60005b898990508110156117fe5760008a8a8381811061174257611741612d79565b5b90506020020135905060405180604001604052803373ffffffffffffffffffffffffffffffffffffffff16815260200182815250600e6000846005546117889190613406565b815260200190815260200160002060008201518160000160006101000a81548173ffffffffffffffffffffffffffffffffffffffff021916908373ffffffffffffffffffffffffffffffffffffffff160217905550602082015181600101559050505080806117f690612dd7565b915050611722565b5088889050600560008282546118149190613406565b925050819055507f000000000000000000000000000000000000000000000000000000000000000073ffffffffffffffffffffffffffffffffffffffff166323b872dd3330896040518463ffffffff1660e01b81526004016118789392919061343a565b6020604051808303816000875af1158015611897573d6000803e3d6000fd5b505050506040513d601f19601f820116820180604052508101906118bb919061349d565b503373ffffffffffffffffffffffffffffffffffffffff167f39ea9691747a2b91fb04913cee0e033ceb597ef0c04d43b15f267b30f1cfbae98a8a604051611904929190613534565b60405180910390a2505050505050505050565b60008054906101000a900473ffffffffffffffffffffffffffffffffffffffff1673ffffffffffffffffffffffffffffffffffffffff163373ffffffffffffffffffffffffffffffffffffffff16146119a5576040517f08c379a000000000000000000000000000000000000000000000000000000000815260040161199c90612d2a565b60405180910390fd5b80600c8190555050565b600060016104754244336040516020016119cb939291906135c1565b6040516020818303038152906040528051906020012060001c6119ee91906135fe565b6119f89190612e1f565b905090565b60055481565b60095481565b600080600080600080600080600080601060007f000000000000000000000000000000000000000000000000000000000000000073ffffffffffffffffffffffffffffffffffffffff1673ffffffffffffffffffffffffffffffffffffffff1681526020019081526020016000205490506000601060007f000000000000000000000000000000000000000000000000000000000000000073ffffffffffffffffffffffffffffffffffffffff1673ffffffffffffffffffffffffffffffffffffffff168152602001908152602001600020549050600061271060085483611af19190612ff3565b611afb9190612fc2565b9050600061271060095484611b109190612ff3565b611b1a9190612fc2565b9050600060045460025442611b2f9190612e1f565b10158015611b3f57506007600554115b905060025460015482600554600654898989899d509d509d509d509d509d509d509d509d505050505050909192939495969798565b600f6020528060005260406000206000915090508060000154908060010154908060020154908060030154905084565b600a5481565b600080600080600080600080600354600754600854600954600a54600b54600c54600454975097509750975097509750975097509091929394959697565b600d6020528060005260406000206000915054906101000a900473ffffffffffffffffffffffffffffffffffffffff1681565b6060600060055467ffffffffffffffff811115611c3b57611c3a612d4a565b5b604051908082528060200260200182016040528015611c695781602001602082028036833780820191505090505b5090506000805b600554811015611d3b578473ffffffffffffffffffffffffffffffffffffffff16600e600083815260200190815260200160002060000160009054906101000a900473ffffffffffffffffffffffffffffffffffffffff1673ffffffffffffffffffffffffffffffffffffffff1603611d2857600e600082815260200190815260200160002060010154838381518110611d0d57611d0c612d79565b5b6020026020010181815250508180611d2490612dd7565b9250505b8080611d3390612dd7565b915050611c70565b5060008167ffffffffffffffff811115611d5857611d57612d4a565b5b604051908082528060200260200182016040528015611d865781602001602082028036833780820191505090505b50905060005b82811015611de157838181518110611da757611da6612d79565b5b6020026020010151828281518110611dc257611dc1612d79565b5b6020026020010181815250508080611dd990612dd7565b915050611d8c565b50809350505050919050565b611df56125e1565b600f600060018054611e079190612e1f565b81526020019081526020016000206040518060a00160405290816000820154815260200160018201548152602001600282015481526020016003820154815260200160048201805480602002602001604051908101604052809291908181526020018280548015611ecd57602002820191906000526020600020905b8160009054906101000a900473ffffffffffffffffffffffffffffffffffffffff1673ffffffffffffffffffffffffffffffffffffffff1681526020019060010190808311611e83575b505050505081525050905090565b600b5481565b60075481565b60085481565b60008054906101000a900473ffffffffffffffffffffffffffffffffffffffff1673ffffffffffffffffffffffffffffffffffffffff163373ffffffffffffffffffffffffffffffffffffffff1614611f7b576040517f08c379a0000000000000000000000000000000000000000000000000000000008152600401611f7290612d2a565b60405180910390fd5b8060048190555050565b7f000000000000000000000000000000000000000000000000000000000000000081565b60008060005b6005548110156120685783600e6000838152602001908152602001600020600101541480156120415750600073ffffffffffffffffffffffffffffffffffffffff16600e600083815260200190815260200160002060000160009054906101000a900473ffffffffffffffffffffffffffffffffffffffff1673ffffffffffffffffffffffffffffffffffffffff1614155b1561205557818061205190612dd7565b9250505b808061206090612dd7565b915050611faf565b5080915050919050565b80600660008282546120849190612e1f565b9250508190555080601060008473ffffffffffffffffffffffffffffffffffffffff1673ffffffffffffffffffffffffffffffffffffffff16815260200190815260200160002060008282546120da9190612e1f565b925050819055505050565b60005b6005548110156122825782600e60008381526020019081526020016000206001015414801561217a5750600073ffffffffffffffffffffffffffffffffffffffff16600e600083815260200190815260200160002060000160009054906101000a900473ffffffffffffffffffffffffffffffffffffffff1673ffffffffffffffffffffffffffffffffffffffff1614155b1561226f57600f60006001548152602001908152602001600020600401600e600083815260200190815260200160002060000160009054906101000a900473ffffffffffffffffffffffffffffffffffffffff169080600181540180825580915050600190039060005260206000200160009091909190916101000a81548173ffffffffffffffffffffffffffffffffffffffff021916908373ffffffffffffffffffffffffffffffffffffffff16021790555061226e600e600083815260200190815260200160002060000160009054906101000a900473ffffffffffffffffffffffffffffffffffffffff1683612287565b5b808061227a90612dd7565b9150506120e8565b505050565b80600660008282546122999190613406565b9250508190555080601060008473ffffffffffffffffffffffffffffffffffffffff1673ffffffffffffffffffffffffffffffffffffffff16815260200190815260200160002060008282546122ef9190613406565b925050819055505050565b60006127106009548361230d9190612ff3565b6123179190612fc2565b90506123437f000000000000000000000000000000000000000000000000000000000000000082612072565b7f000000000000000000000000000000000000000000000000000000000000000073ffffffffffffffffffffffffffffffffffffffff166342966c68826040518263ffffffff1660e01b815260040161239c919061279e565b600060405180830381600087803b1580156123b657600080fd5b505af11580156123ca573d6000803e3d6000fd5b505050505050565b6000601060007f000000000000000000000000000000000000000000000000000000000000000073ffffffffffffffffffffffffffffffffffffffff1673ffffffffffffffffffffffffffffffffffffffff1681526020019081526020016000205490506124607f00000000000000000000000000000000000000000000000000000000000000008261248c565b50565b60006005819055506001600081548092919061247e90612dd7565b919050555042600281905550565b600073ffffffffffffffffffffffffffffffffffffffff168273ffffffffffffffffffffffffffffffffffffffff16036124fb576040517f08c379a00000000000000000000000000000000000000000000000000000000081526004016124f2906136a1565b60405180910390fd5b6125058282612072565b7f000000000000000000000000000000000000000000000000000000000000000073ffffffffffffffffffffffffffffffffffffffff1663a9059cbb83836040518363ffffffff1660e01b81526004016125609291906136c1565b6020604051808303816000875af115801561257f573d6000803e3d6000fd5b505050506040513d601f19601f820116820180604052508101906125a3919061349d565b505050565b60008073ffffffffffffffffffffffffffffffffffffffff168273ffffffffffffffffffffffffffffffffffffffff1614159050919050565b6040518060a0016040528060008152602001600081526020016000815260200160008152602001606081525090565b600080fd5b600080fd5b6000819050919050565b61262d8161261a565b811461263857600080fd5b50565b60008135905061264a81612624565b92915050565b60006020828403121561266657612665612610565b5b60006126748482850161263b565b91505092915050565b600081519050919050565b600082825260208201905092915050565b6000819050602082019050919050565b600073ffffffffffffffffffffffffffffffffffffffff82169050919050565b60006126d4826126a9565b9050919050565b6126e4816126c9565b82525050565b60006126f683836126db565b60208301905092915050565b6000602082019050919050565b600061271a8261267d565b6127248185612688565b935061272f83612699565b8060005b8381101561276057815161274788826126ea565b975061275283612702565b925050600181019050612733565b5085935050505092915050565b60006020820190508181036000830152612787818461270f565b905092915050565b6127988161261a565b82525050565b60006020820190506127b3600083018461278f565b92915050565b6127c2816126c9565b82525050565b60006020820190506127dd60008301846127b9565b92915050565b6127ec816126c9565b81146127f757600080fd5b50565b600081359050612809816127e3565b92915050565b60006020828403121561282557612824612610565b5b6000612833848285016127fa565b91505092915050565b600080fd5b600080fd5b600080fd5b60008083601f8401126128615761286061283c565b5b8235905067ffffffffffffffff81111561287e5761287d612841565b5b60208301915083602082028301111561289a57612899612846565b5b9250929050565b6000806000604084860312156128ba576128b9612610565b5b600084013567ffffffffffffffff8111156128d8576128d7612615565b5b6128e48682870161284b565b935093505060206128f7868287016127fa565b9150509250925092565b60008115159050919050565b61291681612901565b82525050565b600061012082019050612932600083018c61278f565b61293f602083018b61278f565b61294c604083018a61290d565b612959606083018961278f565b612966608083018861278f565b61297360a083018761278f565b61298060c083018661278f565b61298d60e083018561278f565b61299b61010083018461278f565b9a9950505050505050505050565b60006080820190506129be600083018761278f565b6129cb602083018661278f565b6129d8604083018561278f565b6129e5606083018461278f565b95945050505050565b600061010082019050612a04600083018b61278f565b612a11602083018a61278f565b612a1e604083018961278f565b612a2b606083018861278f565b612a38608083018761278f565b612a4560a083018661278f565b612a5260c083018561278f565b612a5f60e083018461278f565b9998505050505050505050565b600081519050919050565b600082825260208201905092915050565b6000819050602082019050919050565b612aa18161261a565b82525050565b6000612ab38383612a98565b60208301905092915050565b6000602082019050919050565b6000612ad782612a6c565b612ae18185612a77565b9350612aec83612a88565b8060005b83811015612b1d578151612b048882612aa7565b9750612b0f83612abf565b925050600181019050612af0565b5085935050505092915050565b60006020820190508181036000830152612b448184612acc565b905092915050565b600082825260208201905092915050565b6000612b688261267d565b612b728185612b4c565b9350612b7d83612699565b8060005b83811015612bae578151612b9588826126ea565b9750612ba083612702565b925050600181019050612b81565b5085935050505092915050565b600060a083016000830151612bd36000860182612a98565b506020830151612be66020860182612a98565b506040830151612bf96040860182612a98565b506060830151612c0c6060860182612a98565b5060808301518482036080860152612c248282612b5d565b9150508091505092915050565b60006020820190508181036000830152612c4b8184612bbb565b905092915050565b6000819050919050565b6000612c78612c73612c6e846126a9565b612c53565b6126a9565b9050919050565b6000612c8a82612c5d565b9050919050565b6000612c9c82612c7f565b9050919050565b612cac81612c91565b82525050565b6000602082019050612cc76000830184612ca3565b92915050565b600082825260208201905092915050565b7f4c6f7474653a2063616c6c6572206973206e6f7420746865206f776e65720000600082015250565b6000612d14601e83612ccd565b9150612d1f82612cde565b602082019050919050565b60006020820190508181036000830152612d4381612d07565b9050919050565b7f4e487b7100000000000000000000000000000000000000000000000000000000600052604160045260246000fd5b7f4e487b7100000000000000000000000000000000000000000000000000000000600052603260045260246000fd5b7f4e487b7100000000000000000000000000000000000000000000000000000000600052601160045260246000fd5b6000612de28261261a565b91507fffffffffffffffffffffffffffffffffffffffffffffffffffffffffffffffff8203612e1457612e13612da8565b5b600182019050919050565b6000612e2a8261261a565b9150612e358361261a565b9250828203905081811115612e4d57612e4c612da8565b5b92915050565b7f4c6f7474653a206e6f7420656e6f7567682074696d6520746f20647261770000600082015250565b6000612e89601e83612ccd565b9150612e9482612e53565b602082019050919050565b60006020820190508181036000830152612eb881612e7c565b9050919050565b7f4c6f7474653a20746f74616c207469636b65742073686f756c64206265206d6f60008201527f7265207468616e20370000000000000000000000000000000000000000000000602082015250565b6000612f1b602983612ccd565b9150612f2682612ebf565b604082019050919050565b60006020820190508181036000830152612f4a81612f0e565b9050919050565b600081519050612f6081612624565b92915050565b600060208284031215612f7c57612f7b612610565b5b6000612f8a84828501612f51565b91505092915050565b7f4e487b7100000000000000000000000000000000000000000000000000000000600052601260045260246000fd5b6000612fcd8261261a565b9150612fd88361261a565b925082612fe857612fe7612f93565b5b828204905092915050565b6000612ffe8261261a565b91506130098361261a565b92508282026130178161261a565b9150828204841483151761302e5761302d612da8565b5b5092915050565b60008160001c9050919050565b6000819050919050565b600061305f61305a83613035565b613042565b9050919050565b600081549050919050565b60008190508160005260206000209050919050565b600073ffffffffffffffffffffffffffffffffffffffff82169050919050565b60006130b96130b483613035565b613086565b9050919050565b60006130cc82546130a6565b9050919050565b6000600182019050919050565b60006130eb82613066565b6130f58185612b4c565b935061310083613071565b8060005b8381101561313857613115826130c0565b61311f88826126ea565b975061312a836130d3565b925050600181019050613104565b5085935050505092915050565b600060a08301600080840154905061315c8161304c565b6131696000870182612a98565b506001840154905061317a8161304c565b6131876020870182612a98565b50600284015490506131988161304c565b6131a56040870182612a98565b50600384015490506131b68161304c565b6131c36060870182612a98565b506004840185830360808701526131da83826130e0565b925050819250505092915050565b600060208201905081810360008301526132028184613145565b905092915050565b7f4c6f7474653a206e6f7420656e6f7567682062616c616e636500000000000000600082015250565b6000613240601983612ccd565b915061324b8261320a565b602082019050919050565b6000602082019050818103600083015261326f81613233565b9050919050565b7f4c6f7474653a207469636b65742063616e6e6f7420626520656d707479000000600082015250565b60006132ac601d83612ccd565b91506132b782613276565b602082019050919050565b600060208201905081810360008301526132db8161329f565b9050919050565b7f4c6f7474653a207469636b65742063616e6e6f74206265206d6f72652074686160008201527f6e20370000000000000000000000000000000000000000000000000000000000602082015250565b600061333e602383612ccd565b9150613349826132e2565b604082019050919050565b6000602082019050818103600083015261336d81613331565b9050919050565b7f4c6f7474653a2072656665727265722063616e6e6f7420626520796f7572736560008201527f6c66000000000000000000000000000000000000000000000000000000000000602082015250565b60006133d0602283612ccd565b91506133db82613374565b604082019050919050565b600060208201905081810360008301526133ff816133c3565b9050919050565b60006134118261261a565b915061341c8361261a565b925082820190508082111561343457613433612da8565b5b92915050565b600060608201905061344f60008301866127b9565b61345c60208301856127b9565b613469604083018461278f565b949350505050565b61347a81612901565b811461348557600080fd5b50565b60008151905061349781613471565b92915050565b6000602082840312156134b3576134b2612610565b5b60006134c184828501613488565b91505092915050565b600080fd5b82818337505050565b60006134e48385612a77565b93507f07ffffffffffffffffffffffffffffffffffffffffffffffffffffffffffffff831115613517576135166134ca565b5b6020830292506135288385846134cf565b82840190509392505050565b6000602082019050818103600083015261354f8184866134d8565b90509392505050565b6000819050919050565b61357361356e8261261a565b613558565b82525050565b60008160601b9050919050565b600061359182613579565b9050919050565b60006135a382613586565b9050919050565b6135bb6135b6826126c9565b613598565b82525050565b60006135cd8286613562565b6020820191506135dd8285613562565b6020820191506135ed82846135aa565b601482019150819050949350505050565b60006136098261261a565b91506136148361261a565b92508261362457613623612f93565b5b828206905092915050565b7f4c6f7474653a20616464726573732073686f756c64206e6f74206265207a657260008201527f6f00000000000000000000000000000000000000000000000000000000000000602082015250565b600061368b602183612ccd565b91506136968261362f565b604082019050919050565b600060208201905081810360008301526136ba8161367e565b9050919050565b60006040820190506136d660008301856127b9565b6136e3602083018461278f565b939250505056fea26469706673582212201d61687922bb9ee7dcbf58e9eeba32a8f5f82796e446e51568494c3bf370562064736f6c63430008120033",
  "linkReferences": {},
  "deployedLinkReferences": {}
}